:100000000C9434000C9446000C9446000C9446006A
:100010000C9446000C9446000C9446000C94460048
:100020000C9446000C9446000C9446000C94460038
:100030000C9446000C9446000C9446000C94460028
:100040000C9446000C9446000C9446000C94460018
:100050000C9446000C9446000C9446000C94460008
:100060000C9446000C94460011241FBECFEFD8E03C
:10007000DEBFCDBF11E0A0E0B1E001C01D92A63E01
:10008000B107E1F70E9472000C94DC000C940000B0
:1000900088EE93E020EA3FE00197F9013197F1F70C
:1000A0000097D1F741E020E030E00CC0F901EC59B5
:1000B000FE4F9081F901E050FF4F8081981340E09E
:1000C0002F5F3F4F261790F3842F089590E8909369
:1000D0006401809365016093660183E063E00E94A0
:1000E00048000895CF93DF9314BE20E040EA5FE01C
:1000F000CA010197F1F72F5F2A3FD1F720E040EACC
:100100005FE0CA010197F1F72F5F2A3FD1F720E0A6
:1001100040EA5FE0CA010197F1F72F5F2A3FD1F76C
:1001200020E040EA5FE0CA010197F1F72F5F2A3F24
:10013000D1F7C0EADFE080E061E00E94660020E0E5
:10014000CE010197F1F72F5F2A3FD1F720E0CE01D2
:100150000197F1F72F5F2A3FD1F720E0CE010197F9
:10016000F1F72F5F2A3FD1F720E0CE010197F1F799
:100170002F5F2A3FD1F780E060E00E94660020E018
:10018000CE010197F1F72F5F2A3FD1F720E0CE0192
:100190000197F1F72F5F2A3FD1F720E0CE010197B9
:1001A000F1F72F5F2A3FD1F720E0CE010197F1F759
:0C01B0002F5F2A3FD1F7BFCFF894FFCF9C
:00000001FF
