:0400000068EF01F0B4
:100008004282E1CF11F0E2CF12F0D9CF13F0DACF6C
:1000180014F0F3CF15F0F4CF16F0F2B4F2AA03D02F
:1000280060EC13F0F2949EB49DA471D0060E336078
:1000380035D033C00BF0010E0C6E0B2A02D0D890CD
:100048000C360B2EFCD70C50341428E0335004E146
:10005800939E8A508009816E330404E1939C8A50F0
:100068004009816E020E331804E193988A501009F2
:10007800816E030E331804E193948A500409816E4B
:10008800040E331804E1929C89504009806E050ED5
:10009800331804E1929E89508009806E3350020D16
:1000A800F350CA0FD96EDA6ADECF0BF0DDCF0CF051
:1000B8000BC018F00CC019F01A6A1B6AE30E182658
:1000C8002E0E1922000E1A221B223350020D140E76
:1000D800F324D96E010EF420DA6EDECF0BF0DDCFFB
:1000E8000CF00BC00DF00CC00EF0000E0EBEFF0E93
:1000F8000F6E106E0D5018260E5019220F501A222E
:1001080010501B2219C091FF18C090FF9E94A1B0F7
:10011800A0A0BED0060E336035D033C00BF0010E60
:100128000C6E0B2A02D0D8900C360B2EFCD70C5034
:10013800341428E0335004E1939E8A507F0B816E7B
:10014800330404E1939C8A50BF0B816E020E33186E
:1001580004E193988A50EF0B816E030E331804E183
:1001680093948A50FB0B816E040E331804E1929C21
:100178008950BF0B806E050E331804E1929E89509A
:100188007F0B806E3328070B336E3350020DF3500C
:10019800BA0FD96EDA6A3350020DF350CA0FE16E06
:1001A800E26ADE50E65CDE50E65837E23350020D74
:1001B800F350CA0FD96EDA6ADECF0BF0DDCF0CF040
:1001C80040500B241C6E41500C201D6E3350020D04
:1001D800F350BA0FD96EDA6ADE501C5CDE501D5837
:1001E8000BE23350020DF350CA0FD96EDA6A1CC005
:1001F800DEFF1DC0DDFF4BD03350020DF350BA0FA8
:10020800D96EDA6A3350020DF350CA0FE16EE26A12
:10021800DECFE6FFDDCFE5FF3AD03350020DF350D5
:10022800CA0FD96EDA6A3350020DF350BA0FE16E75
:10023800E26ADE50E65CDE50E6581CE23350020DFE
:10024800F350CA0FD96EDA6ADECF0BF0DDCF0CF0AF
:1002580040500B5C1C6E41500C581D6E3350020D03
:10026800F350BA0FD96EDA6A1C50DE5C1D50DE58A6
:10027800B8E3C2D733C00BF0010E0C6E0B2A02D0C4
:10028800D8900C360B2EFCD70C1C0001E517A1905A
:100298009EBA9DAA0BD0000EE0EC0DF00150176E2F
:1002A800172803E0175013EC12F09E9A16C0F4FFBB
:1002B80015C0F3FF14C0DAFF13C0D9FF12C0E2FF64
:1002C80011C0E1FF42921100A9EF0EF0800E39181B
:1002D80001E0B3D0245007E1929025B002D0899074
:1002E80001D0898004D2240407E1929225B002D07B
:1002F800899201D08982FBD1020E241807E19296D7
:1003080025B002D0899601D08986F1D1030E241830
:1003180007E1929425B002D0899401D08984E7D16D
:10032800040E241807E1929825B002D0899801D0CC
:100338008988DDD1050E241807E1949025B002D0F4
:100348008B9001D08B80D3D1060E241807E19494AA
:1003580025B002D08B9401D08B84C9D1070E241804
:1003680007E1949225B002D08B9201D08B82BFD145
:10037800080E241807E1939625B002D08A9601D07A
:100388008A86B5D1090E241807E1939025B002D0CA
:100398008A9001D08A80ABD10A0E241807E1939283
:1003A80025B002D08A9201D08A82A1D10B0E2418DE
:1003B80007E1929A25B002D0899A01D0898A97D10B
:1003C8000C0E241807E1939E25B002D08A9E01D016
:1003D8008A8E8DD10D0E241807E1939C25B002D08A
:1003E8008A9C01D08A8C83D10E0E241807E1939839
:1003F80025B002D08A9801D08A8879D10F0E2418A6
:1004080007E1939425B002D08A9401D08A846FD1F1
:10041800100E241807E1929C25B002D0899C01D0C7
:10042800898C65D1110E241801E061D1929E25B006
:1004380002D0899E01D0898E5AD1810E391801E0E7
:100448008FD0245005E19280000E80B0010E1BD1A0
:10045800240405E19282000E80B2010E14D1020E2E
:10046800241805E19286000E80B6010E0CD1030E09
:10047800241805E19284000E80B4010E04D1040E04
:10048800241805E19288000E80B8010EFCD0050EF4
:10049800241805E19480000E82B0010EF4D0060EF7
:1004A800241805E19484000E82B4010EECD0070EE6
:1004B800241805E19482000E82B2010EE4D0080EE1
:1004C800241805E19386000E81B6010EDCD0090ED2
:1004D800241805E19380000E81B0010ED4D00A0ED5
:1004E800241805E19382000E81B2010ECCD00B0EC8
:1004F800241805E1928A000E80BA010EC4D00C0EB1
:10050800241805E1938E000E81BE010EBCD00D0E9D
:10051800241805E1938C000E81BC010EB4D00E0E98
:10052800241805E19388000E81B8010EACD00F0E97
:10053800241805E19384000E81B4010EA4D0100E96
:10054800241805E1928C000E80BC010E9CD0110E7F
:10055800241801E0CCD0928E000E80BE010E93D0FC
:10056800830E391804E124500CEC14F08CD0850E5D
:10057800391804E1245003EC14F0B9D08A0E391864
:1005880004E1245035EC14F07ED08B0E39183AE192
:1005980024503CEC14F077D0245003E0C5EC13F061
:1005A800A6D0D0EC13F0A3D0245003E06BEC14F0E9
:1005B8009ED071EC14F09BD0616B606924C062F02E
:1005C800636BEFEC13F093D0245004E0255027EC34
:1005D80014F08DD025502EEC14F089D0245009E069
:1005E8002650676F2550606F67C061F015EC14F0F6
:1005F8007ED02650676F2550606F67C061F01EEC93
:1006080014F075D03950920AC7E0010ACDE0070A04
:10061800D3E0010AD9E0030AE1E0970E391804E1B2
:100628002450E7EC0EF063D0980E391804E12450FA
:100638006BEC08F05CD0990E391806E125C01EF065
:1006480024509CEC12F053D09B0E39181FE1020E77
:1006580024180DE150D8030E6AEC0EF0000E1CECC5
:1006680010F01E500101006FF9EC13F040D0240483
:1006780008E141D8010E6AEC0EF0000E1CEC10F0F7
:10068800F0D751EC13F00101006F31D09C0E3918EE
:1006980026E1020E24180EE12ED8030E6AEC0EF0A5
:1006A800010E1CEC10F01EC069F01FC06AF0F9ECD6
:1006B80013F010D0240408E11ED8010E6AEC0EF0E5
:1006C800010E1CEC10F0EFD7EDEC12F063C069F0EE
:1006D80064C06AF069C001F16AC000F108D09F0ED9
:1006E800391805E124C01EF01F6A68EC14F03C506C
:1006F8000CE007D00AD0030E1F6E206A280E216E68
:10070800280C020E0001F46F020C0001F46B1200B9
:100718006851641903E169516519D8A4B5D06E6BA5
:100728006F6B0ED02CD918D9070EF76403D00800C8
:10073800F55001D00BD9000905E000016E4B6F2B75
:1007480030D9F0E3000137D97DE2706B716B12D0BC
:10075800705164251E6E71516521FED8070EF7642D
:1007680003D00800F55001D0F1D8000908E00001D5
:10077800704B712B6651705D67517159E9E3000147
:100788006E516A5D1E6E6F516B591F6E70511E5C03
:1007980071511F5806E26E516A5D706F6F516B5947
:1007A800716F70516E25666F71516F21676F70C0E0
:1007B8006EF071C06FF016D06E07D8A06F0766078D
:1007C800D8A06707D6D8C8D866516825D96E6751AA
:1007D8006921DA6E070EF76403D00800F55001D0DE
:1007E800B5D8DF6E00016E516F11E6E16E6B6F6B6D
:1007F80014D00001C4D8B0D86E516825D96E6F5195
:100808006921DA6E070EF76403D00800F55001D0AD
:100818009DD8DF6E00016E4B6F2BC3D80DE2CBD88D
:100828000BE2ADD899D8070EF76403D00800F5504D
:1008380001D08CD80009DDE100016E5170276F519D
:1008480071237DD0706B716B0FD000018CD884D868
:100858009CD8070EF76403D00800F55001D076D86D
:10086800DF6E0001704B712BA1D869E295D867E261
:100878007AD872D8070EF76403D00800F55001D073
:1008880065D800095CE0E1D7706B716B0FD000018F
:100898006AD862D87AD8070EF76403D00800F550F2
:1008A80001D054D8DF6E0001704B712B7FD80DE258
:1008B80073D80BE258D850D8070EF76403D0080055
:1008C800F55001D043D80009E2E1000165D837E2CC
:1008D800705168256C6F715169216D6F70516A5D37
:1008E800626F71516B59636F6E6B6F6B14D000013F
:1008F80040D832D86E516C25D96E6F516D21DA6EA1
:10090800070EF76403D00800F55001D01FD8DF6E3A
:1009180000016E4B6F2B66516E5D67516F598CE20B
:1009280040D88AE226D818D8070EF76403D0080002
:10093800F55001D00BD8000901E17ED7D8D70001C6
:100948002BD8D8B0120021D8DF6A000CF6CFE9FF07
:10095800F7CFEAFFEF5012001F6E1EC0F6FF1FC050
:10096800F7FFF86A1200705160251E6E71516121FF
:1009780012006E5164251E6E6F51652112006E5172
:1009880060251E6E6F516121120070516825D96E65
:1009980071516921DA6E12006A51705D6B5171599B
:1009A800120062516E5D63516F5912006251705DA1
:1009B8006351715912006A516E5D6B516F59120083
:1009C8000101DF6BA3EC13F0C2EC0CF084EC0DF02A
:1009D800F1EC11F0FA6F2F0EFA6503D0350EFA65B7
:1009E80002D0300EFA6FE30E626F3F0EB3D80CECF4
:1009F8000AF084EC0DF00101E16FE10501E08ED011
:100A0800DF6BE06BF1EC11F00101E16F05D0A5D8C7
:100A1800E1C1DFFFE02BF6D7200EE11903E03F0E1E
:100A2800E119F5E19AD8000EDF6EE05102E1010EFE
:100A380017D0670E0001606F3F0E75D8CBEC0CF035
:100A4800000903E1010E0101DF6F5D0E0001606F17
:100A58003F0E69D8CBEC0CF0000903E1020E01014E
:100A6800DF6F3F0E0101E11902E173EC06F0010EA0
:100A78006FEC13F0CDEC11F01E500101E16F58EC52
:100A880014F00101E15118E0F2D728EC0DF01ED066
:100A980086EC12F01BD0BFEC0FF018D0B2EC12F0BD
:100AA80015D0840E0001726F3E0E736F756B1B0EAE
:100AB800746F92EC09F00AD0DF51010AE6E0030AEC
:100AC800E7E0010AE8E0070AE9E0EBD758EC14F0A0
:100AD800FAC0DDF10101DE6BD00E0001606F3E0E41
:100AE800616F636B0D0E626FDD0E646F010E29D8A6
:100AF800C80E686F010E696F6B6B140E6A6F8CEC11
:100B080003F0C80E606F010E616F636B140E1ED880
:100B180023EC0FF009EC0BF084EC0DF0DFC1DCF1F5
:100B28000101DC511200616F636B0A0E626FC80E1F
:100B3800646F010E656F676B140E666F010E686F48
:100B4800010C656F676B020E666F020C626F010E17
:100B5800646F010C636F656B060CC80EE025D96ED7
:100B6800DA6A010EDA2212001E0E376E860E0001B6
:100B7800626F010EAAD8666B34EC12F0A70E626F92
:100B8800010EA3D8240E666F34EC12F08FEC0FF030
:100B98003A6A8ED815EC11F01E501F1012E072D868
:100BA80004EC09F03A6E3A5004E07ED8A8EC0AF05A
:100BB80054D0B30E55D8D0EC07F076D8A8EC0AF08C
:100BC8004CD0B30E00014CD8D0EC07F06DD8A8EC8F
:100BD8000AF043D0E4EC04F03D6E020E3D183AE111
:100BE800860E0001686F010E75D86C6B3BEC11F036
:100BF800A70E686F010E6ED8010E6C6F3BEC11F0FA
:100C080057D815EC11F01E501F1024E0860E000175
:100C1800646F010E55D8000EEFEC0FF0A70E646F4D
:100C2800010E4ED8240EEFEC0FF023EC13F01E0E3D
:100C3800376E28D804EC09F03A6E3A5004E034D8FC
:100C4800A8EC0AF007D0B30E0BD8D0EC07F02CD8DC
:100C5800A8EC0AF0371C1F0B376E3A50BBE01200A5
:100C6800726F3E0E736F756B0F0E746FB00E766FEA
:100C78003F0E776F796B090E786F010E7A6F030E4E
:100C88007B6F030C860E0001726F010E736F756B1C
:100C9800210E746FA70E766F010E776F796B210E98
:100CA800786F140E7A6F140C736B500E726F010C00
:100CB800860E1E6E010E1F6E216A210E206E210CFB
:100CC800656F676B210E666F210C636F656B210E74
:100CD800646F210C696F6B6B210E6A6F210C000128
:100CE800696B3F0E6D6F83D03F0E6D1903E0260EC2
:100CF8006D1972E16B6BF1EC11F06D6F0ED00001A4
:100D08006D518AEC13F00009F6E000016B510A0DF1
:100D1800F3506D25D00F6B6FEED76D51DAEC12F0F2
:100D28000009EDE13D0E00016D1959E16C6B0FD022
:100D3800B20E606F6FD826EC0EF0220E6A6F13D0D9
:100D48006A6B11D0B20E58D826EC0EF0F6D76B515C
:100D5800010AEEE0030AF4E0010AF2E0070AF0E013
:100D6800010AEEE0EFD7F1EC11F06D6F14D05FD807
:100D780001D063D8DA226DC0DFFF0BD06B51010AB6
:100D8800F6E0030A06E0010A04E0070A02E0010AA5
:100D9800F0E16C2BE8D76A516C5D03E2686B682B55
:100DA80002D00001686B6D51DAEC12F00001681591
:100DB80007E0E4D73CD801D040D8DA22DF6A0FD068
:100DC8006B51010AF7E0030A0AE0010A08E0070A82
:100DD80006E0010AF1E103D0F1EC11F06D6F6D51FD
:100DE800E5EC13F0000903E0010E0001696F000152
:100DF800695101E179D71200606F3E0E616F636B34
:100E0800010E626F400E646F010E656F676B230EF3
:100E1800666F230C3E0E616F636B010E626F630E8B
:100E2800646F010E656F676B230E666F230C630E8C
:100E38006C25D96EDA6A010E1200400E6C25D96E47
:100E4800DA6A010E1200696B6A6B666B676B70D0A9
:100E5800695196D8250A5EE185D80800F550250A1B
:100E68000EE1655105E01F6A250E1E6E53EC14F065
:100E78000001662B000E6723020E692748D0630E17
:100E8800686F70D82F0E0800F56425D06BD83A0E1D
:100E98000800F56020D066D80800F550D00F686FBC
:100EA800692B000E6A235ED82F0E0800F56410D057
:100EB80059D83A0E0800F5600BD00A0E6803F350B3
:100EC800686F50D80800F5506825D00F686F03D0B8
:100ED800FF0E69076A23630E686118D06851010A1A
:100EE80011E0030A0FE0010A0DE0070A0BE0010A0E
:100EF80009E0030A07E0010A05E00F0A03E0010A16
:100F0800D8A4030A6851D8A40B0AB6D7692B000ED7
:100F18006A230ED0655106E0695132D81E6E1F6AE9
:100F280053EC14F00001692B000E6A23662B67232B
:100F3800695126D88DE1645110E0655108E054EC00
:100F48000FF053EC14F058EC0FF053EC14F0020EC1
:100F580000016627000E6721676F66C060F067C0F2
:100F680061F0120069516025206E6A516121216E7D
:100F7800202A000E212220C0F6FF21C0F7FF000C16
:100F88006025206E6A516121216E20C0F6FF21C0C4
:100F9800F7FF0800F55012000E0E606F3F0E1CECB4
:100FA8000BF023EC0FF0B10E00017EEC09F0010EFE
:100FB800666F84EC0DF0B10E7EEC09F0666B84EC84
:100FC8000DF0B10E7EEC09F0666B84EC0DF058EC78
:100FD80014F0480E0001606F3F0E8DEC09F07C0E96
:100FE80023EC0BF026EC0EF07C0E5CD872C064F09B
:100FF80073C065F074C066F075C067F07C0E4CD89D
:101008008CEC03F07C0E4ED885EC09F07C0E44D8AD
:101018008CEC03F07C0E46D876C064F077C065F09F
:1010280078C066F079C067F07C0E36D88CEC03F097
:101038007C0E38D8C50E646F3F0E656F676B030E64
:10104800666F7C0E29D88CEC03F07AC063F038D830
:1010580006EC0CF07C0E26D82BD81ED88CEC03F0AE
:101068007C0E20D8FEEC09F07C0E16D88CEC03F030
:101078007BC063F025D806EC0CF07C0E13D818D88A
:101088000BD88CEC03F07C0E14EC0BF023EC0FF077
:1010980009EC0BF084EF0DF0686F696B6B6B320E27
:1010A8006A6F320C606F616B636B320E626F320C69
:1010B800AF0E646F656B676B050E666F7C0E120072
:1010C800646BAF0E656F676B050E666F050C646F1A
:1010D80043D07AD88BD861D802D0D8906133602FAA
:1010E800FCD70001615148D06FD8100E226E040E53
:1010F800236E53D802D0D8906133602FFCD7F1D734
:101108003BD062D8040E226E020E236E46D802D05F
:10111800D8906133602FFCD7E4D72ED05ED866D83C
:101128003CD802D0D8906133602FFCD7DAD724D0CE
:1011380054D861D832D802D0D8906133602FFCD708
:10114800D0D71AD041D857D828D802D0D8906133F0
:10115800602FFCD7C6D710D000016451010AB9E04E
:10116800030AC2E0010ACDE0070AD8E0010AE0E07C
:10117800030A02E0010AE6E1060E6461060C64C097
:1011880062F0010E636F622B02D0D8906337622F32
:10119800FCD70001631D3416120020C0D9FF21C0FE
:1011A800DAFFDF50221020C0D9FF21C0DAFFDF6E3E
:1011B80023C060F01EC0D9FF1FC0DAFFDF50221421
:1011C8000001616F602B1200810E1E6E0F0E1F6EE4
:1011D800930E206E0F0E216E0F0C800E1E6E0F0EDA
:1011E8001F6E920E206E0F0E216E0F0C400E226E97
:1011F800060E236E060C800E226E070E236E070C59
:10120800F60E606F3E0E1CEC0BF023EC0FF0B10EE7
:10121800000170D8010E666F84EC0DF0B10E6AD82B
:10122800666B84EC0DF0B10E65D8666B84EC0DF03E
:1012380058EC14F03D0E0001606F3F0E6AD87B0E2B
:1012480023EC0BF026EC0EF07B0E56EC08F072C087
:1012580064F073C065F074C066F075C067F07B0E0B
:1012680050EC08F08CEC03F07B0E56EC08F049D8F3
:101278007B0E50EC08F08CEC03F07B0E56EC08F07B
:1012880076C064F077C065F078C066F079C067F022
:101298007B0E50EC08F08CEC03F07B0E56EC08F05B
:1012A800F10E646F3F0EA5EC05F07B0E50EC08F0D4
:1012B8008CEC03F0AD6B7B0E14EC0BF023EC0FF011
:1012C8000DD0010EC6EC12F0FC0E00010CD8666BB6
:1012D80084EC0DF0AD6FAD5104E17A0700017A514D
:1012E800F0E1AD511200626F3F0E636F656B030E44
:1012F800646F030C626F3E0E636F656B020E646F62
:10130800020CEF0E646F3F0E656F676B040E666F1D
:10131800040C616F636B0B0E626F0B0C7DD8646BF2
:10132800656B27EC07F060C0B0F061C0B1F0B05158
:10133800B111D8B41200B0C063F0B1C064F0A80E07
:1013480074D806EC0CF0FAC0AEF0AF6B1A0E606FF2
:101358003F0E616F636B0C0E626F760E23EC0BF021
:1013680026EC0EF0760E56EC08F0AE0E646F656B48
:10137800676B020E666F760E50EC08F08CEC03F08B
:10138800760E56EC08F036D8760E50EC08F08CEC59
:1013980003F0760E56EC08F0A80E34D8760E50EC12
:1013A80008F08CEC03F058EC14F0760E000114EC05
:1013B8000BF023EC0FF0F30E0001626F3F0E636F2A
:1013C800656B030E25D884EC0DF058EC14F024D886
:1013D8000001646B010E656F27EC07F0530E626F16
:1013E8003F0E636F656B0A0E13D884EC0DF0640E24
:1013F80050EF12F0C60E646F3F0E656F676B020EFA
:10140800666F020C646F656B676B060E666F060C81
:10141800646F010E666F010C72C060F073C061F0FA
:1014280074C062F075C063F01200656F676B060EDA
:10143800666F060C0F015B6B5C6B5D6B700ED36E99
:101448000001F46B939A8A9AD59AD588D550F00BF7
:101458000209D56EF28EF28A23EC13F0B8EC05F08F
:1014680023EC13F05CEC0FF0010E0001E86FF50EB1
:101478000001706F726B050E716F746B736F69EC9E
:101488000CF070C0B7F071C0B8F0B751B81152E0A5
:101498001F0E376EF06B38D052D8DF50B96FB9C015
:1014A800B6F028D0ED51240FD96EDA6AB9C0DFFF43
:1014B800ED2B382804E1B95102E1EDC038F0ED51C7
:1014C80038181EE16AEC01F01BD0000EEF25D96E2A
:1014D800DA6A010EDA22DF50B66FEF2BEF513C18B3
:1014E8000FE1F46B0DD0B9AF0BD0B9C039F02EECC9
:1014F8000BF006D0F451010AD5E0030AE6E0F3D771
:101508001ED8B6C0DFFFF02BF051B46FB56BB751E2
:10151800B45DB851B559C0E3F50E726F746B050E22
:10152800736FB7C075F0B8C076F09FEC0BF0050E7E
:10153800376E9DD7010E37649AD7370698D7F05182
:10154800F50FD96EDA6A1200AC6F72C063F073C01F
:1015580064F0A60E000119EC0AF006EC0CF0C20EBD
:10156800606F3E0E616F636B0E0E626F740E67D80C
:1015780026EC0EF058EC14F00001AC0513E1740EE3
:1015880056EC08F0F90E646F3F0E656F5ED850ECAC
:1015980008F08CEC03F0020E606F3F0E49D823EC84
:1015A8000FF012D0740E56EC08F0F60E646F3F0E72
:1015B800656F4BD850EC08F08CEC03F0EA0E606FC6
:1015C8003E0E36D823EC0FF020D884EC0DF0FC0E3C
:1015D80077EC09F0010E666F84EC0DF0740E56EC92
:1015E80008F0A60E06EC0AF0740E50EC08F08CEC2D
:1015F80003F058EC14F0740E000112D823EC0FF02D
:1016080004D884EC0DF058EF14F0FC0E0001626F62
:101618003F0E636F656B030E646F010E666F010CFE
:10162800606F616B636B320E626F010E646F010C49
:10163800616F636B0C0E626F010E646F010C646F57
:10164800656B676B320E666F320C676B030E666FE5
:10165800740E1200386AED6B3C6AEF6B05D0020E0F
:1016680031D0010E386E46D03950800AF8E0010AB0
:10167800F8E005D0AFEC13F050D0010E23D039506C
:10168800820AF8E0010AEDE0060AF7E00CD07FECE8
:1016980014F043D07BEC14F040D07DEC14F03DD036
:1016A80079EC14F03AD03950860AF1E0010AF2E0F8
:1016B8000F0AF3E0010AF4E0030AD3E0010AD1E0DB
:1016C80003D0030E386E29D03950920AD6E0010AA9
:1016D800D4E0070AD2E0010AC2E0030AF2E0395076
:1016E800970ACBE00F0AC9E0010AB9E00BD0010E56
:1016F800386E020E3C6E11D043EC14F00ED077EC2D
:1017080014F00BD039509B0AACE0070AF0E0010A4C
:10171800F3E0030AF4E0010AB0E0385004E0010EF7
:101728000001F46F010C3C5002E189EF03F085EFF2
:1017380003F089EF03F0FAC0A9F0AA6B1A0E606FE4
:101748003F0E616F636B0C0E626F54D850EC08F05B
:101758008CEC03F075C063F076C064F0A90E19EC48
:101768000AF006EC0CF0770E56EC08F0FEEC09F0E7
:10177800770E50EC08F08CEC03F0770E56EC08F07E
:1017880039D850EC08F08CEC03F0770E14EC0BF021
:1017980023EC0FF0BF0E0001626F3F0E636F656BA5
:1017A800020E0CEC0AF084EC0DF0AF6FAF5116E0AE
:1017B800B06BB16B0DD07251B025D96EDA6ADF50BB
:1017C8001E6E1F6A53EC14F00001B02B000EB123FB
:1017D8007551B05D7651B159EEE31200260E606F77
:1017E8003F0E1CEC0BF023EC0FF0010EC6EC12F0D0
:1017F80058EF14F0A90E646F656B676B060E666F81
:10180800770E120063C06AF064C06BF0270E6F6F2A
:10181800100E6E6F6D6B6651671101E112006C6BF3
:101828006A516B113AE1010E6C6F6F6B6E6F35D0B8
:101838006E516A5D6F516B5902E26C5121E06AC0CA
:101848001EF06BC01FF06EC020F06FC021F060EC7E
:1018580011F01E506C6F34D86C51300FDF6E6D2B49
:101868006CC01EF01F6A6EC020F06FC021F000EC43
:1018780013F01E5000016A5F1F506B5B010E6C6F06
:101888006EC01EF06FC01FF0216A0A0E206E60EC59
:1018980011F01EC06EF01FC06FF00AD803E26E513F
:1018A8006F11C6E105D8D8B012000AD8DF6A000C5B
:1018B8006D51686F696B6651685D675169591200AF
:1018C80065516D25D96EDA6A1200796B7A6B7B6B7C
:1018D8007C6B54D884EC0DF0776F77054AE1F1EC16
:1018E80011F0FA6F2F0EFA6503D0350EFA6502D0A3
:1018F800300EFA6FF1EC11F0F1EC11F0786F1BD0AB
:1019080079C01EF07AC01FF0216A0A0E206E00EC22
:1019180013F01EC079F01FC07AF0000178517925C4
:10192800756F000E7A21766FD00E7525796FFF0ED0
:1019380076217A6FE1D778518AEC13F0000913E029
:10194800DFD7F1EC11F0756F70517B25D96EDA6A2B
:1019580075C0DFFF7B2B000E7C2373517B1903E1DD
:1019680074517C1906E0000179517B5D7A517C59EC
:10197800E8E37BC070F07CC071F01200DD0E626F8E
:101988003F0E636F656B060E646F666B060C216A0B
:10199800226A28D045D8F5CF23F04ED8206E68515A
:1019A8000EE0600E236404D07B0E236001D0239ADE
:1019B800600E206404D07B0E206001D0209A205055
:1019C80004E12350D8B4000C010C235001E1FF0CB2
:1019D8002050235C01E2FF0C2350205C01E2010C43
:1019E800214A222A6251215C6351225805E266513C
:1019F800215C67512258CEE36251665D6351675995
:101A080005E20ED8F550D8A4010C000C6651625DB1
:101A180067516359D8B0000C0FD8D8A4FF0C000C3C
:101A2800215060251E6E225061211F6E1EC0F6FFD8
:101A38001FC0F7FF0800120021506425D96E2250FC
:101A48006521DA6EDF501200D8EC0FF092EC09F045
:101A5800E1EC0FF092EC09F0A50E0001726F3D0E5B
:101A6800736F756B3C0E746F92EC09F0670E000192
:101A7800726F3E0E736F756B1E0E746F92EC09F0E9
:101A8800450E0001726F3E0E736F756B230E746FF7
:101A980092EC09F0180E0001726F3D0E736F756BB2
:101AA8004C0E746F92EC09F0180E0001726F3E0E26
:101AB800736F756B2E0E746F92EC09F0C50E0001F2
:101AC800726F3C0E736F756B540E746F92EC09F065
:101AD800630E0001726F3D0E736F756B430E746F6A
:101AE80092EC09F0320E0001726F3F0E736F756B46
:101AF8000C0E746F92EC09F0CFEC0FF092EF09F036
:101B08006D6B6B6B62C01EF063C01FF064C020F089
:101B180065C021F015EC11F01E500001696F665187
:101B280002E145D83DD06E6B6F6B3AD0CDEC11F029
:101B38001E5000016A6F6A512CE0C7EC10F01E506D
:101B48006C6F6D516225676F000E6321686F67C007
:101B5800F6FF68C0F7FF0800F5506C190DE16651F3
:101B680002E125D802D06E6B6F6B6D2B69516D1930
:101B780017E1010E6B6F19D062C0F6FF63C0F7FF63
:101B88000800F5506C1903E1010E6D6F09D06D6BFB
:101B980007D0010E6FEC13F000016E2B000E6F23BF
:101BA800B80E6E5D0B0E6F59C1E36B5112000A0E31
:101BB8006F6FBE0E6E6FBE0C086E0468056A036A0E
:101BC800096A082822E1010E036E1FD0035015E1AF
:101BD800085003E1010E096E10D0066A076A064A2A
:101BE800072A075003E10C0E065CF9E3052A640E88
:101BF800051803E108060400056A000E9EBA010EE6
:101C08000A6E0A5002E0020E096E0950DFE0020E69
:101C1800091814E1000EABB4010E0A6E0A5002E076
:101C2800AE500CD0000EABB2010E0A6E0A5003E0A3
:101C3800AB98AB8803D0046AAE50041204C001F01C
:101C4800026A1200206A216A0FD02050000127D8AA
:101C580031D8070EF76403D00800F55002D0AAEC7B
:101C680004F0DF6E204A212A00016251205C635192
:101C780021580EE226D80CE2205011D8070EF7643E
:101C880003D00800F55002D0AAEC04F00009DDE109
:101C9800000117D8D8B012000DD8DF6A000C6025F3
:101CA8001E6E215061211F6E1EC0F6FF1FC0F7FF78
:101CB800F86A120020506425D96E21506521DA6E29
:101CC80012006651205C675121581200236E1F5084
:101CD800070BC06E0BD0010E316E920E2B6E0F0EDD
:101CE8002C6E5B0E296E0F0E2A6E02D02350F3E085
:101CF800205009E020C022F0030E2216D890223688
:101D0800D8902234C11217D8DF50326E32503110B9
:101D180012D8DF6E15D8DF50311012D8DF6E234489
:101D2800E846FC0B0109C26E215050EC12F0C2507B
:101D38000209C26E12002BC0D9FF2CC0DAFF1200B4
:101D480029C0D9FF2AC0DAFF1200060EF66E290E46
:101D5800F76E000EF86E0900F5CFFAF0020EF66E77
:101D6800290EF76E000EF86E0900F5CF40F0090055
:101D7800F5CF41F002EEB4F011EE90F0EE6AE550C6
:101D8800E150FCE1E250FAE102EE00F0B40EEE6A36
:101D9800E806FDE101EE00F0C80EEE6AE806FDE196
:101DA80000EEBAF0400EEE6AE806FDE100EE24F01F
:101DB8001C0EEE6AE806FDE142904292000EF86EB3
:101DC80000011EEF0AF0206E1AD0939C8A50BF0BB8
:101DD80014D093988A50EF0B10D093948A50FB0B31
:101DE8000CD0929C8950BF0B03D0929E89507F0BD8
:101DF800806E14D0939E8A507F0B816E0FD0205036
:101E0800010AE3E0030AE5E0010AE7E0070AE9E07E
:101E1800010AEBE0030A02E0010AECE1060E206089
:101E2800060C20C01EF0010E1F6E1E2A02D0D8908C
:101E38001F361E2EFCD71F503410346E1200226A33
:101E48000DD020D8F76403D00800F55002D0AAECD2
:101E580004F01E6E1F6A53EC14F0222A13D8F7649C
:101E680003D00800F55002D0AAEC04F00009E9E11B
:101E780000016451D8B4120013D853EC14F014D8EC
:101E880053EF14F0225000016025206E000E6121EE
:101E9800216E20C0F6FF21C0F7FFF86A070E120076
:101EA8001F6A0D0E1E6E0D0C1F6A0A0E1E6E0A0C9E
:101EB800416A460E406E336A0FD0335028D81FD877
:101EC800F350BA0F1CD8140EF324D96E010EF42067
:101ED800DA6EDE6ADD6A332A070E3364EED7336AB8
:101EE800750EBF6E300EBE6E010ECD6E0B0EBD6E42
:101EF8009D840A0E976EA080F28CF28E0A0CD96E21
:101F0800DA6ADE6A230EDD6E3350020D1200020D0E
:101F1800F350CA0F120082EC14F0A3EC13F0BAECE1
:101F280013F0D60E606F3F0E616F636B070EAAEC5D
:101F380005F023EC0FF0010EC6EC12F0E90E0001DB
:101F4800626F3F0EAEEC05F00CEC0AF084EC0DF07D
:101F580058EC14F0010EC6EC12F0EA0E0001606FA6
:101F68003E0E1CEC0BF023EC0FF009EC0BF084ECAC
:101F78000DF058EF14F018D892EC09F01ED892EC36
:101F880009F0710E0001726F3F0E20D892EC09F033
:101F980002D892EF09F0B90E0001726F3F0E736F0D
:101FA800756B080E746F080C9F0E0001726F3E0E61
:101FB800736F756B130E746F130C830E0001726FC1
:101FC8003F0E736F756B0A0E746F0A0C736F756B27
:101FD8000A0E746F0A0C696F00016A6B64C01EF008
:101FE80065C01FF066C020F067C021F015EC11F045
:101FF8001E500001686F0DD015D86A516425D96E3E
:10200800000E6521DA6EDF50626F636BDBEC13F054
:102018006A2B68516A5DF0E305D8000E636F626F42
:10202800DBEF13F069516A25606F616B613712004D
:102038000001606FC2B2FED7000160511AE0C450BF
:10204800206E216AD89020362136D8902036213645
:1020580020C061F021C062F0C3CF20F0060E216ECF
:10206800D8902032212EFCD761512010616F625127
:1020780003D0C4CF61F0626BC2500209C26E61C066
:102088001EF062C01FF012001F6E206A9288040EB4
:1020980050EC12F0800E216E10D09480040E50EC9B
:1020A80012F0928880A802D0215020129490829039
:1020B800040E50EC12F0D89021322150EEE11F505E
:1020C80002E0928802D092988098040E50EC12F0A8
:1020D8009480040E50EC12F09490829020501200DC
:1020E8001F6E206A800E216E12D01F50211402E04C
:1020F800928802D092988098040E50EC12F0948046
:10210800040E50EC12F094908290D8902132215015
:10211800ECE19288040E50EC12F09480040E50EC1E
:1021280012F0928880A802D0010E206E94908290BE
:1021380020501200FC0E0F0159171EC0BBFF08D01B
:102148000FEF11F00CEF11F012EF11F009EF11F091
:1021580020C022F021C023F0235002E00CEF11F040
:102168002250010A02E10FEF11F0050A02E10CEF1B
:1021780011F0140A02E112EF11F0500A02E109EF1E
:1021880011F00CEF11F02F502D1803E130502E18DC
:102198001AE0B40E2D24D96E020E2E20DA6EDF500E
:1021A800206E216A2D28226E000E2E20236E900E9E
:1021B800225C010E235802E3226A236A22C02DF012
:1021C80023C02EF003D0000E216A206820C01EF024
:1021D80021C01FF01200F30E0F0159171EC0BBFFDC
:1021E80004D019D015D01AD010D020C022F021C0A8
:1021F80023F023500DE12250010A0DE0050A08E002
:10220800140A0CE0500A01E003D0070EBA6E070C5E
:10221800050EBA6E050C040EBA6E040C060EBA6EE4
:10222800060C0001606B616B18D060511E24226E91
:1022380061511F20236E22C0F6FF23C0F7FFF86A02
:10224800070EF76403D00800F55002D0AAEC04F09A
:10225800000908E00001604B612B2050605D2150AF
:102268006159E3E360C01EF061C01FF0120015D091
:10227800630E606F010E03D0400E606F010E616F38
:10228800636B230E626F68C064F069C065F06AC052
:1022980066F06BC067F026EF0EF06C51010AE8E0BB
:1022A800030AD8B41200010AD8B41200070AD8B435
:1022B8001200010AE1E11200616B626B20502110EB
:1022C8001BE0010E606F04D0D89020362136602BB9
:1022D80021AEFAD7D8906137623720501E5C215062
:1022E8001F5805E320501E5E21501F5A6181D89067
:1022F80021322032602FEED761C01EF062C01FF07D
:1023080012001EC020F01FC021F0D89021322032C8
:10231800D890213220322050BE6E030E1E14206E3B
:10232800216A203A213AF00E211620500F0B211273
:10233800F00E201620C01EF021C01FF0BD50CF0B9C
:102348001E10226E22C0BDFF12001EC020F01FC04A
:1023580021F0D89021322032D890213220322050DA
:10236800906E030E1E14206E216A203A213AF00E58
:10237800211620500F0B2112F00E201620C01EF03F
:1023880021C01FF09750CF0B1E10226E22C097FF5E
:1023980012002F502D5C30502E5806E22D502F5C25
:1023A800226E2E50305810D02D502F5C2E503058A1
:1023B8000DE22D502F5C206E2E503058216E900E5D
:1023C8002024226E010E2120236E02D0226A236A65
:1023D80022C01EF023C01FF012000001636B616B66
:1023E800626B606B14D0CDEC11F01E500001636F6E
:1023F80063510DE1010E50EC12F00001612B000E4B
:102408006223200E611903E14E0E621906E0635142
:10241800EAE0C7EC10F01E50606F60511200026EC7
:102428002F28036E000E3020046E900E035C010E00
:10243800045802E3036A046A2D50031804E12E507D
:102448000418D8B41200B40E2F24D96E020E30200E
:10245800DA6E02C0DFFF03C02FF004C030F01200B4
:10246800676B686916D066516725226E236A233622
:1024780033EC13F02250686F7F0E686501D0686BEB
:1024880067516225D96E000E6321DA6E68C0DFFFDE
:10249800672B6851E8E112001E6E06D0F00E00D0DE
:1024A800E82EFDD7640E1E5E640E1E60F7D705D0B9
:1024B800280EE82EFED70A0E1E5E0A0E1E60F8D7FA
:1024C80003D0040EE82EFED71E061E28FAE11200DD
:1024D800A6B2FED71EC0A9FF20C0A8FFA69EA69C34
:1024E800A684000EF2BE010E226EF29E550EA76E55
:1024F800AA0EA76EA682A6B2FED7225001E0F28EDF
:10250800A6941200D8EC0FF092EC09F0E1EC0FF071
:1025180092EC09F0E00E0001726F3D0E736F756B5F
:10252800390E746F92EC09F0CFEC0FF092EF09F0CE
:102538001F6E060E1F60060C1F508BEC0FF005D89F
:102548001F50020DF350BA0F00D0D96EDA6A1E5030
:10255800460DF3CFDEFFF4CFDDFF1200D8EC0FF00D
:1025680092EC09F0E1EC0FF092EC09F07A0E000120
:10257800726F3F0EEAEC0FF092EC09F0CFEC0FF01F
:1025880092EF09F0206E216A0DD0FA0E6FEC13F06D
:10259800FA0E6FEC13F0FA0E6FEC13F0FA0E6FEC04
:1025A80013F0212A2050215CF0E312001F6E270E41
:1025B8001F6409D03D0E1F1806E03F0E1F1803E0E8
:1025C800260E1F1802E11E6A02D0010E1E6E1E5052
:1025D80012007FEC03F0000E6AEC0EF0010E1CEC0A
:1025E80010F01EC065F01FC066F0F9EC13F065C06E
:1025F80063F066C064F012001E502002F3CF22F090
:10260800F4CF23F01E502102F35023261F5020023E
:10261800F350232622C01EF023C01FF01200928818
:10262800040E50EC12F09480040E50EC12F087EC7B
:1026380013F050EC12F000D09490829012003F6A90
:10264800140E376E640E6FEC13F0010E376E640EC5
:102658006FEC13F03F2A040E3F64F2D7040C22C03B
:102668001EF023C01FF042EC13F01EC060F01FC024
:1026780061F060C022F061C023F01200206A216A74
:102688001EC0A9FFA69EA69CA680A8CF20F0216AFE
:1026980020C01EF021C01FF012007FEC03F0000ED6
:1026A8006AEC0EF0000E1CEC10F01E50636FF9EC93
:1026B80013F000016351120037500001E81902E1DC
:1026C8008A9A05D0E85103E1375001E08A8AE8295F
:1026D8003F0BE86F12001F6E08D0100E1E6E940E8E
:1026E800E82EFED71E2EFCD700D01F061F28F5E1C6
:1026F800120094809288040E50EC12F004D850EC2A
:1027080012F020EF13F092988098040C1F6E2F0E91
:102718001F6406D03A0E1F6003D0010E1E6E01D052
:102728001E6A1E5012009490829087EC13F050ECB1
:1027380012F09480040E50EC12F092881200B20E3F
:10274800000100EC07F026EC0EF0B20E606F0EEC04
:1027580007F026EF0EF093968186938093928192EC
:10276800C66AC698C78CC79EC68A1200AC84190E62
:10277800AF6EAB6AAB8EAC8AAB889D8AF28CF28E58
:102788001200010E366E1F6A1E68216A010E206E45
:102798009EEC10F049EF14F0010E356E1F6A1E68AA
:1027A800216A010E206EEFEC10F04EEF14F060C0BD
:1027B8001EF061C01FF062C020F063C021F06CEF12
:1027C80012F01E6E200E1E6003D0010E1F6E01D087
:1027D8001F6A1F50120060C01EF061C01FF062C067
:1027E80020F063C021F09EEF10F09FEC0EF032C095
:1027F800DFFFA4EC0EF0000EDF6AC26A12001E6E44
:10280800C69AFC0EC6161E50030BC612C68A1200C4
:102818001E6E1EC0C9FFC7A0FED7C9CF1FF01F502C
:1028280012003650D8B4120060C01EF061C01FF00C
:1028380085EF11F03550D8B4120060C01EF061C0A9
:102848001FF0A9EF11F01F6E3650D8B412001F50B8
:102858005DEF14F01F6E3550D8B412001F5061EFB1
:1028680014F0226E225074EC10F0236E23501200E4
:10287800226E225048EC10F0236E23501200600E96
:102888007C6E7C5080097C6E1200949482940C0EAD
:10289800BD6E0C0C949282920C0E976E0C0C9EA836
:1028A800FED71EC0ADFF12002F6A306A2D6A2E6A4D
:1028B80012001E6E1EC0BEFF12001E6E1EC090FFCC
:1028C80012009288948012001EC07BFF1200366AA4
:1028D8006EEF14F09484BD6A1200356A74EF14F038
:1028E8009482976A12007C6A120097EF13F07DEFCA
:0F28F80013F013EF13F065EF14F001001200302E
:103CC40000202020203C696E707574207479706522
:103CD4003D2770617373776F72642720706C616322
:103CE40065686F6C6465723D27456E74657220501B
:103CF400617373776F726427206E616D653D273140
:103D0400272072657175697265643E3C6272202F6A
:103D14003E0D0A00202020203C696E7075742074CA
:103D24007970653D27746578742720706C616365CC
:103D3400686F6C6465723D27456E746572205353D9
:103D4400494427206E616D653D27302720726571D7
:103D540075697265643E3C6272202F3E0D0A002034
:103D64002020203C627574746F6E20747970653DF8
:103D7400277375626D69742720636C6173733D27C3
:103D8400726567697374657262746E273E52656703
:103D940069737465723C2F627574746F6E3E0D0A9C
:103DA40000526F776C616E6420546563686E6F6C4B
:103DB4006F677920496E7465726661636520426F2E
:103DC400617264202D204E6574776F726B20436F8F
:103DD4006E66696720506167650D0A005353494454
:103DE40020616E642050617373776F726420636F17
:103DF4006C6C65637465642E3C6272202F3E436F65
:103E04006E6E656374696E6720746F205353494402
:103E14002E0D0A00202020203C6C6162656C206617
:103E24006F723D2731273E3C623E50617373776F5A
:103E340072643C2F623E3C2F6C6162656C3E0D0ADD
:103E440000202020203C6C6162656C20666F723D0E
:103E54002730273E535349443C2F6C6162656C3EC6
:103E64000D0A00203C666F726D20616374696F6E89
:103E74003D2770616765322E68746D273E0D0A0018
:103E8400485454502F312E3020343034204E6F7427
:103E940020466F756E640D0A0D0A00485454502F65
:103EA400312E3020323030204F4B0D0A0D0A00499C
:103EB4006E74657266616365426F61726400415439
:103EC4002B4349505345525645523D0041542B43D0
:103ED4004950434C4F53453D0041542B43495053A3
:103EE400544152543D0041542B4349504D55583D83
:103EF400300041542B43574D4F44453D310041540C
:103F04002B4349504D55583D310041542B43574D97
:103F14004F44453D320041542B43495053454E4490
:103F24003D0041542B434950434C4F5345003C2FD3
:103F3400666F726D3E200D0A0041542B43574A416F
:103F4400503D220041542B43575341503D220053CE
:103F5400454E44204F4B0D0A0070616765322E6850
:103F6400746D00696E6465782E68746D00506167C5
:103F74006520330D0A005061676520340D0A003C4A
:103F840068746D6C3E0D0A002B43574C41503A281F
:103F94000041542B43574C41500041542B4357513B
:103FA40041500041542B434946535200706173738E
:103FB400776F7264003C2F68746D6C3E002254432A
:103FC40050222C0022554450222C0041542B474DA2
:103FD400520041542B525354002B4950442C004757
:103FE4004554202F00726561647900222C22003E22
:0C3FF4002000302C00312C004F4B00004E
:020000040030CA
:0E00000023E85F3CFFD181FF03C003E0034013
:00000001FF
