:04000000D4EF01F048
:100008005782FACF13F0FBCF14F0E9CF15F0EACFFF
:1000180016F0E1CF17F0E2CF18F0D9CF19F0DACF08
:100028001AF0F3CF1BF0F4CF1CF0F6CF1DF0F7CF8A
:100038001EF0F8CF1FF0F5CF20F057C021F058C0C0
:1000480022F059C023F05AC024F0F2B4F2AA03D027
:10005800C2EC1BF0F2949EB49DA485D0060E4560B8
:100068003ED045C00DF0010E0E6E0D2A02D0D8907C
:100078000E360D2EFCD70E500001D1150009D8B44C
:100088002ED04550D8A404D0939E8A508009816E02
:100098004504D8A404D0939C8A504009816E020E6E
:1000A8004518D8A404D093988A501009816E030E7D
:1000B8004518D8A404D093948A500409816E040E7C
:1000C8004518D8A404D0929C89504009806E050E2A
:1000D8004518D8A404D0929E89508009806E455056
:1000E800020D2C0EF324D96E000EF420DA6EDECF4A
:1000F8000DF0DDCF0EF00DC028F00EC029F02A6AF1
:100108002B6AE30E2824286E2E0E2920296E000E55
:100118002A202A6E000E2B202B6E4550020D380E19
:10012800F324D96E010EF420DA6EDECF0DF0DDCFA8
:100138000EF00DC00FF00EC010F0000E10BEFF0E36
:10014800116E126E28500F24286E29501020296E27
:100158002A5011202A6E2B5012202B6E29C091FF95
:1001680028C090FF9E94A1B0A0A0E8D0060E4560DC
:100178003ED045C00DF0010E0E6E0D2A02D0D8906B
:100188000E360D2EFCD70E500001D1150009D8B43B
:100198002ED04550D8A404D0939E8A507F0B816EF0
:1001A8004504D8A404D0939C8A50BF0B816E020EDC
:1001B8004518D8A404D093988A50EF0B816E030E8B
:1001C8004518D8A404D093948A50FB0B816E040E72
:1001D8004518D8A404D0929C8950BF0B806E050E98
:1001E8004518D8A404D0929E89507F0B806E45286C
:1001F800070B456E4550020D280EF324D96E010EEB
:10020800F420DA6E4550020D2C0EF324E16E000E38
:10021800F420E26EDE50E65CDE50E658D8B01FD01F
:100228004550020D2C0EF324D96E000EF420DA6E20
:10023800DECF0DF0DDCF0EF055500D24266E565052
:100248000E20276E4550020D280EF324D96E010E9C
:10025800F420DA6EDE50265CDE5027583CD045503C
:10026800020D2C0EF324D96E000EF420DA6E4550E0
:10027800020D280EF324E16E010EF420E26EDE502A
:10028800E65CDE50E658D8B04AD04550020D2C0E38
:10029800F324D96E000EF420DA6EDECF0DF0DDCF38
:1002A8000EF055C00FF056C010F00F1E101E0F4A6A
:1002B800102A0D500F24266E0E501020276E455020
:1002C800020D280EF324D96E010EF420DA6E2650A2
:1002D800DE5C2750DE58D8B00DD04550020D2C0EEC
:1002E800F324D96E000EF420DA6E26C0DEFF27C094
:1002F800DDFF23D04550020D280EF324D96E010EE0
:10030800F420DA6E4550020D2C0EF324E16E000E37
:10031800F420E26EDECFE6FFDDCFE5FF0ED045C06C
:100328000DF0010E0E6E0D2A02D0D8900E360D2E4D
:10033800FCD70E50FF0A4614466EA1909EBA9DAA9D
:1003480009D0000E0FEC14F00150256E255096ECE4
:1003580019F09E9A24C05AF023C059F022C058F0D0
:1003680021C057F020C0F5FF1FC0F8FF1EC0F7FFDF
:100378001DC0F6FF1CC0F4FF1BC0F3FF1AC0DAFF54
:1003880019C0D9FF18C0E2FF17C0E1FF16C0EAFF85
:1003980015C0E9FF14C0FBFF13C0FAFF5792110004
:1003A8002AEF16F0800E4A18D8A4D6D00001BF5103
:1003B800D8A407D09290C0B102D0899001D089808A
:1003C80094D20001BF05D8A407D09292C0B102D040
:1003D800899201D0898289D2020E0001BF19D8A45E
:1003E80007D09296C0B102D0899601D089867DD275
:1003F800030E0001BF19D8A407D09294C0B102D04F
:10040800899401D0898471D2040E0001BF19D8A43F
:1004180007D09298C0B102D0899801D0898865D256
:10042800050E0001BF19D8A407D09490C0B102D01E
:100438008B9001D08B8059D2060E0001BF19D8A429
:1004480007D09494C0B102D08B9401D08B844DD244
:10045800070E0001BF19D8A407D09492C0B102D0EA
:100468008B9201D08B8241D2080E0001BF19D8A40B
:1004780007D09396C0B102D08A9601D08A8635D229
:10048800090E0001BF19D8A407D09390C0B102D0BB
:100498008A9001D08A8029D20A0E0001BF19D8A4F7
:1004A80007D09392C0B102D08A9201D08A821DD21D
:1004B8000B0E0001BF19D8A407D0929AC0B102D080
:1004C800899A01D0898A11D20C0E0001BF19D8A4CB
:1004D80007D0939EC0B102D08A9E01D08A8E05D2E1
:1004E8000D0E0001BF19D8A407D0939CC0B102D04B
:1004F8008A9C01D08A8CF9D10E0E0001BF19D8A4AC
:1005080007D09398C0B102D08A9801D08A88EDD1DB
:100518000F0E0001BF19D8A407D09394C0B102D020
:100528008A9401D08A84E1D1100E0001BF19D8A4A1
:1005380007D0929CC0B102D0899C01D0898CD5D1BA
:10054800110E0001BF19D8A4D0D1929EC0B102D01B
:10055800899E01D0898EC9D1810E4A18D8A4B2D0FB
:100568000001BF51D8A405D09280000E80B0010EC2
:10057800AFD10001BF05D8A405D09282000E80B289
:10058800010EA6D1020E0001BF19D8A405D092868B
:10059800000E80B6010E9CD1030E0001BF19D8A42D
:1005A80005D09284000E80B4010E92D1040E000191
:1005B800BF19D8A405D09288000E80B8010E88D142
:1005C800050E0001BF19D8A405D09480000E82B092
:1005D800010E7ED1060E0001BF19D8A405D094845F
:1005E800000E82B4010E74D1070E0001BF19D8A401
:1005F80005D09482000E82B2010E6AD1080E000165
:10060800BF19D8A405D09386000E81B6010E60D11B
:10061800090E0001BF19D8A405D09380000E81B03F
:10062800010E56D10A0E0001BF19D8A405D0938235
:10063800000E81B2010E4CD10B0E0001BF19D8A4D7
:1006480005D0928A000E80BA010E42D10C0E00012C
:10065800BF19D8A405D0938E000E81BE010E38D1E3
:100668000D0E0001BF19D8A405D0938C000E81BCD3
:10067800010E2ED10E0E0001BF19D8A405D0938803
:10068800000E81B8010E24D10F0E0001BF19D8A4A5
:1006980005D09384000E81B4010E1AD1100E00010A
:1006A800BF19D8A405D0928C000E80BC010E10D1C1
:1006B800110E0001BF19D8A418D1928E000E80BE69
:1006C800010E06D1830E4A18D8A405D00001BF51E7
:1006D8003DEC1CF0FDD0850E4A18D8A405D00001C9
:1006E800BF5165EC1CF001D18A0E4A18D8A405D078
:1006F8000001BF51C8EC1CF0EBD08B0E4A18D8A4EF
:1007080047D00001BF51D2EC1CF0E2D00001BF512C
:10071800D8B403D001EC1CF0E8D010EC1CF0E5D004
:100728000001BF51D8B403D0F6EC1CF0DED005ECC4
:100738001DF0DBD0000E0001676F6669BFC068F06E
:10074800696B95EC1CF0D1D00001BF51D8B404D02E
:10075800C051AAEC1CF0C9D00001C051BEEC1CF07D
:10076800C4D00001BF51D8B409D0C1516C6FC05179
:10077800656F6CC066F0A0EC1CF0B7D00001C151E9
:100788006C6FC051656F6CC066F0B4EC1CF0ADD0F6
:100798004A50920AD8B4BAD7010AD8B4C1D7070ABE
:1007A800D8B4C8D7010AD8B4CFD7030AD8B4D9D790
:1007B800970E4A18D8A405D00001BF514CEC1BF085
:1007C80094D0980E4A18D8A405D00001BF5196ECD1
:1007D80011F08BD0990E4A18D8A407D0C0C060F089
:1007E8000001BF5184EC1AF080D09B0E4A18D8A49F
:1007F80032D0020E0001BF19D8A413D0030E616FC6
:10080800000E626F280E636F030EE3EC15F0000E06
:100818002DEC18F0000160510101006F1FEC1CF075
:1008280064D00001BF05D8A413D0030E616F000E79
:10083800626F280E636F010EE3EC15F0000E2DECCD
:1008480018F0000160510101006F1FEC1CF04DD041
:1008580061EC1BF03DD09C0E4A18D8A43CD0020E87
:100868000001BF19D8A413D0030E616F000E626F88
:10087800280E636F030EE3EC15F0010E2DEC18F053
:1008880060C06EF061C06FF01FEC1CF01DD000015D
:10089800BF05D8A413D0030E616F000E626F280E37
:1008A800636F010EE3EC15F0010E2DEC18F060C03B
:1008B8006EF061C06FF01FEC1CF006D034EC1BF03A
:1008C80067C06EF068C06FF06EC001F100016F5133
:1008D8000101006F0AD09F0E4A18D8A406D0BFC0E5
:1008E80060F00001616B29EC1DF04B50D8B404D0C6
:1008F800020E0001E56F1200000E0001E56F120004
:1009080000016851641903E169516519D8A441D1FE
:10091800000E716F000E706F1CD0705160256C6FE7
:10092800715161216D6F6CC0F6FF6DC0F7FFF86AF9
:10093800070EF76403D00800F55005D0F6CFE9FF9D
:10094800F7CFEAFFEF500009D8B409D00001704B87
:10095800712B6251705D63517159D8A0DED70001C7
:100968006A51705D6B517159D8B0C7D0000E736F62
:10097800000E726F1CD0725164256C6F7351652123
:100988006D6F6CC0F6FF6DC0F7FFF86A070EF7646D
:1009980003D00800F55005D0F6CFE9FFF7CFEAFFFE
:1009A800EF500009D8B409D00001724B732B66517F
:1009B800725D67517359D8A0DED770C06CF071C0F2
:1009C8006DF000016C1F6D1F6C4B6D2B6A516C270D
:1009D8006B516D2372516C5D73516D59D8B00ED047
:1009E80070C06CF071C06DF06C1F6D1F6C4B6D2B7F
:1009F8006A516C25726F6B516D21736F725170253E
:100A0800666F73517121676F72C070F073C071F0B7
:100A180023D07007D8A071076607D8A06707705160
:100A280064256C6F715165216D6F6CC0F6FF6DC0E8
:100A3800F7FFF86A66516825D96E67516921DA6E41
:100A4800070EF76403D00800F55005D0F6CFE9FF8C
:100A5800F7CFEAFFEF50DF6E000170517111D8A493
:100A6800D8D7000E716F000E706F21D00001705141
:100A780060256C6F715161216D6F6CC0F6FF6DC0A0
:100A8800F7FFF86A70516825D96E71516921DA6EDD
:100A9800070EF76403D00800F55005D0F6CFE9FF3C
:100AA800F7CFEAFFEF50DF6E0001704B712B6251F8
:100AB800705D63517159D8B01ED16A51705D6B5128
:100AC8007159D8B018D1705160256C6F715161217E
:100AD8006D6F6CC0F6FF6DC0F7FFF86A070EF7641C
:100AE80003D00800F55005D0F6CFE9FFF7CFEAFFAD
:100AF800EF500009D8A4BAD7FED0000E736F000ECD
:100B0800726F21D00001725160256C6F73516121A1
:100B18006D6F6CC0F6FF6DC0F7FFF86A72516825FB
:100B2800D96E73516921DA6E070EF76403D0080095
:100B3800F55005D0F6CFE9FFF7CFEAFFEF50DF6EAB
:100B48000001724B732B6251725D63517359D8B0B7
:100B5800D7D06A51725D6B517359D8B0D1D07251E8
:100B680060256C6F735161216D6F6CC0F6FF6DC0AD
:100B7800F7FFF86A070EF76403D00800F55005D0B0
:100B8800F6CFE9FFF7CFEAFFEF500009D8B4B8D0A5
:100B9800B9D7000E0001736F000E726F21D00001EB
:100BA800725160256C6F735161216D6F6CC0F6FFD7
:100BB8006DC0F7FFF86A72516825D96E73516921C3
:100BC800DA6E070EF76403D00800F55005D0F6CFAB
:100BD800E9FFF7CFEAFFEF50DF6E0001724B732B8E
:100BE8006251725D63517359D8B01FD06A51725DFA
:100BF8006B517359D8B019D0725160256C6F73510D
:100C080061216D6F6CC0F6FF6DC0F7FFF86A070EC3
:100C1800F76403D00800F55005D0F6CFE9FFF7CF09
:100C2800EAFFEF500009D8A4BAD700016A51725DF3
:100C38006B517359D8B064D0725168256E6F735177
:100C480069216F6F72C06CF073C06DF06C1F6D1FFF
:100C58006C4B6D2B6A516C25626F6B516D21636F04
:100C6800000E716F000E706F21D000017051642565
:100C78006C6F715165216D6F6CC0F6FF6DC0F7FF29
:100C8800F86A70516E25D96E71516F21DA6E070EB0
:100C9800F76403D00800F55005D0F6CFE9FFF7CF89
:100CA800EAFFEF50DF6E0001704B712B6651705DEB
:100CB80067517159D8B01FD06251705D6351715935
:100CC800D8B019D0705164256C6F715165216D6F62
:100CD8006CC0F6FF6DC0F7FFF86A070EF76403D023
:100CE8000800F55005D0F6CFE9FFF7CFEAFFEF503F
:100CF8000009D8A4BAD70001705172277151732323
:100D080000016A51725D6B517359D8B0120072516B
:100D18006825D96E73516921DA6E000EDF6E1200F4
:100D2800000E0001706F000E6F6F000E6D6F000EE9
:100D38006C6F31D16F516225686F70516321696F93
:100D480068C0F6FF69C0F7FF0800F550250AD8A467
:100D580002D1010E6F25686F000E7021696F62C0A5
:100D68006AF063C06BF068516A2769516B236AC0E7
:100D7800F6FF6BC0F7FF0800F550250AD8A411D07C
:100D88006751D8B406D0000E616F250E606F0AEC6B
:100D98001DF0010E00016C256C6F000E6D216D6F4A
:100DA800D1D0010E6F25686F000E7021696F62C087
:100DB8006AF063C06BF068516A2769516B236AC097
:100DC800F6FF6BC0F7FF0800F550D00F6E6F630E8B
:100DD8006E6F010E6F25686F000E7021696F62C01B
:100DE8006AF063C06BF068516A2769516B236AC067
:100DF800F6FF6BC0F7FF2F0E0800F56480D0010ED8
:100E08006F25686F000E7021696F62C06AF063C059
:100E18006BF068516A2769516B236AC0F6FF6BC093
:100E2800F7FF3A0E0800F5606AD0010E6F25686F6B
:100E3800000E7021696F62C06AF063C06BF0685180
:100E48006A2769516B236AC0F6FF6BC0F7FF080079
:100E5800F550D00F6E6F010E6F256F6F000E702169
:100E6800706F010E6F25686F000E7021696F62C088
:100E78006AF063C06BF068516A2769516B236AC0D6
:100E8800F6FF6BC0F7FF2F0E0800F56432D0010E95
:100E98006F25686F000E7021696F62C06AF063C0C9
:100EA8006BF068516A2769516B236AC0F6FF6BC003
:100EB800F7FF3A0E0800F5601CD06E510A0DF3CF0B
:100EC8006EF0010E6F25686F000E7021696F62C0A9
:100ED8006AF063C06BF068516A2769516B236AC076
:100EE800F6FF6BC0F7FF0800F5506E25D00F6E6F48
:100EF80006D0FF0E6F256F6FFF0E7021706F630EA7
:100F08006E6122D06E51010AD8B418D0030AD8B441
:100F180015D0010AD8B412D0070AD8B40FD0010AE4
:100F2800D8B40CD0030AD8B409D0010AD8B406D072
:100F38000F0AD8B403D0010AD8A4030A6E51000AD4
:100F4800D8A40B0A020E01D0010E6F256F6F000E98
:100F58007021706F20D06751D8B410D06F516225BE
:100F6800686F70516321696F68C0F6FF69C0F7FF49
:100F78000800F550606F616B0AEC1DF0010E00016E
:100F88006F256F6F000E7021706F010E6C256C6FEE
:100F9800000E6D216D6F6F516225686F705163216E
:100FA800696F68C0F6FF69C0F7FF0800F5500009CF
:100FB800D8A4C0D66651D8B417D06751D8B40DD0CC
:100FC800000E616F0D0E606F0AEC1DF0000E00013F
:100FD800616F0A0E606F0AEC1DF0020E00016C25AD
:100FE8006C6F000E6D216D6F6CC062F06DC063F0A8
:100FF8001200080E0001626F3F0E636F000E656FEE
:101008000C0E646F010E666F41EC15F0AB0E00011B
:10101800686F3E0E696F000E6B6F020E6A6F010EED
:101028006C6F9BEC13F0AB0E0001686F3E0E696F9E
:10103800000E6B6F020E6A6F000E6C6F9BEC13F064
:10104800AB0E0001686F3E0E696F000E6B6F020EEB
:101058006A6F000E6C6F9BEC13F0DCEC1CF0420E18
:101068000001606F3F0E616F000E636F0B0E626FC1
:10107800810E646F000E656F000E676F320E666F2B
:10108800E5EC14F0810E0001606F000E616F000E38
:10109800636F320E626F77C064F078C065F079C014
:1010A80066F07AC067F0810E686F000E696F000EF7
:1010B8006B6F320E6A6F84EC04F0810E0001606F72
:1010C800000E616F000E636F320E626FEE0E646F7A
:1010D8003F0E656F000E676F040E666F810E686FB6
:1010E800000E696F000E6B6F320E6A6F84EC04F0AD
:1010F800810E0001606F000E616F000E636F320E8B
:10110800626F7BC064F07CC065F07DC066F07EC015
:1011180067F0810E686F000E696F000E6B6F320EFC
:101128006A6F84EC04F0810E0001606F000E616F3D
:10113800000E636F320E626FBF0E646F3F0E656FF5
:10114800000E676F030E666F810E686F000E696F81
:10115800000E6B6F320E6A6F84EC04F07FC067F08C
:101168000001686BB40E696F000E6A6F000E6C6F39
:10117800050E6B6FA3EC12F0810E0001606F000E7C
:10118800616F000E636F320E626FB40E646F000EF3
:10119800656F000E676F050E666F810E686F000E33
:1011A800696F000E6B6F320E6A6F84EC04F0810E6B
:1011B8000001606F000E616F000E636F320E626F88
:1011C800C00E646F3F0E656F000E676F020E666F8C
:1011D800810E686F000E696F000E6B6F320E6A6FBA
:1011E80084EC04F080C067F00001686BB40E696F8E
:1011F800000E6A6F000E6C6F050E6B6FA3EC12F099
:10120800810E0001606F000E616F000E636F320E79
:10121800626FB40E646F000E656F000E676F050E87
:10122800666F810E686F000E696F000E6B6F320E6D
:101238006A6F84EC04F0810E0001626F000E636F28
:10124800000E656F320E646F010E666F41EC15F08B
:10125800FB0E0001686F3F0E696F000E6B6F030E87
:101268006A6F010E6C6F9BEC13F00001B36F1200F4
:101278001E0E0001DA6FB60E686F010E696F000E60
:101288006B6F210E6A6F000E6C6F60EC1AF0D70E50
:101298000001686F010E696F000E6B6F210E6A6F97
:1012A800240E6C6F60EC1AF098EC15F0000E00013B
:1012B800DF6FB60E606F010E616F000E636F210E57
:1012C800626F69EC19F0000160516111D8B441D026
:1012D800B60E776F010E786F000E7A6F210E796F58
:1012E800D70E7B6F010E7C6F000E7E6F210E7D6F17
:1012F800140E7F6F4FEC0BF00001DF6FDF51D8B495
:1013080008D0000E786F500E776F010E64EC0AF06B
:10131800D2D0AD0E0001776F3E0E786F000E7A6F57
:101328000F0E796FAA0E7B6F3F0E7C6F000E7E6FDB
:10133800090E7D6F010E7F6F030E806FFDEC07F0C5
:10134800000E0001786F500E776F010E64EC0AF002
:10135800B2D0AD0E0001776F3E0E786F000E7A6F37
:101368000F0E796FAA0E7B6F3F0E7C6F000E7E6F9B
:10137800090E7D6F010E7F6F030E806FFDEC07F085
:10138800000E0001786F500E776F010E64EC0AF0C2
:1013980092D013EC0DF00001E36F020EE319D8A40C
:1013A80085D0B60E6C6F010E6D6F000E6F6F210E3B
:1013B8006E6F000E706FE9EC16F0D70E00016C6FBF
:1013C800010E6D6F000E6F6F210E6E6F010E706F44
:1013D800E9EC16F0B60E0001606F010E616F000EA9
:1013E800636F210E626F69EC19F0000160516111A1
:1013F800D8B45CD0B60E696F010E6A6F000E6C6FC0
:10140800210E6B6F000E24EC17F0D70E0001696FE8
:10141800010E6A6F000E6C6F210E6B6F240E24ECA8
:1014280017F076EC1BF01E0E0001DA6FB60E776F20
:10143800010E786F000E7A6F210E796FD70E7B6FD1
:10144800010E7C6F000E7E6F210E7D6F140E7F6F74
:101458004FEC0BF00001DF6FDF51D8B408D0000E5D
:10146800786F500E776F010E64EC0AF01FD0AD0E46
:101478000001776F3E0E786F000E7A6F0F0E796F4E
:10148800AA0E7B6F3F0E7C6F000E7E6F090E7D6F7C
:10149800010E7F6F030E806FFDEC07F0000E000158
:1014A800786F500E776F010E64EC0AF00001DA5184
:1014B800FF0A1F0BDA6F0001DF51D8A4120069D7A9
:1014C8000001B26F0001F051D8A415D0B251D8A4D0
:1014D80012D0200E626F3F0E636F000E656F0C0E08
:1014E800646F010E666F41EC15F0010E03EC1BF002
:1014F800DCEC1CF0120077C067F078C068F0AB0E27
:101508000001696F000E6A6F000E6C6F060E6B6F3C
:10151800A3EC12F0BC0E0001606F3E0E616F000E6E
:10152800636F0E0E626F790E646F000E656F000EAA
:10153800676F320E666FE5EC14F0DCEC1CF000010E
:10154800B205D8A428D0790E606F000E616F000E26
:10155800636F320E626FF80E646F3F0E656F000E98
:10156800676F030E666F790E686F000E696F000E65
:101578006B6F320E6A6F84EC04F0FC0E0001626F30
:101588003E0E636F000E656F0C0E646F010E666F82
:1015980041EC15F028D0790E0001606F000E616FE4
:1015A800000E636F320E626FF50E646F3F0E656F4B
:1015B800000E676F030E666F790E686F000E696F15
:1015C800000E6B6F320E6A6F84EC04F0E40E0001BB
:1015D800626F3E0E636F000E656F0C0E646F010E36
:1015E800666F41EC15F0FB0E0001686F3F0E696FE6
:1015F800000E6B6F030E6A6F010E6C6F9BEC13F09D
:101608000001B16FFB0E686F3F0E696F000E6B6FC4
:10161800030E6A6F010E6C6F9BEC13F00001B16F43
:10162800790E606F000E616F000E636F320E626F8D
:10163800AB0E646F000E656F000E676F060E666F67
:10164800790E686F000E696F000E6B6F320E6A6F4D
:1016580084EC04F0DCEC1CF0790E0001626F000EE3
:10166800636F000E656F320E646F010E666F41EC9A
:1016780015F0FB0E0001686F3F0E696F000E6B6F6F
:10168800030E6A6F010E6C6F9BEC13F00001B16FD3
:10169800DCEC1CF01200F00E0001626F3E0E636F6E
:1016A800000E656F0C0E646F010E666F41EC15F04D
:1016B800AB0E0001686F3E0E696F000E6B6F020E75
:1016C8006A6F010E6C6F9BEC13F0AB0E0001686F34
:1016D8003E0E696F000E6B6F020E6A6F000E6C6F24
:1016E8009BEC13F0AB0E0001686F3E0E696F000EA5
:1016F8006B6F020E6A6F000E6C6F9BEC13F0DCECE4
:101708001CF0370E0001606F3F0E616F000E636FB3
:101718000B0E626F800E646F000E656F000E676FB0
:10172800320E666FE5EC14F0800E0001606F000E5B
:10173800616F000E636F320E626F77C064F078C01D
:1017480065F079C066F07AC067F0800E686F000EA9
:10175800696F000E6B6F320E6A6F84EC04F0800EB6
:101768000001606F000E616F000E636F320E626FD2
:10177800EE0E646F3F0E656F000E676F040E666FA6
:10178800800E686F000E696F000E6B6F320E6A6F05
:1017980084EC04F0800E0001606F000E616F000E93
:1017A800636F320E626F7BC064F07CC065F07DC0F1
:1017B80066F07EC067F0800E686F000E696F000EDD
:1017C8006B6F320E6A6F84EC04F0800E0001606F5C
:1017D800000E616F000E636F320E626FF00E646F61
:1017E8003F0E656F000E676F020E666F800E686FA2
:1017F800000E696F000E6B6F320E6A6F84EC04F096
:10180800000E0001B26F800E626F000E636F000E53
:10181800656F320E646F010E666F41EC15F017D0DC
:10182800010E03EC1BF0FB0E0001686F3F0E696FA1
:10183800000E6B6F030E6A6F000E6C6F9BEC13F05B
:101848000001B26FB251D8A406D07F057F6F0001A6
:101858007F51D8A4E5D7B2511200000E00016D6F78
:101868003F0E716FD7D03F0E7119D8B404D0260E31
:101878007119D8A4C2D0000E6F6F3CEC19F010D0CB
:10188800000171512EEC1CF00009D8B407D00001FA
:101898006F510A0DF3507125D00F6F6F3CEC19F0A2
:1018A8000001716F71511CEC1BF00009D8A4E8D736
:1018B8003D0E00017119D8A4A4D0000E706F2CD071
:1018C800AC0E606F3E0E616F000E636F010E626FAB
:1018D800930E646F010E656F000E676F230E666FBF
:1018E800E5EC14F016D06E6F28D0000EFCD7AC0EC5
:1018F800606F3E0E616F000E636F010E626F700EB7
:10190800646F010E656F000E676F230E666FE5EC5E
:1019180014F0220E0001E7D76F51010AD8B4D0D7CE
:10192800030AD8B4E2D7010AD8B4DFD7070AD8B473
:10193800DCD7010AD8B4D9D7DAD73CEC19F026D0CD
:101948007051010D930EF324D96E010E06D070511B
:10195800010D700EF324D96E010EF420DA6E71C0F9
:10196800DFFF10D06F51010AD8B4EAD7030AD8B400
:1019780009D0010AD8B406D0070AD8B403D0010A9E
:10198800D8A4E5D77029706F3CEC19F00001716F8D
:101998006E51705DD8B003D06C6B6C2B02D0000117
:1019A8006C6B71511CEC1BF000016C150009D8B46C
:1019B80013D0D8D77051010D930EF324D96E010EB0
:1019C80006D07051010D700EF324D96E010EF4206B
:1019D800DA6E000EDF6E15D06F51010AD8B4EAD75F
:1019E800030AD8B40ED0010AD8B40BD0070AD8B469
:1019F80008D0010AD8B405D0E4D73CEC19F00001AE
:101A0800716F71517EEC1CF00009D8B403D0010E3F
:101A180000016D6F00016D51D8A4120024D7000E8B
:101A28000201C96F000ECA6FEBEC19F0D70E000166
:101A3800686F3F0E696F000E6B6F060E6A6F000EBF
:101A48006C6F9BEC13F00201CB6FCB05D8A4C2D00E
:101A58003CEC19F00001EF6F2F0EEF6503D0350E47
:101A6800EF6502D0300EEF6FDD0E686F3F0E696FC5
:101A7800000E6B6F060E6A6F000E6C6F9BEC13F016
:101A88000201CB6FCB05D8A4A5D0000EC96F000EFC
:101A9800CA6F3CEC19F00ED0CA51010DB40EF324F4
:101AA800D96E020EF420DA6ECBC2DFFFCA29CA6FE4
:101AB8003CEC19F00201CB6F200ECB19D8B404D03E
:101AC8003F0ECB19D8A4E8D7CA51010DB40EF324A0
:101AD800D96E020EF420DA6E000EDF6ECA51D8A459
:101AE80002D0010E35D0610E0001606F3F0E616FAC
:101AF800000E636F0A0E626FB40E646F020E656F9C
:101B0800000E676F140E666F010E686F20EC12F0FE
:101B18000009D8A403D0010E0201C96F570E0001B5
:101B2800606F3F0E616F000E636F0A0E626FB40E36
:101B3800646F020E656F000E676F140E666F010EFC
:101B4800686F20EC12F00009D8A403D0020E02013D
:101B5800C96F3F0E0201CB19D8B431EC0CF0010E5D
:101B6800B0EC1BF094EC17F0000160510201CB6F50
:101B7800DCEC1CF00201CB51D8B419D0F0D721EC21
:101B880013F024D0B5EC18F021D088EC18F01ED052
:101B98005BEC18F01BD07E0E0001776F3E0E786F5D
:101BA800000E7A6F1B0E796FCAEC0EF00FD002018F
:101BB800C951010AD8B4E3D7030AD8B4E3D7010A54
:101BC800D8B4E3D7070AD8B4E3D7E5D7ABEC16F017
:101BD8000201C86FC9C2C8F2C8511200140E000130
:101BE800606F3F0E616F000E636F0C0E626F7E0EAA
:101BF800646F000E656F000E676F320E666FE5EC5E
:101C080014F00001F051D8B439D0EFC0B0F0000E94
:101C1800B16F7E0E606F000E616F000E636F320E43
:101C2800626FB00E646F000E656F000E676F060E70
:101C3800666F7E0E686F000E696F000E6B6F320E56
:101C48006A6F84EC04F07E0E0001606F000E616F15
:101C5800000E636F320E626FC00E646F3F0E656FC9
:101C6800000E676F020E666F7E0E686F000E696F5A
:101C7800000E6B6F320E6A6F84EC04F07BC067F065
:101C88007CC068F0B00E0001696F000E6A6F000E2C
:101C98006C6F060E6B6FA3EC12F07E0E0001606F86
:101CA800000E616F000E636F320E626FB00E646FCC
:101CB800000E656F000E676F060E666F7E0E686F0A
:101CC800000E696F000E6B6F320E6A6F84EC04F0C1
:101CD8007E0E0001626F000E636F000E656F320E9C
:101CE800646F010E666F41EC15F0B90E0001686F64
:101CF8003F0E696F000E6B6F020E6A6F010E6C6FFC
:101D08009BEC13F00001B66FB651D8B420D0000E8A
:101D1800B86F000EB76F14D0B7517725D96EB85188
:101D28007821DA6EDF507D6F7D51606F616B0AEC50
:101D38001DF0010E0001B725B76F000EB821B86F6E
:101D48007B51B75D7C51B859D8B012D0E5D7200E79
:101D5800626F3F0E636F000E656F0C0E646F010EAD
:101D6800666F41EC15F0010E03EC1BF0DCEC1CF087
:101D7800FB0E0001686F3F0E696F000E6B6F030E5C
:101D88006A6F010E6C6F9BEC13F0120077C062F063
:101D980078C063F079C064F07AC065F0000E000185
:101DA800666F000E676F94EC06F062C0B6F063C011
:101DB800B7F00001B651B711D8B4B8D0B6C067F0C3
:101DC800B7C068F0AD0E696F000E6A6F000E6C6FD9
:101DD800060E6B6FA3EC12F0EFC0B4F0000E00011A
:101DE800B56F140E606F3F0E616F000E636F0C0EBF
:101DF800626F7B0E646F000E656F000E676F320EA8
:101E0800666FE5EC14F07B0E0001606F000E616FE9
:101E1800000E636F320E626FB40E646F000E656F52
:101E2800000E676F020E666F7B0E686F000E696F9B
:101E3800000E6B6F320E6A6F84EC04F07B0E0001AB
:101E4800606F000E616F000E636F320E626FC00E1E
:101E5800646F3F0E656F000E676F020E666F7B0E34
:101E6800686F000E696F000E6B6F320E6A6F84EC3C
:101E780004F07B0E0001606F000E616F000E636F4F
:101E8800320E626FAD0E646F000E656F000E676FE5
:101E9800060E666F7B0E686F000E696F000E6B6F23
:101EA800320E6A6F84EC04F0DCEC1CF07B0E00014F
:101EB800626F000E636F000E656F320E646F010E65
:101EC800666F41EC15F0F20E0001686F3F0E696F06
:101ED800000E6B6F030E6A6F010E6C6F9BEC13F0B4
:101EE8000001B36FDCEC1CF077C062F078C063F0DF
:101EF80079C064F07AC065F0000E0001666F010ECB
:101F0800676F94EC06F04D0E0001686F3F0E696F25
:101F1800000E6B6F0A0E6A6F010E6C6F9BEC13F06C
:101F28000001B36F640EA7EC1AF01200010E000155
:101F3800B36F1200000E0F015B6F000E5C6F000E96
:101F48005D6F700ED36E000E0001E56F939A8A9A4A
:101F5800D59AD588D550F00B0209D56EF28EF28A43
:101F680076EC1BF03CEC09F076EC1BF06BEC16F011
:101F7800010E0001D46FEA0E776F000E786F000E25
:101F88007A6F050E796F000E7C6F050E7B6F53EC30
:101F980010F077C0BCF078C0BDF00001BC51BD1195
:101FA800D8B476D01F0EDA6F000E57D0DD51010D70
:101FB800EA0EF324D96E000EF420DA6EDF50BE6FFD
:101FC800BEC0BBF035D0D951010DBF0EF324D96E78
:101FD800000EF420DA6EBEC0DFFFD929D96F492878
:101FE800D8A404D0BE51D8B4D9C049F0D9514918A1
:101FF800D8A427D0D6EC01F024D00001DC51010D83
:10200800000EF324D96E010EF420DA6EDF50BB6F98
:10201800DC29DC6FDC514B18D8A413D0000EE56F17
:1020280010D0BEAF0ED0BEC04AF002EC11F009D0FD
:102038000001E551010AD8B4C6D7030AD8B4DDD7E0
:10204800F0D70001DD51010DEA0EF324D96E000E20
:10205800F420DA6EBBC0DFFFDD29DD6FDD51B96F1B
:10206800BA6BBC51B95DBD51BA59D8A09FD7EA0E19
:10207800776F000E786F000E7A6F050E796FBCC00F
:102088007BF0BDC07CF0F2EC0DF0050E000104D031
:10209800010EDA6570D7DA05DA6F6DD7FFD7000E53
:1020A8000001826F000E816F000E846F000E836F37
:1020B800000E826F000E816FC851C911D8B405D0C7
:1020C800C8C081F0C9C082F089D0E90E676F3F0EA1
:1020D800686F000E6A6F050E696F030E6B6F000E56
:1020E8006C6F000E6D6F7CEC14F00001806F8051F6
:1020F800D8B474D0D70E686F3F0E696F000E6B6F3F
:10210800060E6A6F000E6C6F9BEC13F00001806F77
:102118008005D8A463D0F051D8B40ED03CEC19F0A7
:102128000001EF6F2F0EEF6503D0350EEF6502D07B
:10213800300EEF6F3CEC19F03CEC19F01ED081C06A
:1021480060F082C061F0000E0001636F0A0E626FDA
:102158008AEC1BF060C081F061C082F000017F5101
:1021680081257D6F000E82217E6FD00E7D25816FC7
:10217800FF0E7E21826F3CEC19F000017F6F7F51CA
:102188002EEC1CF00009D8B429D0D9D73CEC19F0B2
:1021980000017D6F83517725D96E84517821DA6EDD
:1021A8007DC0DFFF010E8325836F000E8421846FBD
:1021B8007B51831913E17C518419D8A40FD07BC0BB
:1021C8007DF07CC07EF07D1F7E1F7D4B7E2B815174
:1021D8007D25C86F82517E21C96F0BD000018151C6
:1021E800835D82518459D8A0D1D7000EC96F000EE3
:1021F800C86F83C077F084C078F01200000E496E73
:10220800000E0001D96F000E4B6E000EDC6F4A50B5
:10221800800AD8B447D0010AD8B451D005D0E3EC2D
:102228001BF06ED0496E6CD04A50820AD8B4F7D7EA
:10223800010AD8B444D0060AD8B450D00CD023EC44
:102248001DF05ED01DEC1DF05BD020EC1DF058D0C9
:102258001AEC1DF055D04A50860AD8B4F0D7010AB6
:10226800D8B4F0D70F0AD8B4F0D7010AD8B4F0D749
:10227800030AD8B424D0010AD8B421D002D0030E5E
:10228800D1D74A50920AD8B429D0010AD8B426D056
:10229800070AD8B423D0010AD8B404D0030AD8B4A2
:1022A800EED702D0020EBED74A50970AD8B416D03D
:1022B8000F0AD8B413D0010AD8B4F4D711D0010E3C
:1022C800496E010E03D0010E496E020E4B6E18D0F6
:1022D800E6EC1CF015D017EC1DF012D0010EA2D7B9
:1022E8004A509B0AD8B4EBD7070AD8B4ECD7010AEE
:1022F800D8B4EED7030AD8B4EED7010AD8B4EED7CB
:102308004950D8B404D0010E0001E56F12004B50BB
:10231800D8B404D0020E0001E56F1200000E0001CF
:10232800E56F120000016B6F5DD0810E0001606FD8
:102338000F0E616F930E626F0F0E636F400E646F26
:10234800060E656FC9EC1AF04AD0810E606F0F0E49
:10235800616F930E626F0F0E636F100E646F040E41
:10236800656FC9EC1AF03BD0810E606F0F0E616F7C
:10237800930E626F0F0E636F040E646F020E656F2B
:10238800C9EC1AF02CD0800E606F0F0E616F920EA0
:10239800626F0F0E636F400E646F060E656FC9ECB7
:1023A8001AF01DD0800E606F0F0E616F920E626F73
:1023B8000F0E636F800E646F070E656FC9EC1AF01D
:1023C8000ED0810E606F0F0E616F930E626F0F0E4D
:1023D800636F800E646F070E656FC9EC1AF0000119
:1023E8006A6F17D000016B51010AD8B49ED7030A4F
:1023F800D8B4ABD7010AD8B4B7D7070AD8B4C3D76B
:10240800010AD8B4CFD7030AD8B403D0010AD8A494
:10241800D8D7060E6B6112006BC068F0010E696FA9
:10242800682B02D0D8906937682FFCD70001695112
:10243800FF0AD115D16F1200000E00016C6F000E5B
:102448006B6F45D06B516025696F6C5161216A6F64
:1024580069C0F6FF6AC0F7FF0800F5CF6EF06B5150
:102468006425D96E6C516521DA6EDF506D6F685145
:10247800D8B412D0600E6E6506D07B0E6E6103D0A4
:102488006E51DF0B6E6F600E6D6506D07B0E6D6151
:1024980003D06D51DF0B6D6F6D51D8A407D06E510D
:1024A800D8A402D0000E1200010E12006E51D8A45A
:1024B80002D0FF0E12006D516E5DD8A0FAD76E5192
:1024C8006D5DD8B002D0010E12006B4B6C2B6251BF
:1024D8006B5D63516C59D8B006D066516B5D67511E
:1024E8006C59D8A0AFD76251665D63516759D8B0AF
:1024F80013D06B516025696F6C5161216A6F69C097
:10250800F6FF6AC0F7FF0800F5500009D8A402D00A
:10251800000E1200010E12006651625D6751635988
:10252800D8B00BD06B516425D96E6C516521DA6E29
:10253800DF50D8B4EDD7FF0E1200000E120067C0AE
:102548006FF068C070F0270E0001746F100E736F83
:10255800000E726F6B516C11D8B41200000E716FBF
:102568006F517011D8A447D0010E716F000E746FAF
:10257800010E736F40D073516F5D74517059D8B0AC
:1025880003D07151D8B429D06FC060F070C061F029
:1025980073C062F074C063F0C1EC19F000016051BF
:1025A800716F7251010DF3506925D96EF4506A218B
:1025B800DA6E7151300FDF6E722B71C060F0616B93
:1025C80073C062F074C063F08AEC1BF000016051C4
:1025D8006F5F6151705B010E716F73C060F074C002
:1025E80061F0000E636F0A0E626FC1EC19F060C0F3
:1025F80073F061C074F0000172516D6F6E6B6B51B6
:102608006D5D6C516E59D8B004D073517411D8A453
:10261800B2D772516D6F6E6B6B516D5D6C516E59A7
:10262800D8B012007251010DF3506925D96EF450DB
:102638006A21DA6E000EDF6E1200990E0001776FC4
:102648003E0E786F000E7A6F130E796FCAEC0EF09B
:102658007D0E0001776F3F0E786F000E7A6F0A0EBD
:10266800796FCAEC0EF09F0E0001776F3D0E786F00
:10267800000E7A6F3C0E796FCAEC0EF0610E000105
:10268800776F3E0E786F000E7A6F1E0E796FCAEC68
:102698000EF03F0E0001776F3E0E786F000E7A6FD6
:1026A800230E796FCAEC0EF0120E0001776F3D0E03
:1026B800786F000E7A6F4C0E796FCAEC0EF0120E1E
:1026C8000001776F3E0E786F000E7A6F2E0E796FCD
:1026D800CAEC0EF0BF0E0001776F3C0E786F000E4B
:1026E8007A6F540E796FCAEC0EF05D0E0001776FA9
:1026F8003D0E786F000E7A6F430E796FCAEC0EF0BC
:102708002C0E0001776F3F0E786F000E7A6F0C0E5B
:10271800796FCAEC0EF0B30E0001776F3F0E786F39
:10272800000E7A6F080E796FCAEC0EF01200000ED8
:102738000001766F000E6F6F000E726F68C060F058
:1027480069C061F06AC062F06BC063F069EC19F0AF
:1027580000016051706F6C51D8A404D00A0E756FD7
:10276800BE0E03D0000E756F000E746F4CD094EC43
:1027780017F000016051716F7151D8B43AD0FDEC77
:1027880017F000016051736F7651010D68C06DF04C
:1027980069C06EF0F3506D27F4506E236DC0F6FFDC
:1027A8006EC0F7FF0800F5507319D8A414D06C5107
:1027B800D8A404D00A0E756FBE0E03D0000E756F34
:1027C800000E746F7629766F70517619D8A41BD0D5
:1027D800010E726F1ED068C0F6FF69C0F7FF0800CF
:1027E800F5507319D8A402D0010E01D0000E766FEF
:1027F8000AD0010EB0EC1BF0010E00017425746FB5
:10280800000E7521756FB80E745D0B0E7559D8A042
:10281800AED7725112000B6E020E0A6E000E096ED0
:10282800000E076E000E0C6E000E046E000E086E91
:10283800000E036E0B28D8A42DD0010E046E2AD0EA
:102848000450D8A41ED00B50D8A403D0010E086E93
:1028580018D0000E066E000E056E065007E10C0E2D
:10286800055CD8B003D0054A062AF7D70728076EB3
:10287800640E0718D8A405D00B040B6E0400000ED4
:10288800076E000E9EBA010E0C6E0C50D8B402D022
:10289800020E086E0850D8B4D3D7020E0818D8A470
:1028A80022D0000EABB4010E0C6E0C50D8B404D07C
:1028B800AECF03F0040E0AD0000EABB2010E0C6EC0
:1028C8000C50D8B407D0AB98AB88080E0A6E000E2F
:1028D800096E09D0000E0A6E000E096E0950AE107E
:1028E800096E0A500A6E09C001F00AC002F012000F
:1028F800000E0001716F6D05D8A402D0000ED36FD1
:10290800D3C072F0736B94EC17F0000160514FD094
:102918007451D8B44ED06C05D8A406D0FDEC17F08D
:1029280000016051706F20D07251CA25756F7351C4
:10293800CB21766F900E755D010E7659D8A006D022
:10294800700E7525756FFE0E7621766FCC0E752587
:10295800D96E020E7621DA6EDF50706F010E722585
:10296800726F000E7321736FD351010D67C06EF043
:1029780068C06FF0F3506E27F4506F236EC0F6FFF7
:102988006FC0F7FF0800F5507019D8A40DD0D329EF
:10299800D36F6B51D319D8A409D0000ED36F000E92
:1029A8006B6F010E716F02D0000ED36F7405746FD8
:1029B80002D0000E6B6F6B51D35DD8A0A9D77151AF
:1029C8001200000E00016B6F000E6A6F21D000012B
:1029D8006A516025686F6B516121696F68C0F6FFA5
:1029E80069C0F7FFF86A6A516425D96E6B51652191
:1029F800DA6E070EF76403D00800F55005D0F6CF5D
:102A0800E9FFF7CFEAFFEF50DF6E00016A4B6B2B4F
:102A180062516A5D63516B59D8B01FD066516A5DC7
:102A280067516B59D8B019D06A516025686F6B51DE
:102A38006121696F68C0F6FF69C0F7FFF86A070E81
:102A4800F76403D00800F55005D0F6CFE9FFF7CFBB
:102A5800EAFFEF500009D8A4BAD7000166516A5DB1
:102A680067516B59D8B012006A516425D96E6B5101
:102A78006521DA6E000EDF6E1200000E000124D010
:102A880000016A51010D62C067F063C068F0F3503D
:102A98006727F450682367C0F6FF68C0F7FFF86A35
:102AA800070EF76403D00800F55005D0F6CFE9FF0C
:102AB800F7CFEAFFEF500001696F6951606F616BF2
:102AC8000AEC1DF000016A296A6F6A51010D62C0A3
:102AD80067F063C068F0F3506727F450682367C055
:102AE800F6FF68C0F7FFF86A070EF76403D008001E
:102AF800F55005D0F6CFE9FFF7CFEAFFEF50000910
:102B0800D8A4BED700016651D8B41200000E616F78
:102B18000D0E606F0AEC1DF0000E0001616F0A0EC9
:102B2800606F0AEC1DF012002EEC1DF0EBEC19F0B2
:102B38000001776972EC1CF0D00E0001626F3F0E45
:102B4800636F000E656F070E646F010E666F41ECD0
:102B580015F0010E03EC1BF0E30E0001686F3F0E49
:102B6800696F000E6B6F060E6A6F010E6C6F9BEC3F
:102B780013F00001776FDCEC1CF0010E03EC1BF086
:102B8800E40E0001626F3E0E636F000E656F0C0E5F
:102B9800646F010E666F41EC15F0FB0E0001686F63
:102BA8003F0E696F000E6B6F030E6A6F010E6C6F3C
:102BB8009BEC13F00001776FDCEC1CF012000001B5
:102BC800656F00016151070BC06E0BD0010E436E9B
:102BD800920E3E6E0F0E3F6E5B0E3C6E0F0E3D6EFC
:102BE80004D06551000AD8B4F1D76251D8B40AD0DC
:102BF80062C064F0030E6417D8906437D8906435C7
:102C0800C110C16E3EC0D9FF3FC0DAFFDF50446E2D
:102C1800445043103EC0D9FF3FC0DAFFDF6E3CC0CE
:102C2800D9FF3DC0DAFFDF5043103CC0D9FF3DC09B
:102C3800DAFFDF6E6545E846FC0B0109C26E635199
:102C4800A7EC1AF0C2500209C26E12005A0EF66EB4
:102C58003A0EF76E000EF86E0900F5CFEFF0090096
:102C6800F5CFF0F0580EF66E3A0EF76E000EF86ECD
:102C78000900F5CF55F00900F5CF56F002EECCF07B
:102C880011EE90F0EE6AE550E150FCE1E250FAE115
:102C980002EE00F0B40EEE6AE806FDE101EE00F087
:102CA800F80EEE6AE806FDE100EEBFF0300EEE6ABF
:102CB800E806FDE100EE2CF0290EEE6AE806FDE1DB
:102CC80057905792000EF86E00019EEF0FF0000E1D
:102CD800566E460E556E000E25D04550020D2C0E30
:102CE800F324D96E000EF420DA6E000EDE6E230E89
:102CF800DD6E4550020D280EF324D96E010EF42026
:102D0800DA6E000EDE6E230EDD6E4550020D380EB3
:102D1800F324D96E010EF420DA6E000EDE6E000E7A
:102D2800DD6E4528456E070E4564D7D7000E456E03
:102D3800750EBF6E300EBE6E010ECD6E0B0EBD6EE3
:102D48009D840A0E976EA080F28CF28E1200DCEC45
:102D58001CF0EFC08CF0000E00018D6FCA0E606F82
:102D68003E0E616F000E636F0D0E626F8C0E646F06
:102D7800000E656F000E676F020E666F770E686F44
:102D8800000E696F000E6B6F140E6A6F84EC04F00E
:102D9800770E0001626F000E636F000E656F140EF0
:102DA800646F010E666F41EC15F0FB0E0001686F51
:102DB8003F0E696F000E6B6F030E6A6F010E6C6F2A
:102DC8009BEC13F000018B51120028D0930E0001E8
:102DD800606F010E616F000E636F230E626F6CC02F
:102DE80064F06DC065F06EC066F06FC067F0E5EC2A
:102DF80014F01200700E0001606F010E616F000E7A
:102E0800636F230E626F6CC064F06DC065F06EC0B6
:102E180066F06FC067F0E5EC14F012000001705125
:102E2800010AD8B4D3D7030AD8B41200010AD8B417
:102E38001200070AD8B41200010AD8B41200DAD76F
:102E480000016F6F000E0001706F69C060F06AC00A
:102E580061F06BC062F06CC063F069EC19F00001BE
:102E680060516E6F17D06F517025656F666B66374E
:102E78007051010DF3506925D96EF4506A21DA6E4C
:102E8800DF506D6F6D51676F686B8AEC1CF0000145
:102E98007029706F6E51705DD8A0E5D76F5170259D
:102EA800656F666B6637000E686F000E676F8AEC99
:102EB8001CF012000001616F000E0001626F928821
:102EC800040EA7EC1AF0800E000113D09480040EB3
:102ED800A7EC1AF0928880A804D00001625163110F
:102EE800626F94908290040EA7EC1AF00001D890BB
:102EF8006331636F6351D8A4E9D76151D8B402D064
:102F0800928802D092988098040EA7EC1AF09480C8
:102F1800040EA7EC1AF094908290000162511200FE
:102F280040500001CA5D4150CB59D8B00DD0CAC03D
:102F380062F0CBC063F0621F631F624B632B40508B
:102F48006225646F415016D0CA51405CCB5141583C
:102F5800D8B013D0CAC062F0CBC063F0621F631F41
:102F6800624B632B4050622741506323900E6225C9
:102F7800646F010E6321656F04D0000E656F000E4B
:102F8800646F64C060F065C061F012000001616F99
:102F9800000E0001626F800E15D0615163150009A3
:102FA800D8B402D0928802D092988098040EA7ECE8
:102FB8001AF09480040EA7EC1AF094908290000105
:102FC800D8906331636F6351D8A4E7D79288040E11
:102FD800A7EC1AF09480040EA7EC1AF0928880A847
:102FE80003D0010E0001626F94908290000162513B
:102FF800120040500001CA1904E14150CB19D8B45D
:1030080020D0CC0ECA25D96E020ECB21DA6EDF5045
:10301800626F6251636F646B010ECA25656F000EA3
:10302800CB21666F900E655D010E6659D8A004D05D
:10303800000E666F000E656F65C0CAF066C0CBF003
:1030480003D0000E646F636963C060F064C061F010
:1030580012000001646FC2B2FED700016451D8B4F7
:103068001BD0C450626F636BD89062376337D890B7
:103078006237633762C065F063C066F0C3CF62F041
:10308800060E636FD8906233632FFCD765516211C7
:10309800656F6651666F03D0C4CF65F0666BC2502A
:1030A8000209C26E65C060F066C061F01200990E38
:1030B8000001776F3E0E786F000E7A6F130E796FEE
:1030C800CAEC0EF07D0E0001776F3F0E786F000E90
:1030D8007A6F0A0E796FCAEC0EF0740E0001776FE2
:1030E8003F0E786F000E7A6F0A0E796FCAEC0EF0F9
:1030F800B30E0001776F3F0E786F000E7A6F080EDF
:10310800796FCAEC0EF01200990E0001776F3E0E2F
:10311800786F000E7A6F130E796FCAEC0EF07D0E81
:103128000001776F3F0E786F000E7A6F0A0E796F85
:10313800CAEC0EF06B0E0001776F3F0E786F000E31
:103148007A6F0A0E796FCAEC0EF0B30E0001776F32
:103158003F0E786F000E7A6F080E796FCAEC0EF08A
:103168001200990E0001776F3E0E786F000E7A6F8D
:10317800130E796FCAEC0EF07D0E0001776F3F0ECB
:10318800786F000E7A6F0A0E796FCAEC0EF0DA0EBD
:103198000001776F3D0E786F000E7A6F390E796FE8
:1031A800CAEC0EF0B30E0001776F3F0E786F000E79
:1031B8007A6F080E796FCAEC0EF012000F015951A0
:1031C800FC0B596F60C0BBFF0FD0040EBA6E120023
:1031D800050EBA6E1200060EBA6E1200070EBA6E0F
:1031E8001200050EBA6E120062C064F063C065F08A
:1031F80000016551000AD8A4F4D76451010AD8B473
:10320800E4D7050AD8B4E4D7140AD8B4E4D7500AE6
:10321800D8B4E4D7E6D70F015951F30B596F60C002
:10322800BBFF0FD0040EBA6E1200050EBA6E120064
:10323800060EBA6E1200070EBA6E1200050EBA6EAE
:10324800120062C064F063C065F000016551000AB5
:10325800D8A4F4D76451010AD8B4E4D7050AD8B47D
:10326800E4D7140AD8B4E4D7500AD8B4E4D7E6D7D8
:10327800000E00016A6F000E696F000E686F000E85
:10328800676F19D094EC17F0000160516A6F6A51AA
:10329800D8A411D0010EA7EC1AF0010E0001682580
:1032A800686F000E6921696F200E681904E14E0EDF
:1032B8006919D8B408D06A51D8B4E4D7FDEC17F02E
:1032C80000016051676F67511200000E0001676FBF
:1032D800000E666F1CD066516025646F67516121CE
:1032E800656F64C0F6FF65C0F7FFF86A070EF764FC
:1032F80003D00800F55005D0F6CFE9FFF7CFEAFF75
:10330800EF500009D8B409D00001664B672B625111
:10331800665D63516759D8A0DED766C060F067C0A4
:1033280061F01200026E010E4024036E000E41206F
:10333800046E900E035C010E0458D8A004D0000E51
:10334800046E000E036E0001CA51031804E1CB514C
:103358000418D8B40FD0CC0E4024D96E020E4120E8
:10336800DA6E02C0DFFF03C040F004C041F0010E76
:10337800016E1200000E016E1200000E0001666F51
:10338800000E656F62516311D8B41CD0010E646FD2
:1033980004D0D89062376337642B63AFFAD7D890DC
:1033A800653766376251605D63516159D8A005D0B1
:1033B8006251605F6351615B6581D89063336233AA
:1033C800642FEDD765C060F066C061F01200AC0EE6
:1033D8000001606F3E0E616F000E636F010E626F39
:1033E800700E646F010E656F000E676F230E666FB7
:1033F800E5EC14F0AC0E0001606F3E0E616F000E3C
:10340800636F010E626F930E646F010E656F000E9D
:10341800676F230E666FE5EC14F0120060C062F06F
:1034280061C063F00001D89063336233D89063338E
:1034380062336251BE6E030E6015626F000E611535
:10344800636F623B633BF00E631762510F0B6313AC
:10345800F00E621762C060F063C061F0BD50CF0B20
:103468006011646F64C0BDFF120060C062F061C08B
:1034780063F00001D89063336233D89063336233CA
:103488006251906E030E6015626F000E6115636FD6
:10349800623B633BF00E631762510F0B6313F00E30
:1034A800621762C060F063C061F09750CF0B601183
:1034B800646F64C097FF1200000E00016D6F6E69A3
:1034C8001BD06C516D25646F656B6537F2EC1BF092
:1034D800000164516E6F7F0E6E6502D0000E6E6F34
:1034E8006D51010DF3506825D96EF4506921DA6EDB
:1034F8006EC0DFFF6D296D6F6E51D8B41200E1D731
:103508000001616F060E0001616112006151020D38
:103518002C0EF324D96E000EF420DA6E6051460D9D
:10352800F3CFDEFFF4CFDDFF6151020D280EF32447
:10353800D96E010EF420DA6E6051460DF3CFDEFF2E
:10354800F4CFDDFF12000001606F07D0F00E00D04D
:10355800E82EFDD7640E0001605F640E0001606113
:10356800F5D706D0280EE82EFED70A0E0001605FB8
:103578000A0E6061F7D703D0040EE82EFED70001CB
:1035880060076029D8B41200F7D762C0D9FF63C0BA
:10359800DAFFDF500001641162C0D9FF63C0DAFFAF
:1035A800DF6E65C066F060C0D9FF61C0DAFFDF502A
:1035B8006415676F662B02D0D8906733662FFCD7E7
:1035C800000167511200A6B2FED760C0A9FF62C011
:1035D800A8FFA69EA69CA684000EF2BE010E0001BE
:1035E800646FF29E550EA76EAA0EA76EA682A6B2AB
:1035F800FED700016451D8A4F28EA69412000001EF
:10360800626F000E0001636F0ED0FA0EB0EC1BF073
:10361800FA0EB0EC1BF0FA0EB0EC1BF0FA0EB0ECA0
:103628001BF00001632B6251635DD8B01200EDD727
:103638000001616F270E000161650CD03D0E611914
:10364800D8B408D03F0E6119D8B404D0260E611939
:10365800D8A402D0000E01D0010E606F6051120094
:10366800030E0001616F000E626F280E636F000E7B
:10367800E3EC15F0010E2DEC18F060C069F061C0A4
:103688006AF01FEC1CF069C067F06AC068F01200AD
:103698000001626F060E00016261120062C060F0F4
:1036A800010E616F602B02D0D8906137602FFCD774
:1036B80000016151D111D16F1200030E0001616F39
:1036C800000E626F280E636F000EE3EC15F0000E1B
:1036D8002DEC18F000016051676F1FEC1CF0000121
:1036E80067511200000E536E040E536401D012008D
:1036F800140E0001DA6F640EB0EC1BF0010E00012D
:10370800DA6F640EB0EC1BF0532AEED7000160515B
:103718006203F3CF64F0F4CF65F060516303F350B4
:10372800652761516203F350652764C060F065C086
:1037380061F01200000E0001636F000E626F60C03E
:10374800A9FFA69EA69CA680A8CF62F0636B62C064
:1037580060F063C061F012000001616F09D0100EC3
:103768000001606F940EE82EFED7602FFCD700F0A2
:10377800000161076129D8B41200F1D70001DA51BC
:10378800D419D8A402D08A9A06D0D451D8A403D088
:10379800DA51D8A48A8AD4293F0BD46F12009288B0
:1037A800040EA7EC1AF09480040EA7EC1AF0929875
:1037B8008098040EA7EC1AF0949082901200010EE3
:1037C8000001606F93968186938093928192000E98
:1037D800C66EC698C78CC79EC68A120064C060F0C1
:1037E80065C061F09EEC1BF060C066F061C067F0D8
:1037F80066C064F067C065F01200010E486E000EE6
:103808000001616F6069000E636F010E626FE2EC88
:1038180018F0F1EC1CF01200010E476E000E0001CA
:10382800616F6069000E636F010E626F0FEC19F033
:1038380000EC1DF012003EC0D9FF3FC0DAFF44C0C3
:10384800DFFF3CC0D9FF3DC0DAFF000EDF6E000E7F
:10385800C26E12000001616F2F0E0001616505D074
:103868003A0E616102D0010E01D0000E606F605106
:1038780012000001606F000E0001616F60C0C9FF97
:10388800C7A0FED7C9CF61F0000161511200949022
:10389800829092988098040EA7EC1AF09480040EF7
:1038A800A7EC1AF09288120094809288040EA7EC74
:1038B8001AF092988098040EA7EC1AF094908290CF
:1038C80012000001606FC69AC650FC0BC66E00015C
:1038D8006051030BC610C66EC68A1200AC84190E5E
:1038E800AF6E000EAB6EAB8EAC8AAB889D8AF28C45
:1038F800F28E12000001606F200E0001606102D09C
:10390800010E01D0000E616F6151120065C060F0B8
:1039180066C061F067C062F068C063F0E7EC1AF057
:10392800120066C060F067C061F068C062F069C0EC
:1039380063F0E2EC18F012004850D8B4120065C0E9
:1039480060F066C061F012EC1AF012000001616FBD
:103958004850D8B4120000016151ECEC1CF0120080
:103968004750D8B4120065C060F066C061F039EC09
:103978001AF012000001616F4750D8B4120000011C
:103988006151FBEC1CF012000001646F00016451EE
:10399800CAEC17F00001656F655112000001646FF1
:1039A800000164515EEC17F00001656F655112006B
:1039B800000E416E000E406E000E0001CB6F000E2F
:1039C800CA6F1200600E7C6E7C5080097C6E1200FB
:1039D8000001606F60C0BEFF1200949482940C0EC8
:1039E800BD6E1200000E486E0FEC1DF012000001B3
:1039F800606F60C090FF1200949282920C0E976ED6
:103A08001200000E476E13EC1DF012009EA8FED7A0
:103A180060C0ADFF12009484000EBD6E1200948247
:103A2800000E976E1200000E7C6E12004BEC1CF01C
:103A3800120058EC1CF01200D3EC1BF0120026EC1C
:103A48001DF0120092889480120060C07BFF120063
:063A580001003001120024
:103CBE0000202020203C696E707574207479706528
:103CCE003D2770617373776F72642720706C616328
:103CDE0065686F6C6465723D27456E746572205021
:103CEE00617373776F726427206E616D653D273146
:103CFE00272072657175697265643E3C6272202F71
:103D0E003E0D0A00202020203C696E7075742074D0
:103D1E007970653D27746578742720706C616365D2
:103D2E00686F6C6465723D27456E746572205353DF
:103D3E00494427206E616D653D27302720726571DD
:103D4E0075697265643E3C6272202F3E0D0A00203A
:103D5E002020203C627574746F6E20747970653DFE
:103D6E00277375626D69742720636C6173733D27C9
:103D7E00726567697374657262746E273E52656709
:103D8E0069737465723C2F627574746F6E3E0D0AA2
:103D9E0000526F776C616E6420546563686E6F6C51
:103DAE006F677920496E7465726661636520426F34
:103DBE00617264202D204E6574776F726B20436F95
:103DCE006E66696720506167650D0A00535349445A
:103DDE0020616E642050617373776F726420636F1D
:103DEE006C6C65637465642E3C6272202F3E436F6B
:103DFE006E6E656374696E6720746F205353494409
:103E0E002E0D0A00202020203C6C6162656C20661D
:103E1E006F723D2731273E3C623E50617373776F60
:103E2E0072643C2F623E3C2F6C6162656C3E0D0AE3
:103E3E0000202020203C6C6162656C20666F723D14
:103E4E002730273E535349443C2F6C6162656C3ECC
:103E5E000D0A00203C666F726D20616374696F6E8F
:103E6E003D2770616765322E68746D273E0D0A001E
:103E7E00485454502F312E3020343034204E6F742D
:103E8E0020466F756E640D0A0D0A00485454502F6B
:103E9E00312E3020323030204F4B0D0A0D0A0049A2
:103EAE006E74657266616365426F6172640041543F
:103EBE002B4349505345525645523D0041542B43D6
:103ECE004950434C4F53453D0041542B43495053A9
:103EDE00544152543D0041542B4349504D55583D89
:103EEE00300041542B43574D4F44453D3100415412
:103EFE002B4349504D55583D310041542B43574D9E
:103F0E004F44453D320041542B43495053454E4496
:103F1E003D0041542B434950434C4F5345003C2FD9
:103F2E00666F726D3E200D0A0041542B43574A4175
:103F3E00503D220041542B43575341503D220053D4
:103F4E00454E44204F4B0D0A0070616765322E6856
:103F5E00746D00696E6465782E68746D00506167CB
:103F6E006520330D0A005061676520340D0A003C50
:103F7E0068746D6C3E0D0A002B43574C41503A2825
:103F8E000041542B43574C41500041542B43575141
:103F9E0041500041542B4349465352007061737394
:103FAE00776F7264003C2F68746D6C3E0022544330
:103FBE0050222C0022554450222C0041542B474DA8
:103FCE00520041542B525354002B4950442C00475D
:103FDE004554202F007265616479002B49504400CE
:103FEE00222C22003E2000302C00312C004F4B00A2
:013FFE0000C2
:020000040030CA
:0E00000023E85F3CFFD181FF03C003E0034013
:00000001FF
