:04000000CAEF01F052
:100008005F82FACF23F0FBCF24F0E9CF25F0EACFC7
:1000180026F0E1CF27F0E2CF28F0D9CF29F0DACFC8
:100028002AF0F3CF2BF0F4CF2CF0F6CF2DF0F7CF4A
:100038002EF0F8CF2FF0F5CF30F05FC031F060C070
:1000480032F061C033F062C034F09EBA9DAA03D08A
:1000580042EC1BF09E9A46EC0BF09EB49DA485D012
:10006800060E50603ED050C01DF0010E1E6E1D2AB7
:1000780002D0D8901E361D2EFCD71E500001CA157E
:100088000009D8B42ED05050D8A404D0939E8A50DA
:100098008009816E5004D8A404D0939C8A504009EA
:1000A800816E020E5018D8A404D093988A50100973
:1000B800816E030E5018D8A404D093948A50040972
:1000C800816E040E5018D8A404D0929C895040091F
:1000D800806E050E5018D8A404D0929E89508009CD
:1000E800806E5050020D700EF324D96E000EF4206D
:1000F800DA6EDECF1DF0DDCF1EF01DC037F01EC05A
:1001080038F0396A3A6AE30E3724376E2E0E3820F3
:10011800386E000E3920396E000E3A203A6E505073
:10012800020D5A0EF324D96E010EF420DA6EDECFDA
:100138001DF0DDCF1EF01DC01FF01EC020F0000E08
:1001480020BEFF0E216E226E37501F24376E3850A6
:100158002020386E39502120396E3A5022203A6ECC
:1001680038C091FF37C090FF9E94A1B0A0A0E8D0FE
:10017800060E50603ED050C01DF0010E1E6E1D2AA6
:1001880002D0D8901E361D2EFCD71E500001CA156D
:100198000009D8B42ED05050D8A404D0939E8A50C9
:1001A8007F0B816E5004D8A404D0939C8A50BF0B57
:1001B800816E020E5018D8A404D093988A50EF0B81
:1001C800816E030E5018D8A404D093948A50FB0B68
:1001D800816E040E5018D8A404D0929C8950BF0B8D
:1001E800806E050E5018D8A404D0929E89507F0BBB
:1001F800806E5028070B506E5050020D600EF3248D
:10020800D96E000EF420DA6E5050020D700EF324F1
:10021800E16E000EF420E26EDE50E65CDE50E65839
:10022800D8B01FD05050020D700EF324D96E000EB6
:10023800F420DA6EDECF1DF0DDCF1EF05D501D24F8
:10024800356E5E501E20366E5050020D600EF3243F
:10025800D96E000EF420DA6EDE50355CDE5036586A
:100268003CD05050020D700EF324D96E000EF420CD
:10027800DA6E5050020D600EF324E16E000EF42089
:10028800E26EDE50E65CDE50E658D8B04AD05050F8
:10029800020D700EF324D96E000EF420DA6EDECF54
:1002A8001DF0DDCF1EF05DC01FF05EC020F01F1EE8
:1002B800201E1F4A202A1D501F24356E1E50202044
:1002C800366E5050020D600EF324D96E000EF420E5
:1002D800DA6E3550DE5C3650DE58D8B00DD050504E
:1002E800020D700EF324D96E000EF420DA6E35C0BC
:1002F800DEFF36C0DDFF23D05050020D600EF32420
:10030800D96E000EF420DA6E5050020D700EF324F0
:10031800E16E000EF420E26EDECFE6FFDDCFE5FFF2
:100328000ED050C01DF0010E1E6E1D2A02D0D890AE
:100338001E361D2EFCD71E50FF0A5114516EA19077
:1003480034C062F033C061F032C060F031C05FF099
:1003580030C0F5FF2FC0F8FF2EC0F7FF2DC0F6FF05
:100368002CC0F4FF2BC0F3FF2AC0DAFF29C0D9FF45
:1003780028C0E2FF27C0E1FF26C0EAFF25C0E9FF49
:1003880024C0FBFF23C0FAFF5F92110004EF16F0B0
:1008000000A4084C0872080908090243000201000C
:10081000C032090400000102020100052400100199
:100820000424020205240600010524010001070535
:10083000810308000209040100020A000000070504
:100840000202400000070582024000002603520019
:100850006F0077006C0061006E006400200054009F
:100860006500630068006E006F006C006F00670039
:100870007900200349006E00740065007200660074
:10088000610063006500200042006F00610072009B
:1008900064001201000202000008BF1210FF0001F4
:0908A00001020001040309040037
:1008AA00800E0001D619D8A4D6D001010051D8A4CF
:1008BA0007D0929001B102D0899001D08980CCD220
:1008CA0001010005D8A407D0929201B102D0899201
:1008DA0001D08982C1D2020E01010019D8A407D021
:1008EA00929601B102D0899601D08986B5D2030EBB
:1008FA0001010019D8A407D0929401B102D08994B9
:10090A0001D08984A9D2040E01010019D8A407D004
:10091A00929801B102D0899801D089889DD2050E9A
:10092A0001010019D8A407D0949001B102D08B908C
:10093A0001D08B8091D2060E01010019D8A407D0EC
:10094A00949401B102D08B9401D08B8485D2070E86
:10095A0001010019D8A407D0949201B102D08B9258
:10096A0001D08B8279D2080E01010019D8A407D0D0
:10097A00939601B102D08A9601D08A866DD2090E69
:10098A0001010019D8A407D0939001B102D08A902E
:10099A0001D08A8061D20A0E01010019D8A407D0B9
:1009AA00939201B102D08A9201D08A8255D20B0E5B
:1009BA0001010019D8A407D0929A01B102D0899AEC
:1009CA0001D0898A49D20C0E01010019D8A407D096
:1009DA00939E01B102D08A9E01D08A8E3DD20D0E1D
:1009EA0001010019D8A407D0939C01B102D08A9CB6
:1009FA0001D08A8C31D20E0E01010019D8A407D079
:100A0A00939801B102D08A9801D08A8825D20F0E14
:100A1A0001010019D8A407D0939401B102D08A9495
:100A2A0001D08A8419D2100E01010019D8A407D066
:100A3A00929C01B102D0899C01D0898C0DD2110EF1
:100A4A0001010019D8A408D2929E01B102D0899E50
:100A5A0001D0898E01D2810E0001D619D8A4A1D065
:100A6A0001010051D8A405D09280000E80B0010E79
:100A7A00A2D00005D8A405D09282000E80B2010E41
:100A8A009AD0020E0019D8A405D09286000E80B61C
:100A9A00010E91D0030E0019D8A405D09284000E3D
:100AAA0080B4010E88D0040E0019D8A405D092880B
:100ABA00000E80B8010E7FD0050E0019D8A405D00B
:100ACA009480000E82B0010E76D0060E0019D8A4CA
:100ADA0005D09484000E82B4010E6DD0070E001961
:100AEA00D8A405D09482000E82B2010E64D0080EFA
:100AFA000019D8A405D09386000E81B6010E5BD0EA
:100B0A00090E0019D8A405D09380000E81B0010EF9
:100B1A0052D00A0E0019D8A405D09382000E81B2D1
:100B2A00010E49D00B0E0019D8A405D0928A000EE6
:100B3A0080BA010E40D00C0E0019D8A405D0938EAD
:100B4A00000E81BE010E37D00D0E0019D8A405D0B3
:100B5A00938C000E81BC010E2ED00E0E0019D8A463
:100B6A0005D09388000E81B8010E25D00F0E00190A
:100B7A00D8A405D09384000E81B4010E1CD0100EA7
:100B8A000019D8A405D0928C000E80BC010E13D097
:100B9A00110E0019D8A460D1928E000E80BE010EEB
:100BAA000AD0830E0001D619D8A407D0010100513A
:100BBA0001EC1BF045D1326F4FD1850E0001D619D9
:100BCA00D8A405D00101005129EC1BF045D18A0EA9
:100BDA000001D619D8A405D001010051A4EC1BF0DC
:100BEA002FD18B0E0001D619D8A405D001010051CE
:100BFA00AEEC1BF025D18E0E0001D619D8A406D072
:100C0A0000C1E5F0E66BB8EC1BF026D18F0E0001AF
:100C1A00D619D8A405D062EC15F00001E35110D121
:100C2A00900E0001D619D8A405D012EC18F00001D4
:100C3A00E35106D1910E0001D619D8A457D001016B
:100C4A000051BFEC1BF0000E0001E96F2A0EE86F9D
:100C5A0000C1EAF0EB6B7BEC1BF0FED00101005106
:100C6A00D8B403D0D4EC1AF0F7D0E3EC1AF0F4D0ED
:100C7A0001010051D8B403D0CCEC1BF0EDD0D2EC7A
:100C8A001BF0EAD0000E0001EA6FE96900C1EBF03F
:100C9A00EC6B65EC1BF0E0D001010051D8B404D034
:100CAA00015190EC1BF0D8D0010101519AEC1BF0D4
:100CBA00D3D001010051D8B40CD002510001EF6F1A
:100CCA00010101510001E86FEFC0E9F05AEC1BF095
:100CDA00C3D0010102510001EF6F0101015100016E
:100CEA00E86FEFC0E9F070EC1BF0B6D00001D65106
:100CFA00920AD8B4B3D7010AD8B4BAD7070AD8B473
:100D0A00C1D7010AD8B4C8D7030AD8B4D2D7970E24
:100D1A000001D619D8A405D00101005152EC14F0F3
:100D2A009BD0980E0001D619D8A405D00101005114
:100D3A0074EC0CF091D0990E0001D619D8A407D002
:100D4A0001C1E3F001010051E1EC18F085D09B0EDE
:100D5A000001D619D8A434D0020E01010019D8A472
:100D6A0014D0030E0001E46F000EE56F280EE66F43
:100D7A00030E99EC14F0000E00EC17F00001E35199
:100D8A000101326FF2EC1AF067D001010005D8A414
:100D9A0014D0030E0001E46F000EE56F280EE66F13
:100DAA00010E99EC14F0000E00EC17F00001E3516B
:100DBA000101326FF2EC1AF04FD06CEC1AF040D00D
:100DCA009C0E0001D619D8A43DD0020E01010019CB
:100DDA00D8A414D0030E0001E46F000EE56F280EAC
:100DEA00E66F030E99EC14F0010E00EC17F0E3C065
:100DFA00F1F0E4C0F2F0F2EC1AF01ED001010005A5
:100E0A00D8A414D0030E0001E46F000EE56F280E7B
:100E1A00E66F010E99EC14F0010E00EC17F0E3C036
:100E2A00F1F0E4C0F2F0F2EC1AF006D0F7EC19F0A7
:100E3A00EAC0F1F0EBC0F2F0F1C033F10001F25177
:100E4A000101B9D69B0E0001D619D8A405D000C15C
:100E5A00E3F0E46B13EC1CF00001D951D8B403D0D1
:100E6A00020EDB6F1200000EDB6F12000401320566
:100E7A00D8A410D030511F0B0009D8A40BD0000100
:100E8A008B8F030E04013119D8A402D0010E01D0B0
:100E9A00000E4C6E3251D8A4120030511F0B020AB8
:100EAA00D8A4120034510F0B0009D8B412003451DF
:100EBA000F0B156E030E15601200200E4F18D8A4E2
:100ECA00120000018B8F040134BF19D034510F0B6B
:100EDA00156E1550020D940EF324D96E000EF420EF
:100EEA00DA6EDECF19F0DDCF1AF034510F0B156E22
:100EFA001550010DA00EF324D96E000E18D03451EE
:100F0A000F0B156E1550020D8E0EF324D96E000EBE
:100F1A00F420DA6EDECF19F0DDCF1AF034510F0B60
:100F2A00156E1550010DA30EF324D96E000EF42090
:100F3A00DA6EDF50186E18B002D0199401D01984F5
:100F4A0034BF0AD034510F0B156E1550020D940E92
:100F5A00F324D96E000E09D034510F0B156E1550BB
:100F6A00020D8E0EF324D96E000EF420DA6E19C02B
:100F7A00DEFF1AC0DDFF030E3119D8A42DD019C027
:100F8A00D9FF1AC0DAFFDFAE1AD034BF0AD0345103
:100F9A000F0B156E1550010DA00EF324D96E000E1D
:100FAA000AD0040134510F0B156E1550010DA30E12
:100FBA00F324D96E000EF420DA6E0001DF8219C024
:100FCA00D9FF1AC0DAFF000EDB8419C0D9FF1AC094
:100FDA00DAFF000EDB8E1200040E191A19C0D9FFAF
:100FEA001AC0DAFFDFAE1BD019C0D9FF1AC0DAFF68
:100FFA007F0EDF1619C0D9FF1AC0DAFF000EDB8C8C
:10100A00000E0E6E050E0D6E19C00FF01AC010F00C
:10101A00000E126E020E116E5CEC17F006D019C0AB
:10102A00D9FF1AC0DAFF000EDB8C040E191A18B2A7
:10103A0006D019C0D9FF1AC0DAFFDFAE30D00401DA
:10104A0034BF0AD034510F0B156E1550010DA00E86
:10105A00F324D96E000E0AD0040134510F0B156E19
:10106A001550010DA30EF324D96E000EF420DA6E8A
:10107A000001DF9219C0D9FF1AC0DAFF3B0EDF1652
:10108A00000E0E6E050E0D6E19C00FF01AC010F08C
:10109A00000E126E020E116E5CEC17F006D019C02B
:1010AA00D9FF1AC0DAFF3B0EDF16040134510F0BC9
:1010BA00156E1550010D6A0EF324166E0F0EF420EC
:1010CA00176E16C0D9FF17C0DAFFFE0EDF16120020
:1010DA00000E0001D46F000ED16F000ED96F000E02
:1010EA00D36F02D0020E46D0D651800AD8B4FAD7AE
:1010FA00010AD8B471D009D036EC1BF0CDD0D46F28
:10110A00010ED96FC9D0010E35D0D651820AD8B492
:10111A00F3D7010AD8B410D0060AD8B4F4D70FD03E
:10112A000DEC1CF0B9D007EC1CF0B6D00AEC1CF0A0
:10113A00B3D004EC1CF0B0D0010E0001E0D70001DE
:10114A00D651860AD8B4ECD7010AD8B4ECD70F0A1C
:10115A00D8B4ECD7010AD8B4ECD7030AD8B4ECD780
:10116A00010AD8B439D008D001EC1CF0F28EF28C06
:10117A009D8A92D0D46F90D00001D6518D0AD8B4EE
:10118A00F3D7030AD8B434D0010AD8B4B9D71F0A9E
:10119A00D8B4B6D7010AD8A403D0B5D7030EEAD774
:1011AA000001D651920AD8B4AED7010AD8B4ABD747
:1011BA00070AD8B4A8D7010AD8B494D7030AD8B46E
:1011CA00EDD7D651970AD8B49ED70F0AD8B49BD771
:1011DA00010AD8B487D70FD0010E91D7010ED46F68
:1011EA00020E8FD7C6EC1BF057D0FEEC1BF054D082
:1011FA00010E0001BFD7D6519B0AD8B4EDD7070A12
:10120A00D8B4ECD7010AD8B4EDD7030AD8B4EDD7CD
:10121A00010AD8B4EDD72FD0D46972D7010ED96F8D
:10122A00D0C032F139D0D40EE36F010EE46F000E54
:10123A00E66F140EE56FA5EC19F00001E351D96FC2
:10124A00000E13D0E951010DD40EF324D96E010E0C
:10125A00F420DA6EE951010D320EF324E16E010E2B
:10126A00F420E26EDFCFE7FFE929E96FD951E95DA2
:10127A00D8B012D0E7D70001D651A00AD8B4CCD73B
:10128A00010AD8B4C9D7030AD8B4C8D7010AD8B44E
:10129A00CAD7070AD8B426D70001D451D8B403D084
:1012AA00010EDB6F1200D951D8B403D0020EDB6FE6
:1012BA001200000EDB6F1200000E0F015B6F000EB2
:1012CA005C6F000E5D6F700ED36E000E0001DB6F57
:1012DA00010EFC6F939A8A9A17EC1CF00001CE510A
:1012EA00D8A404D02EEC17F00001CF6FB4EC1AF09A
:1012FA0022EC15F00001CF51D8A419D0000EFA6FD4
:10130A00000EF96F11D0000E0FEC0EF0EEC0F9F0DE
:10131A00EFC0FAF00001FA05D8B006D0F9513FEC57
:10132A0018F0000E0001FC6FFA05D8A0ECD7CEEC3D
:10133A0015F00001E351E411D8B45AD08A8AD0ECEE
:10134A0016F00001E351FB6FFBC0F8F035D0D15124
:10135A00010D000EF324D96E010EF420DA6EFBC0E3
:10136A00DFFFD129D16FD429D8A404D0FB51D8B436
:10137A00D1C0D4F0D151D419D8A427D055EC04F057
:10138A0024D00001D351010D320EF324D96E010E7F
:10139A00F420DA6EDF50F86FD329D36FD351D919FD
:1013AA00D8A413D0000EDB6F10D0FBAF0ED0FBC059
:1013BA00D6F06DEC08F009D00001DB51010AD8B46F
:1013CA00C6D7030AD8B4DDD7F0D70001FC51D8B488
:1013DA000AD0020EFC19D8B413D0F8C0E5F0E66BB7
:1013EA00B8EC1BF00DD00001F8519FEC16F008D0B4
:1013FA000001DA29DA6FDA51D8A402D08A8A7AD7B8
:10140A008A9A78D7FFD7A394000E676E000E656E8E
:10141A00000E6A6E6B0E0001E36F0F0EE46F000E92
:10142A00E66F000EE56F000EE86F020EE76F0FEC35
:10143A001AF0160E626E9F0E666E7B0E646E000EBA
:10144A000001EB6F0B0EEB6501D00ED0EB51040DD2
:10145A00000EF324D96E040EF420DA6EDE6ADE6A18
:10146A00DE6ADD6AEB2BEED7608C000E636E609845
:10147A00609C6596000E8B6F000E836F000E856F61
:10148A00000E846F65B6F5D7010E476E010E466EE3
:10149A00000E456E000E446E000EC86F000EEB6F14
:1014AA00020EEB6501D02ED0EB51020D8E0EF32405
:1014BA00D96E000EF420DA6E000EDE6E000EDD6EBE
:1014CA00EB51020D940EF324D96E000EF420DA6E5D
:1014DA00000EDE6E000EDD6EEB51010DA30EF3243D
:1014EA00D96E000EF420DA6E000EDF6EEB51010D9C
:1014FA00A00EF324D96E000EF420DA6E000EDF6E11
:10150A00EB2BCED7080E8E6F040E8F6F160E6A6EF7
:10151A00040E0401036F300E026F080E016F040EF1
:10152A00006F008F000E5C6E000E3B6E000E3C6E6C
:10153A00000E3D6E000E3E6E000E0001C76F000EDB
:10154A004F6E1200A394000E676E000E656E000EB9
:10155A006A6E6B0E016E0F0E026E000E046E000EA6
:10156A00036E000E066E020E056E56EC1AF0160E8B
:10157A00626E9F0E666E7B0E646E000E096E0B0E17
:10158A00096401D00ED00950040D000EF324D96E5F
:10159A00040EF420DA6EDE6ADE6ADE6ADD6A092A81
:1015AA00EED7608C000E636E6098609C6596000EA4
:1015BA0000018B6F000E836F000E856F000E846F23
:1015CA0065B6F4D7010E476E010E466E000E456EE3
:1015DA00000E446E000EC86F000E096E020E0964FA
:1015EA0001D02ED00950020D8E0EF324D96E000EB2
:1015FA00F420DA6E000EDE6E000EDD6E0950020D6A
:10160A00940EF324D96E000EF420DA6E000EDE6E0C
:10161A00000EDD6E0950010DA30EF324D96E000EE3
:10162A00F420DA6E000EDF6E0950010DA00EF324CD
:10163A00D96E000EF420DA6E000EDF6E092ACED7BC
:10164A00080E00018E6F040E8F6F160E6A6E040E5E
:10165A000401036F300E026F080E016F040E006F53
:10166A00008F000E5C6E000E3B6E000E3C6E000E8C
:10167A003D6E000E3E6E000E0001C76F000E4F6EEB
:10168A0012004F04D8B460BA06D0000E656E6480AA
:10169A006488020E4F6E65B464A403D06594DCECD2
:1016AA0019F060A202D0A494120065B064A006D01A
:1016BA00A7EC0AF0A384040E4F6E659065B864A87F
:1016CA0002D03FEC1AF065AC1AD064AC0ED0000E12
:1016DA000E6E730E0D6E000E0F6E000E106E000E63
:1016EA00126E010E116E5CEC17F0659CC4EC1AF0D8
:1016FA004950D8A449064950D8B44DEC10F065BAFF
:10170A0064AA02D048EC19F065B264A20FD07F0E29
:10171A000E6E0D68000E0F6E000E106E000E126E29
:10172A00010E116E5CEC17F0000E676E040E4F602E
:10173A0002D0A494120064A639D0000E1C6E030EC7
:10174A001C6401D033D065A631D061CF5BF05B3029
:10175A00E832E8320F0B4B6E65965BB407D04B50FC
:10176A00010DA00EF324D96E000E06D04B50010DC8
:10177A00A30EF324D96E000EF420DA6E0001DF7096
:10178A004B50D8A403D00AEC14F00ED0000E0E6E03
:10179A00720E0D6E5B0E0F6E000E106E000E126E44
:1017AA00000E116E5CEC17F01C2AC9D7A494120023
:1017BA00800E04013019D8A41200C00E00018B6FEC
:1017CA0082D0920E0001886F080E896F000E8D6F0D
:1017DA00120E8C6F120004013251D8A440D032513B
:1017EA00020D070EF324F66E080EF420F76E0900B8
:1017FA00F5CF88F00A00F5CF89F0020E000188259E
:10180A00016E000E8921026E01C0F6FF02C0F7FFC9
:10181A00F86A070EF76403D00800F55005D0F6CF32
:10182A00E9FFF7CFEAFFEF5000018C6F030E88251E
:10183A00016E000E8921026E01C0F6FF02C0F7FF99
:10184A00F86A070EF76403D00800F55005D0F6CF02
:10185A00E9FFF7CFEAFFEF5000018D6F1200000E8B
:10186A0000018B6F1200030E0401326124D0325141
:10187A00020D010EF324F66E080EF420F76E09002D
:10188A00F5CF88F00A00F5CF89F088C0F6FF89C045
:10189A00F7FFF86A070EF76403D00800F55005D081
:1018AA00F6CFE9FFF7CFEAFFEF50016E01500001D2
:1018BA008C6F8D6B1200000E00018B6F1200000EF0
:1018CA0000018B6F120004013351010AD8B479D791
:1018DA00030AD8B480D7010AD8B4C5D7F0D7000113
:1018EA00EE6F5DD0810E0001E36F0F0EE46F930E71
:1018FA00E56F0F0EE66F400EE76F060EE86F69ECB4
:10190A0019F04AD0810EE36F0F0EE46F930EE56F64
:10191A000F0EE66F100EE76F040EE86F69EC19F010
:10192A003BD0810EE36F0F0EE46F930EE56F0F0E3F
:10193A00E66F040EE76F020EE86F69EC19F02CD01F
:10194A00800EE36F0F0EE46F920EE56F0F0EE66FD7
:10195A00400EE76F060EE86F69EC19F01DD0800E95
:10196A00E36F0F0EE46F920EE56F0F0EE66F800EB7
:10197A00E76F070EE86F69EC19F00ED0810EE36F7E
:10198A000F0EE46F930EE56F0F0EE66F800EE76F92
:10199A00070EE86F69EC19F00001ED6F17D000012E
:1019AA00EE51010AD8B49ED7030AD8B4ABD7010ABC
:1019BA00D8B4B7D7070AD8B4C3D7010AD8B4CFD78F
:1019CA00030AD8B403D0010AD8A4D8D7060EEE6108
:1019DA001200EEC0EBF0010EEC6FEB2B02D0D890A8
:1019EA00EC37EB2FFCD70001EC51FF0ACA15CA6F7E
:1019FA001200A3940001AC51AD11D8B408D0ACC008
:101A0A00D9FFADC0DAFFDFAE02D0A3841200030E05
:101A1A00C519D8A402D0000EC56FC551D8A402D0EA
:101A2A00A3841200020EC519D8A413D0010EE36FC5
:101A3A00000EE46F000EE56F000EE66F020E0FEC6B
:101A4A0011F0E3C0ACF0E4C0ADF0030E0001C56FC5
:101A5A0058D0C505D8A455D0400EC46503D0400E51
:101A6A00EB6F02D0C4C0EBF0EB510008C425C46F81
:101A7A00000E9A6F050E9B6FEBC0EAF0C351D8B403
:101A8A0010D022D09DC0D9FF9EC0DAFF9AC0E1FFD4
:101A9A009BC0E2FFDFCFE7FF9A4B9B2B9D4B9E2B10
:101AAA00EA07EA51D8B413D0EDD79DC0D9FF9EC03A
:101ABA00DAFF9AC0E1FF9BC0E2FFDFCFE7FF9A4B54
:101ACA009B2B9D4B9E2BEA07EA51D8A4EED7C45113
:101ADA00D8A408D0400EEB19D8A402D0020E01D027
:101AEA00030EC56F010EE36F000EE46F050EE56F7E
:101AFA00EBC0E6F0020E0FEC11F0E3C0ACF0E4C06C
:101B0A00ADF0A384120020EE01F04150D9264250D4
:101B1A00DA22DF50026E02500001845D000E855900
:101B2A00D8A084C002F00250845F000E855B000ECC
:101B3A00016E11D00150010D380EF324D96E040E36
:101B4A00F420DA6E80C0E1FF81C0E2FFDFCFE7FF59
:101B5A00804B812B012A0250015CD8A0EBD784511B
:101B6A008511D8B432D020EE01F03F50D92640502A
:101B7A00DA22080EDF6E20EE02F03F50D9264050DE
:101B8A00DA22380EDE6E040EDD6E41C0D9FF42C085
:101B9A00DAFFDFBC0DD03FC0D9FF40C0DAFF480EE4
:101BAA00DF6E3FC0D9FF40C0DAFF000EDB8E1200A5
:101BBA003FC0D9FF40C0DAFF080EDF6E3FC0D9FF31
:101BCA0040C0DAFF000EDB8E120020EE01F03F501B
:101BDA00D9264050DA22080EDF6E20EE02F03F507E
:101BEA00D9264050DA22300EDE6E040EDD6E3FC07A
:101BFA00D9FF40C0DAFF040EDF6E3FC0D9FF40C0F4
:101C0A00DAFF000EDB8E839F4850D8A412004DECF9
:101C1A0010F012000001F56F000E0001F16F020EC4
:101C2A00F46F000EF36F000EF26FF551D8A404D0D2
:101C3A00010EF56F620EF26F000EF76F000EF66F6F
:101C4A00C151D8B417D0C051010D940EF324D96EE6
:101C5A00010EF420DA6EDF50F06FF051F36FF46B7F
:101C6A00C02BC151C05DD8A04ED0000EC06F000E6F
:101C7A00C16F49D0F529D8A43FD0010EF16F3CD0ED
:101C8A00940EEA6F010EEB6F400EEC6F75EC13F0D9
:101C9A000001F06FF051F66FF76BF151D8A411D033
:101CAA00F651F711D8A40DD0F22B030E04EC19F05B
:101CBA00640E0001F219D8A41FD0000EF26FF507C6
:101CCA001BD094C1F3F0F46BF75104E1020EF65DF8
:101CDA00D8A012D0F6C0C1F0010EC06FF7510CE1C6
:101CEA00400EF65DD8B008D0940EF625D96E010ED6
:101CFA00F721DA6E000EDF6EF651F711D8A403D081
:101D0A00F551D8A4BDD7F3C0EEF0F4C0EFF012003D
:101D1A00609800018BBF38D083AF0BD0020E4D6E96
:101D2A004450D8B426EC13F0000E466E000E476EEF
:101D3A00120020EE01F03F50D9264050DA22080E58
:101D4A00DF6E20EE02F03F50D9264050DA22300EE4
:101D5A00DE6E040EDD6E3FC0D9FF40C0DAFF0C0E06
:101D6A00DF6E3FC0D9FF40C0DAFF000EDB8E8EC0A7
:101D7A00D9FF8FC0DAFF040EDF6E8EC0D9FF8FC085
:101D8A00DAFF000EDB8E1200040130AF10D0010E14
:101D9A004D6E4550D8B426EC13F0000E466E000E78
:101DAA00476E4850D8A412004DEC10F01200020EF3
:101DBA004D6E20EE01F03F50D9264050DA22080E2F
:101DCA00DF6E20EE02F03F50D9264050DA22300E64
:101DDA00DE6E040EDD6E3FC0D9FF40C0DAFF040E8E
:101DEA00DF6E3FC0D9FF40C0DAFF000EDB8E000E67
:101DFA00466E000E476E4850D8A412004DEC10F003
:101E0A00120004013039E832030B0009D8A4120089
:101E1A0047D000018B8F080E4F6E1200DDEC0BF0DD
:101E2A00120077EC0FF012005C0E0001886F000EB2
:101E3A00896F8B81010E8C6F8B8F120081EC12F0EF
:101E4A0012003BEC07F0120004013451010D590E47
:101E5A00F3240001886F000EF420896F8B81010E34
:101E6A008C6F8B8F120000018B8F04013451010D8E
:101E7A00590EF324D96E000EF420DA6E32C4DFFF55
:101E8A001200000E0E6E020E0D6E000E0F6E000E88
:101E9A00106E000E126E000E116E5CEC17F012003E
:101EAA0004013151000AD8B4C9D7010AD8B4C9D734
:101EBA00020AD8B4C6D7060AD8B4ABD7030AD8B42C
:101ECA00ADD7010AD8B4DDD70F0AD8B4ADD7010A05
:101EDA00D8B4A7D7030AD8B4B7D7010AD8B4C3D796
:101EEA00070A120000018B8F6B0E016E0F0E026E35
:101EFA00000E046E000E036E000E066E020E056ED4
:101F0A0056EC1AF0000E016E040E026E000E046EFC
:101F1A00000E036E000E066E300E056E56EC1AF0B9
:101F2A00608C000E156E020E156401D016D0155085
:101F3A00010DA30EF324D96E000EF420DA6E000E02
:101F4A00DF6E1550010DA00EF324D96E000EF42099
:101F5A00DA6E000EDF6E152AE6D7590E016E000EF4
:101F6A00026E000E046E000E036E000E066E020E66
:101F7A00056E56EC1AF0609C080E00018E6F040E76
:101F8A008F6F000E416E040E426E41C03FF042C098
:101F9A0040F032C45CF05C50D8A403D0100E4F6EEF
:101FAA001200000E0E6E010E0D6E5C0E0F6E000E0C
:101FBA00106E000E126E010E116E5CEC17F0200E00
:101FCA004F6E1200080E016E00018D5110E1080ECD
:101FDA008C5DD8B00CD08CC001F04E50D8A402D081
:101FEA00010E04D04E04D8A402D0020E4E6E015047
:101FFA008C5F000E8D5B20EE01F08E51D9268F5139
:10200A00DA2201C0DFFF380EB06F040EB16F8BA168
:10201A001CD03AD088C0F6FF89C0F7FFF86AB0C072
:10202A00D9FFB1C0DAFF070EF76403D00800F550F4
:10203A0005D0F6CFE9FFF7CFEAFFEF50DF6E0001D8
:10204A00884B892BB04BB12B01060150D8B4120032
:10205A00E1D788C0F6FF89C0F7FFF86AB0C0D9FF98
:10206A00B1C0DAFF070EF76403D00800F55005D0B7
:10207A00F6CFE9FFF7CFEAFFEF50DF6E0001884B9A
:10208A00892BB04BB12B01060150D8B41200E1D70D
:10209A004750D8A41200010E476E4650D8A4120029
:1020AA00010E466E020E4D18D8A416D0000120EE7D
:1020BA0001F08E51D9268F51DA22000EDF6E8EC0C2
:1020CA00D9FF8FC0DAFF480EDF6E8EC0D9FF8FC0EE
:1020DA00DAFF000EDB8E12004D04D8A41200000EA7
:1020EA004A6E20EE01F04150D9264250DA22080EFB
:1020FA00DF6E20EE02F04150D9264250DA22300E2D
:10210A00DE6E040EDD6E41C0D9FF42C0DAFF040E56
:10211A00DF6E41C0D9FF42C0DAFF000EDB8E010E2E
:10212A004A6E20EE01F03F50D9264050DA22080EBE
:10213A00DF6E20EE02F03F50D9264050DA22300EF0
:10214A00DE6E040EDD6E3FC0D9FF40C0DAFF800E9E
:10215A00DF6E12000A6E0768000E086E000E0B6E24
:10216A00000E046E000E096E000E036E0A28D8A433
:10217A002DD0010E046E2AD00450D8A41ED00A50C5
:10218A00D8A403D0010E096E18D0000E066E000EF8
:10219A00056E065007E10C0E055CD8B003D0054A5F
:1021AA00062AF7D70828086E640E0818D8A405D09E
:1021BA000A040A6E0400000E086E000E9EBA010E92
:1021CA000B6E0B50D8B402D0020E096E0950D8B467
:1021DA00D3D7020E0918D8A419D0000EABB4010E39
:1021EA000B6E0B50D8B403D0AECF03F00FD0000E55
:1021FA00ABB2010E0B6E0B50D8B403D0AB98AB88C0
:10220A0005D0000E076E0750AE10076E07C001F02A
:10221A00026A12000001E76F0001E351D8B407D047
:10222A00E751020D8E0EF324D96E000E06D0E75147
:10223A00020D940EF324D96E000EF420DA6EDECF6E
:10224A00E8F0DDCFE9F0E851E911D8A405D0000E95
:10225A00E36F000EE46F120020EE02F0E851D92677
:10226A00E951DA22E4C0DEFFE5C0DDFF20EE01F02D
:10227A00E851D926E951DA22E6C0DFFFE8C0D9FFE2
:10228A00E9C0DAFF400EDF16E8C0D9FFE9C0DAFF7D
:10229A00000EDB86E8C0D9FFE9C0DAFF000EDB8E4C
:1022AA00E351D8B407D0E751020D8E0EF324D96E4C
:1022BA00000E06D0E751020D940EF324D96E000EDB
:1022CA00F420DA6E040EDF1AE8C0E3F0E9C0E4F0A5
:1022DA0012008EC0D9FF8FC0DAFF0001000EDFBCEA
:1022EA00010E026E040E8E1B080E4F18D8A40BD0D6
:1022FA00040132517F0B636E6350D8B402D0100EC2
:10230A0001D0040E4F6E4D04D8A43BD0000120EE3C
:10231A0002F08E51D9268F51DA22380EDE6E040E63
:10232A00DD6EE7EC0FF0020E4E18D8A40DD08EC069
:10233A00D9FF8FC0DAFF040EDF6E8EC0D9FF8FC0BF
:10234A00DAFF000EDB8E12000250D8A40DD08EC028
:10235A00D9FF8FC0DAFF480EDF6E8EC0D9FF8FC05B
:10236A00DAFF000EDB8E12008EC0D9FF8FC0DAFFB3
:10237A00080EDF6E8EC0D9FF8FC0DAFF000EDB8E2B
:10238A001200000183BF839F000E4D6E1200056E7E
:10239A000150D8B407D00550020D8E0EF324D96E21
:1023AA00000E06D00550020D940EF324D96E000ECD
:1023BA00F420DA6EDECF06F0DDCF07F00650071004
:1023CA00D8A405D0000E016E000E026E120020EE97
:1023DA0002F00650D9260750DA2202C0DEFF03C0F7
:1023EA00DDFF20EE01F00650D9260750DA2204C09C
:1023FA00DFFF06C0D9FF07C0DAFF400EDF1606C0AE
:10240A00D9FF07C0DAFF000EDB8606C0D9FF07C076
:10241A00DAFF000EDB8E0150D8B407D00550020D4A
:10242A008E0EF324D96E000E06D00550020D940EBE
:10243A00F324D96E000EF420DA6E040EDF1A06C0F9
:10244A0001F007C002F01200040130511F0BE80628
:10245A00D8A412003039E832030BE806D8A41200D7
:10246A003451D8B437D03405D8A4120033D0E80E8A
:10247A000001886F010E896F000E8D6F080E8C6F38
:10248A008B818B8F1200E80E0001886F010E896F15
:10249A008B8F120036C484F037C485F0F00E000129
:1024AA00806F010E816F000E866F000E876F838F1B
:1024BA001200F00E0001886F010E896F000E8D6FF9
:1024CA00070E8C6FC10E8B6F120032C4C2F000016E
:1024DA008B8F120004013151000AD8B4C8D7010AFF
:1024EA00D8B4D1D7210AD8B4D5D7010AD8B4E1D7FC
:1024FA00030AD8A41200E9D7000E0401386F000EAF
:10250A00396F39D000018B8F040138814C04D8A46B
:10251A003DD038833BD000018B8F38D000018B8FA0
:10252A00040134BF0AD034510F0B016E0150020D61
:10253A00940EF324D96E000E09D034510F0B016E9C
:10254A000150020D8E0EF324D96E000EF420DA6EBD
:10255A00DECF02F0DDCF03F002C0D9FF03C0DAFFFD
:10256A00DFAE14D002C0D9FF03C0DAFFDFA40ED059
:10257A00010E386F0BD030511F0B000AD8B4C2D7E6
:10258A00010AD8B4C8D7030AD8B4C8D700018BAF98
:10259A001200380E886F040E896F8B81020E8C6FC1
:1025AA0012000001E56F080E0001E56501D0120076
:1025BA00E551D8A402D0700E10D0E505D8A402D0F7
:1025CA00380E0BD0020EE519D8A402D09C0E05D005
:1025DA00030EE519D8A404D04E0EE36F010E1FD0E6
:1025EA00040EE519D8A402D09B0E17D0050EE519E2
:1025FA00D8A402D04D0E11D0060EE519D8A402D0E7
:10260A00330E0BD0070EE519D8A402D0190E05D047
:10261A00080EE519D8A404D00B0EE36F000EE46F80
:10262A00F1EC1BF00001E405D8A402D0AC9401D06F
:10263A00AC84E3C0AFFF000EAB6EAB8EAC8AAB8846
:10264A001200000E456E000E446E020E4D18D8A4FC
:10265A001FD020EE01F03F50D9264050DA22080E52
:10266A00DF6E20EE02F03F50D9264050DA22380EB3
:10267A00DE6E040EDD6E3FC0D9FF40C0DAFF480EA1
:10268A00DF6E3FC0D9FF40C0DAFF000EDB8E1200BA
:10269A0000018C510401365D00018D510401375946
:1026AA00D8B004D036C48CF037C48DF0E7EC0FF004
:1026BA00000120EE02F08E51D9268F51DA22380E0F
:1026CA00DE6E040EDD6E8EC0D9FF8FC0DAFF480EB3
:1026DA00DF6E8EC0D9FF8FC0DAFF000EDB8E1200CC
:1026EA00000E0001C66FAE51AF11D8B406D0AEC00D
:1026FA00D9FFAFC0DAFFDFBE3BD020EE01F0AE510A
:10270A00D926AF51DA22EC51DE5CD8B008D020EEDF
:10271A0001F0AE51D926AF51DA22DF50EC6F000E2C
:10272A00C66F13D0C651010D400EF324D96E050EA3
:10273A00F420DA6EC651010DF350EA25E16EF45029
:10274A00EB21E26EDFCFE7FFC62BEC51C65DD8A0C6
:10275A00E9D7000EE36F400EE46F050EE56F400EF9
:10276A00E66F020E0FEC11F0E3C0AEF0E4C0AFF07A
:10277A000001C6511200066E000E076E040E086EA6
:10278A000150026E036AD890023603360650046E70
:10279A00056AD89004360536D890043605360250B4
:1027AA00042603500522D89004360536D8900436FC
:1027BA000536045007260550082207C0D9FF08C06D
:1027CA00DAFFDF9E0150D8A407D00650020D940EFE
:1027DA00F324D96E000E06D00650020D8E0EF32495
:1027EA00D96E000EF420DA6E07C0DEFF08C0DDFFE6
:1027FA0007C0D9FF08C0DAFFDF9C20EE04F00750BB
:10280A00D9260850DA22DF8C12002D0E496E5BC0E1
:10281A001BF0FD0E1B16D8A438D05BC01BF0D89055
:10282A001B323F0E1B161B50040D000EF324416E83
:10283A00040EF420426E41C03FF042C040F0040E44
:10284A003F1A41C0D9FF42C0DAFFDF30E8320F0B2E
:10285A000D0AD8A417D0300E016E040E026E20EEB7
:10286A0002F04150D9264250DA22DECF03F0DDCF02
:10287A0004F0000E066E080E056E26EC19F0E0EC68
:10288A0014F012008AEC17F012005B50FD0B040AD8
:10289A00D8A412006EEC11F012000001E56F1AD0F4
:1028AA00939C8A50BF0B14D093988A50EF0B10D088
:1028BA0093948A50FB0B0CD0929C8950BF0B03D087
:1028CA00929E89507F0B806E1CD0939E8A507F0BFC
:1028DA00816E17D00001E551010AD8B4E1D7030A85
:1028EA00D8B4E2D7010AD8B4E3D7070AD8B4E4D7F0
:1028FA00010AD8B4E5D7030AD8B403D0010AD8A488
:10290A00E4D7060E0001E5611200E5C0E3F0010E0E
:10291A00E46FE32B02D0D890E437E32FFCD7000111
:10292A00E451CA11CA6F12000001E86F0001E451B4
:10293A00070BC06E0BD0010EBE6F920EAA6F0F0E60
:10294A00AB6F5B0EA86F0F0EA96F04D0E851000A97
:10295A00D8B4F1D7E551D8B40AD0E5C0E7F0030EF0
:10296A00E717D890E737D890E735C110C16EAAC0EB
:10297A00D9FFABC0DAFFDF50BF6FBF51BE11AAC08B
:10298A00D9FFABC0DAFFDF6EA8C0D9FFA9C0DAFF52
:10299A00DF50BE11A8C0D9FFA9C0DAFFDF6EE84533
:1029AA00E846FC0B0109C26EE65104EC19F0C2506C
:1029BA000209C26E1200000E4E6E000E486E000E24
:1029CA00456E000E446E000E4A6E000E4D6E8EC0AD
:1029DA00D9FF8FC0DAFF7F0EDF16040E00018E1BAF
:1029EA008EC0D9FF8FC0DAFF7F0EDF16040E8E1B52
:1029FA003FC0D9FF40C0DAFF7F0EDF16000E8B6F93
:102A0A00000E8D6F000E8C6F000E836F000E856FA7
:102A1A00000E846F06EC0FF0000E0E6E030E0D6EA4
:102A2A00000E0F6E000E106E000E126E000E116E6A
:102A3A005CEC17F08DEC0EF01200000E5E6E2E0E9E
:102A4A005D6E000E25D05050020D700EF324D96E23
:102A5A00000EF420DA6E000EDE6E170EDD6E505098
:102A6A00020D600EF324D96E000EF420DA6E000E09
:102A7A00DE6E170EDD6E5050020D5A0EF324D96E1B
:102A8A00010EF420DA6E000EDE6E000EDD6E5028A6
:102A9A00506E070E5064D7D7000E506E5D0EBF6E93
:102AAA00CC0EBE6E010ECD6E0B0EBD6E9D840A0E4F
:102ABA00976EA080F28CF28E12000001B851B65DBA
:102ACA00B951B759D8B00DD0B6C0E5F0B7C0E6F0E5
:102ADA00E51FE61FE54BE62BB851E525E76FB9512F
:102AEA0016D0B651B85DB751B959D8B013D0B6C0DF
:102AFA00E5F0B7C0E6F0E51FE61FE54BE62BB85157
:102B0A00E527B951E623000EE525E76F010EE62118
:102B1A00E86F04D0000EE86F000EE76FE7C0E3F03D
:102B2A00E8C0E4F012000001E46F000E0001E56F56
:102B3A009288010E04EC19F0800E000113D09480E3
:102B4A00010E04EC19F0928880A804D00001E55126
:102B5A00E611E56F94908290010E04EC19F00001E1
:102B6A00D890E631E66FE651D8A4E9D7E451D8B453
:102B7A0002D0928802D092988098010E04EC19F043
:102B8A009480010E04EC19F0949082900001E551B2
:102B9A0012000001B451B25DB551B359D8B00DD08D
:102BAA00B2C0E5F0B3C0E6F0E51FE61FE54BE62B41
:102BBA00B451E525E76FB55116D0B251B45DB351A2
:102BCA00B559D8B013D0B2C0E5F0B3C0E6F0E51FEE
:102BDA00E61FE54BE62BB451E527B551E623800EF7
:102BEA00E525E76F000EE621E86F04D0000EE86FD6
:102BFA00000EE76FE7C0E3F0E8C0E4F012002C0E25
:102C0A00F66E380EF76E000EF86E0900F5CF5DF01D
:102C1A000900F5CF5EF003EE00F011EE00F0EE6A67
:102C2A00E550E150FCE1E250FAE102EE00F0E40E78
:102C3A00EE6AE806FDE101EE00F0F70EEE6AE8063C
:102C4A00FDE100EE60F0830EEE6AE806FDE100EEBB
:102C5A003BF0220EEE6AE806FDE15F905F92000EFD
:102C6A00F86E000161EF09F00001E46F000E000147
:102C7A00E56F800E15D0E451E6150009D8B402D0EC
:102C8A00928802D092988098010E04EC19F09480F0
:102C9A00010E04EC19F0949082900001D890E6316C
:102CAA00E66FE651D8A4E7D79288010E04EC19F032
:102CBA009480010E04EC19F0928880A803D0010ECA
:102CCA000001E56F949082900001E5511200000E18
:102CDA000101F06F4B0EF16F000EF26F000EF36FF1
:102CEA00000EF46F000EF56F080EF66F000E00016D
:102CFA00C66F1A0E096E010E87EC19F01E0E096EC8
:102D0A00020E87EC19F0000E016E400E026E050EDF
:102D1A00036E400E046E020ECCEC11F001C0AEF050
:102D2A0002C0AFF0000E0001AC6F000EAD6F000ED6
:102D3A00C56F12000001ED6F000E0001EF6F000E6B
:102D4A00EE6F1F0E4F64120060B2120006D0010E21
:102D5A00EE25EE6F000EEF21EF6FC551D8B404D007
:102D6A007D0EEF5DD8A0F3D77D0EEF19EE11D8B422
:102D7A001200ED0EE36F000EE46F010EE56F93ECA7
:102D8A001AF002D0FEEC0CF00001C551D8A4FAD713
:102D9A00000EEC6F12000001B451B21904E1B551F2
:102DAA00B319D8B420D0000EB225D96E020EB321C1
:102DBA00DA6EDF50E56FE551E66FE76B010EB2257B
:102DCA00E86F000EB321E96FE95104E1800EE85D76
:102DDA00D8A004D0000EE96F000EE86FE8C0B2F088
:102DEA00E9C0B3F003D0000EE76FE669E6C0E3F08E
:102DFA00E7C0E4F012000001E76FC2B2FED700019B
:102E0A00E751D8B41BD0C450E56FE66BD890E537CC
:102E1A00E637D890E537E637E5C0E8F0E6C0E9F0EE
:102E2A00C3CFE5F0060EE66FD890E533E62FFCD760
:102E3A00E851E511E86FE951E96F03D0C4CFE8F032
:102E4A00E96BC2500209C26EE8C0E3F0E9C0E4F0DF
:102E5A001200000E0001EE6F000EED6F000EC16F42
:102E6A0008EC0AF04F50D8A40DD027EC1AF00AD07B
:102E7A000A0E81EC1AF0010E0001ED25ED6F000E2D
:102E8A00EE21EE6F200E4F18D8B407D0E80E0001DD
:102E9A00ED5D030EEE59D8A0EBD7200E4F18D8A43B
:102EAA0002D0000E12000001EC69EC51120006D0AB
:102EBA006CEC16F0120029EC12F012000DC013F09F
:102ECA000EC014F01450000AD8B404D07F0AD8A453
:102EDA00120018D01350010AD8B4EAD7030AD8B49A
:102EEA001200010AD8B4E7D7060AD8B41200770A42
:102EFA00D8B41200010AD8B41200070AD8B41200D2
:102F0A00010A12001350FF0A1200020E4D18D8A42B
:102F1A0003D088EC0DF01200000E4D6E4A50D8A472
:102F2A001FD020EE01F03F50D9264050DA22080E79
:102F3A00DF6E20EE02F03F50D9264050DA22300EE2
:102F4A00DE6E040EDD6E3FC0D9FF40C0DAFF0C0E04
:102F5A00DF6E3FC0D9FF40C0DAFF000EDB8E1200E1
:102F6A00000E4A6E12000F015951FC0B596FE3C053
:102F7A00BBFF0FD0040EBA6E1200050EBA6E120015
:102F8A00060EBA6E1200070EBA6E1200050EBA6E5F
:102F9A001200E5C0E7F0E6C0E8F00001E851000AD7
:102FAA00D8A4F4D7E751010AD8B4E4D7050AD8B4AB
:102FBA00E4D7140AD8B4E4D7500AD8B4E4D7E6D789
:102FCA000F015951F30B596FE3C0BBFF0FD0040E29
:102FDA00BA6E1200050EBA6E1200060EBA6E120012
:102FEA00070EBA6E1200050EBA6E1200E5C0E7F0BF
:102FFA00E6C0E8F00001E851000AD8A4F4D7E75186
:10300A00010AD8B4E4D7050AD8B4E4D7140AD8B464
:10301A00E4D7500AD8B4E4D7E6D70001B851B619B4
:10302A0004E1B951B719D8B41DD0000EB625D96E2E
:10303A00030EB721DA6EDF50E56FE551E66FE76BF5
:10304A00010EB625E86F000EB721E96FE905D8A091
:10305A0004D0000EE96F000EE86FE8C0B6F0E9C0D0
:10306A00B7F003D0000EE76FE669E6C0E3F0E7C009
:10307A00E4F012000001E46F010E0001B425E56FCF
:10308A00000EB521E66FE65104E1800EE55DD8A099
:10309A0004D0000EE66F000EE56FB251E51904E1A7
:1030AA00B351E619D8B40FD0000EB425D96E020E6A
:1030BA00B521DA6EE4C0DFFFE5C0B4F0E6C0B5F0D2
:1030CA00010EE36F1200000EE36F1200026E010E92
:1030DA000001B825036E000EB921046E0404D8A0BD
:1030EA0004D0000E046E000E036EB651031804E1FC
:1030FA00B7510418D8B40FD0000EB825D96E030EF4
:10310A00B921DA6E02C0DFFF03C0B8F004C0B9F01B
:10311A00010E016E1200000E016E1200E3C0E5F00E
:10312A00E4C0E6F00001D890E633E533D890E63300
:10313A00E533E551BE6E030EE315E56F000EE415A7
:10314A00E66FE53BE63BF00EE617E5510F0BE6139B
:10315A00F00EE517E5C0E3F0E6C0E4F0BD50CF0B92
:10316A00E311E76FE7C0BDFF1200E3C0E5F0E4C07A
:10317A00E6F00001D890E633E533D890E633E5333C
:10318A00E551906E030EE315E56F000EE415E66F48
:10319A00E53BE63BF00EE617E5510F0BE613F00EA2
:1031AA00E517E5C0E3F0E6C0E4F09750CF0BE31172
:1031BA00E76FE7C097FF12000001E46F060E0001F7
:1031CA00E4611200E451020D700EF324D96E000E70
:1031DA00F420DA6EE3512E0DF3CFDEFFF4CFDDFFDC
:1031EA00E451020D600EF324D96E000EF420DA6E5B
:1031FA00E3512E0DF3CFDEFFF4CFDDFF1200000105
:10320A00E36F07D0F00E00D0E82EFDD7640E000160
:10321A00E35F640E0001E361F5D706D0280EE82EBD
:10322A00FED70A0E0001E35F0A0EE361F7D703D067
:10323A00040EE82EFED70001E307E329D8B41200F2
:10324A00F7D703C009F004C00AF001C007F002C0B2
:10325A0008F010D009C0D9FF0AC0DAFFDF500B6EA0
:10326A00094A0A2A07C0D9FF08C0DAFF0BC0DFFFE4
:10327A00074A082A0506D8A006060528EBE106280B
:10328A00D8B41200E7D76AA01DD041C0D9FF42C006
:10329A00DAFF800EDE18D8A414D08EC0D9FF8FC0F2
:1032AA00DAFF840EDE18D8A40CD041C0D9FF42C080
:1032BA00DAFF0C0EDF6E41C0D9FF42C0DAFF000E02
:1032CA00DB8E6A90659A1200E5C0D9FFE6C0DAFF84
:1032DA00DF500001E711E5C0D9FFE6C0DAFFDF6E73
:1032EA00E8C0E9F0E3C0D9FFE4C0DAFFDF50E71530
:1032FA00EA6FE92B02D0D890EA33E92FFCD7000114
:10330A00EA5112000C6E09A405D0000E016E0C5091
:10331A00C0EC13F009A205D0010E016E0C50C0ECEE
:10332A0013F00C50010D6A0EF3240A6E0F0EF420EE
:10333A000B6E0AC0D9FF0BC0DAFF09C0DFFF12000B
:10334A00000E0001E86F000EE76F0BD0E751E3258E
:10335A00D96EE851E421DA6EDF50D8B408D0E74BD1
:10336A00E82BE551E75DE651E859D8A0EFD7E7C069
:10337A00E3F0E8C0E4F01200A6B2FED7E3C0A9FF6A
:10338A00E5C0A8FFA69EA684000EF2BE010E0001AB
:10339A00E76FF29E550EA76EAA0EA76EA682A6B278
:1033AA00FED70001E751D8A4F28EA6941200000EAF
:1033BA000001C86F000E0E6E740E0D6E000E0F6EB9
:1033CA00000E106E000E126E000E116E5CEC17F0FD
:1033DA006092649401D0659465B4FDD7000E000133
:1033EA00C76F1200030E0001E46F000EE56F280E8E
:1033FA00E66F000E99EC14F0010E00EC17F0E3C032
:10340A00ECF0E4C0EDF0F2EC1AF0ECC0EAF0EDC03A
:10341A00EBF01200E3C0E9F0E4C0EAF009D0E9C039
:10342A00D9FFEAC0DAFFE5C0DFFF0001E94BEA2B6A
:10343A000001E707D8A0E807E729F1E1E829D8B4AD
:10344A001200EDD74F50D8A41200000E606E000E85
:10345A00646E160E626E9F0E666E7B0E646ED08E62
:10346A00A584A384F28E01D0608660A6FDD7010EE2
:10347A004F6E1200648465986082010E0001C86F65
:10348A00000EC76F000E0E6E750E0D6E000E0F6EDB
:10349A00000E106E000E126E000E116E5CEC17F02C
:1034AA00120001C007F002C008F008D007C0D9FF17
:1034BA0008C0DAFF03C0DFFF074A082A0506D8A0BA
:1034CA0006060528F3E10628D8B41200EFD7030E42
:1034DA000001E46F000EE56F280EE66F000E99EC0E
:1034EA0014F0000E00EC17F00001E351EA6FF2EC61
:1034FA001AF00001EA5112000001E46F09D0100E1F
:10350A000001E36F940EE82EFED7E32FFCD700F0FC
:10351A000001E407E429D8B41200F1D7A39400010A
:10352A00C551D8A40AD0E3C09DF0E4C09EF0E5C01E
:10353A00C4F0010EC36F010EC56FA38412009288F6
:10354A00010E04EC19F09480010E04EC19F0929823
:10355A008098010E04EC19F0949082901200000EEB
:10356A00586E040E586401D012008A8A640E81ECE7
:10357A001AF08A9A640E81EC1AF0582AF2D7010ED0
:10358A003B26000E3C223D223E220001C851D8A40F
:10359A001200C72BC751D8A41200C7691200010E26
:1035AA000001CC6F000EE46FE369000EE66F010EB6
:1035BA00E56FB8EC17F0DDEC1BF01200010E00010C
:1035CA00CB6F000EE46FE369000EE66F010EE56F44
:1035DA00E5EC17F0E7EC1BF01200AAC0D9FFABC06C
:1035EA00DAFFBFC0DFFFA8C0D9FFA9C0DAFF000E0B
:1035FA00DF6E000EC26E12000001E36F000E0001C2
:10360A00E46FE3C0C9FFC7A0FED7C9CFE4F0000149
:10361A00E45112009490829092988098010E04ECE2
:10362A0019F09480010E04EC19F09288120094802B
:10363A009288010E04EC19F092988098010E04EC1D
:10364A0019F09490829012000001E36FC69AC65056
:10365A00FC0BC66E0001E351030BC610C66EC68A88
:10366A00120093968186938093928192000EC66E81
:10367A00C698C78CC79EC68A1200000E0D6E000E31
:10368A000C6E4EEC1BF00C50106E10506BEC18F0D8
:10369A0012000C50AFEC10F001C00EF002C00FF097
:1036AA000EC00CF00FC00DF012000001CC51D8B4BE
:1036BA001200E8C0E3F0E9C0E4F093EC18F012005D
:1036CA00E9C0E3F0EAC0E4F0EBC0E5F0ECC0E6F0F4
:1036DA00B8EC17F012000001CB51D8B41200E8C0C0
:1036EA00E3F0E9C0E4F0BAEC18F01200E8C0E3F045
:1036FA00E9C0E4F0EAC0E5F0EBC0E6F0C1EC19F08D
:10370A001200AC84190EAF6E000EAB6EAB8EAC8A93
:10371A00AB889D9A12000001E46F0001CC51D8B425
:10372A001200E451D8EC1BF012000001E46F000112
:10373A00CB51D8B41200E451E2EC1BF012000001A4
:10374A00E76F0001E75139EC16F00001E86FE85124
:10375A0012000001E76F0001E75198EC15F0000133
:10376A00E86FE8511200E5C0E3F0E6C0E4F0ECECE3
:10377A001BF012000001E66F0001E651D6EC12F0D0
:10378A001200600E7C6E7C5080097C6E1200000E66
:10379A000001CC6FF6EC1BF01200000E0001CB6F9B
:1037AA00FAEC1BF012000001E36FE3C0BEFF120047
:1037BA00949482940C0EBD6E12000001E36FE3C074
:1037CA0090FF1200949282920C0E976E12009EA89D
:1037DA00FED7E3C0ADFF1200000EAB6E000EAC6E5A
:1037EA0012009484000EBD6E12009482000E976E31
:1037FA001200000E7C6E120086EC1BF012000FEC19
:10380A001BF012001CEC1BF01200A4EC1AF01200C0
:10381A0010EC1CF01200928894801200E3C07BFF27
:06382A0012000100120073
:020000040030CA
:0E00000023E85F3CFFD181FF03C003E0034013
:00000001FF
