:0400000083EF01F099
:100008005F82E1CF25F0E2CF26F0D9CF27F0DACF13
:1000180028F0F3CF29F0F4CF2AF0F6CF2BF0F7CF62
:100028002CF0F8CF2DF0F5CF2EF09EBA9DAA03D074
:10003800F6EC15F09E9AB4EC08F09EB49DA473D02B
:10004800060E4E6035D04EC01FF0010E206E1F2ADE
:1000580002D0D89020361F2EFCD72050501428E00C
:100068004E5004E1939E8A508009816E4E0404E14B
:10007800939C8A504009816E020E4E1804E19398B1
:100088008A501009816E030E4E1804E193948A5029
:100098000409816E040E4E1804E1929C89504009AF
:1000A800806E050E4E1804E1929E89508009806E7C
:1000B8004E50020D660EF324D96E010EF420DA6E4E
:1000C800DECF1FF0DDCF20F01FC02FF020C030F0B2
:1000D800316A326AE30E2F262E0E3022000E3122AC
:1000E80032224E50020D560EF324D96E010EF42022
:1000F800DA6EDECF1FF0DDCF20F01FC021F020C068
:1001080022F0000E22BEFF0E236E246E21502F26F1
:1001180022503022235031222450322230C091FF05
:100128002FC090FF9E94A1B0A0A0D3D0060E4E6021
:1001380035D04EC01FF0010E206E1F2A02D0D89075
:1001480020361F2EFCD72050501428E04E5004E1D2
:10015800939E8A507F0B816E4E0404E1939C8A50D3
:10016800BF0B816E020E4E1804E193988A50EF0B74
:10017800816E030E4E1804E193948A50FB0B816E36
:10018800040E4E1804E1929C8950BF0B806E050E38
:100198004E1804E1929E89507F0B806E4E28070B03
:1001A8004E6E4E50020D460EF324D96E010EF42009
:1001B800DA6E4E50020D660EF324E16E010EF42045
:1001C800E26EDE50E65CDE50E65841E24E50020D2B
:1001D800660EF324D96E010EF420DA6EDECF1FF01E
:1001E800DDCF20F05D501F24336E5E502020346E2A
:1001F8004E50020D460EF324D96E010EF420DA6E2D
:10020800DE50335CDE5034580DE24E50020D660E5F
:10021800F324D96E010EF420DA6E33C0DEFF34C049
:10022800DDFF56D04E50020D460EF324D96E010E56
:10023800F420DA6E4E50020D660EF324E16E010EC4
:10024800F420E26EDECFE6FFDDCFE5FF41D04E5071
:10025800020D660EF324D96E010EF420DA6E4E50AC
:10026800020D460EF324E16E010EF420E26EDE501C
:10027800E65CDE50E65820E24E50020D660EF3248E
:10028800D96E010EF420DA6EDECF1FF0DDCF20F03C
:100298005D501F5C336E5E502058346E4E50020D18
:1002A800460EF324D96E010EF420DA6E3350DE5C6C
:1002B8003450DE58AAE3B6D74EC01FF0010E206EA8
:1002C8001F2A02D0D89020361F2EFCD7201C4F168C
:1002D800A1902EC0F5FF2DC0F8FF2CC0F7FF2BC052
:1002E800F6FF2AC0F4FF29C0F3FF28C0DAFF27C0B1
:1002F800D9FF26C0E2FF25C0E1FF5F921100C0EFE1
:0203080010F0F3
:1008000000A0486E0509024300020100C03209043D
:10081000000001020201000524001001042402026C
:1008200005240600010524010001070581030800D5
:100830000209040100020A0000000705020240004C
:100840000007058202400000260352006F00770077
:100850006C0061006E0064002000540065006300BD
:1008600068006E006F006C006F0067007900200365
:1008700049006E007400650072006600610063004C
:100880006500200042006F006100720064001201E8
:10089000000202000008BF1210FF00010102000167
:0508A00004030904003F
:1008A600800EDA1901E0B3D0605107E1929061B190
:1008B60002D0899001D089801CD2600507E192920E
:1008C60061B102D0899201D0898213D2020E6019D9
:1008D60007E1929661B102D0899601D0898609D244
:1008E600030E601907E1929461B102D0899401D098
:1008F6008984FFD1040E601907E1929861B102D094
:10090600899801D08988F5D1050E601907E1949080
:1009160061B102D08B9001D08B80EBD1060E6019AD
:1009260007E1949461B102D08B9401D08B84E1D11C
:10093600070E601907E1949261B102D08B9201D043
:100946008B82D7D1080E601907E1939661B102D068
:100956008A9601D08A86CDD1090E601907E1939057
:1009660061B102D08A9001D08A80C3D10A0E601983
:1009760007E1939261B102D08A9201D08A82B9D1FD
:100986000B0E601907E1929A61B102D0899A01D0E3
:10099600898AAFD10C0E601907E1939E61B102D02E
:1009A6008A9E01D08A8EA5D10D0E601907E1939C0F
:1009B60061B102D08A9C01D08A8C9BD10E0E60193F
:1009C60007E1939861B102D08A9801D08A8891D1C3
:1009D6000F0E601907E1939461B102D08A9401D099
:1009E6008A8487D1100E601907E1929C61B102D00A
:1009F600899C01D0898C7DD1110E601901E079D1D5
:100A0600929E61B102D0899E01D0898E72D1810EEB
:100A1600DA1901E08FD0605105E19280000E80B0B6
:100A2600010E33D1600505E19282000E80B2010EFF
:100A36002CD1020E601905E19286000E80B6010ED9
:100A460024D1030E601905E19284000E80B4010ED4
:100A56001CD1040E601905E19288000E80B8010EC3
:100A660014D1050E601905E19480000E82B0010EC6
:100A76000CD1060E601905E19484000E82B4010EB5
:100A860004D1070E601905E19482000E82B2010EB0
:100A9600FCD0080E601905E19386000E81B6010EA2
:100AA600F4D0090E601905E19380000E81B0010EA5
:100AB600ECD00A0E601905E19382000E81B2010E98
:100AC600E4D00B0E601905E1928A000E80BA010E81
:100AD600DCD00C0E601905E1938E000E81BE010E6E
:100AE600D4D00D0E601905E1938C000E81BC010E69
:100AF600CCD00E0E601905E19388000E81B8010E68
:100B0600C4D00F0E601905E19384000E81B4010E66
:100B1600BCD0100E601905E1928C000E80BC010E4F
:100B2600B4D0110E601901E0E4D0928E000E80BEA2
:100B3600010EABD0830EDA1904E16051BCEC15F05E
:100B4600A4D0850EDA1904E16051B2EC15F0D1D0CB
:100B56008A0EDA1904E160510FEC16F096D08B0E6E
:100B6600DA1904E1605117EC16F08FD08E0EDA19FF
:100B760006E160C0E7F0E86B2CEC16F0BAD0910EF7
:100B8600DA1942E1605141EC16F0EB6B2A0EEA6F7E
:100B960060C0ECF0ED6BDAEC15F0ABD0605103E021
:100BA6009CEC15F0A6D0A7EC15F0A3D0605103E09D
:100BB60054EC16F09ED05AEC16F09BD0EC6BEB6919
:100BC60060C0EDF0EE6BC6EC15F093D0605104E01A
:100BD6006151FFEC15F08DD0615107EC16F089D00C
:100BE600605109E06251F06F6151EA6FF0C0EBF0BD
:100BF600E4EC15F07ED06251F06F6151EA6FF0C0FF
:100C0600EBF0EDEC15F075D0DA51920AC7E0010A67
:100C1600CDE0070AD3E0010AD9E0030AE1E0970E26
:100C2600DA1904E1605126EC0FF063D0980EDA1958
:100C360004E160511CEC08F05CD0990EDA1906E16B
:100C460061C0E5F060518CEC14F053D09B0EDA19BC
:100C56001FE1020E60190DE152D8030EA6EC0EF04C
:100C6600000E52EC11F0E5510101326FD0EC15F097
:100C760040D0600508E143D8010EA6EC0EF0000E48
:100C860052EC11F0F0D734EC15F00101326F31D08F
:100C96009C0EDA1926E1020E60190EE130D8030E19
:100CA600A6EC0EF0010E52EC11F0E5C0F2F0E6C033
:100CB600F3F0D0EC15F010D0600508E120D8010E55
:100CC600A6EC0EF0010E52EC11F0EFD7CDEC14F0BD
:100CD600ECC0F2F0EDC0F3F0F2C033F1F3C032F144
:100CE60008D09B0EDA1905E160C0E5F0E66B51EC21
:100CF60016F00001DB5101E008D0DD6B1200030E97
:100D0600E66FE76B280EE86F280C020EDD6F020C0B
:100D1600040132050DE130511F0B0AE100019D8FE0
:100D2600030E0401311903E1010E496E01D0496A2F
:100D36003251D8A4120030511F0B020AD8A4120057
:100D460034510F0BD8B4120034510F0B156E030E2D
:100D56001560030C200E4C18D8A4120000019D8FBC
:100D6600040134BF04D096D87AD8B20F06D03451D5
:100D76000F0BF8EC09F073D8B50FD96EDA6ADF50AD
:100D8600196E19B002D01A9401D01A8434BF02D059
:100D960081D802D0345184D8D96EDA6A1AC0DEFFFF
:100DA6001BC0DDFF030E311914E154D8DFAE0BD0A2
:100DB60034BF03D06AD8B20F02D067D8B50FD96E48
:100DC600DA6A0001DF8246D8000EDB8443D8DB8E68
:100DD600000C040E1A1A3ED8DFAE0AD03BD87F0E9E
:100DE600DF1638D8000EDB8C45D896EC12F003D00F
:100DF60031D8000EDB8C040E1A1A19B203D02AD889
:100E0600DFAE13D0040134BF03D03FD8B20F02D0F7
:100E16003CD8B50FD96EDA6A0001DF921BD83B0EBB
:100E2600DF1628D896EC12F003D014D83B0EDF1646
:100E3600040134510F0B156E166A6A0E1524176ECF
:100E46000F0E1620186E17C0D9FF18C0DAFFFE0E57
:100E5600DF16FE0C1AC0D9FF1BC0DAFF1200D96ECE
:100E6600DA6ADECF1AF0DDCF1BF034510F0B156EA8
:100E7600155012000E6A050E0D6E1AC00FF01BC03B
:100E860010F0126A020E116E020C34510F0B156E21
:100E96001550120034510F0B020DF350A60F12001D
:100EA6000F0B020DF350A00F1200D96BD76BDB6B43
:100EB600D86B05D0020E51D0010ED96F7BD0DA5116
:100EC600800AF8E0010AF8E005D091EC15F0A5D00B
:100ED600010E43D0DA51820AF8E0010AEDE0060A73
:100EE600F7E00CD06DEC16F098D069EC16F095D0C2
:100EF6006BEC16F092D067EC16F08FD0DA51860ABA
:100F0600F1E0010AF2E00F0AF3E0010AF4E0030A55
:100F1600D3E0010AD1E014D065EC16F0F28EF28C23
:100F26009D8A7BD0010EDB6FBBEC12F0E55105D03C
:100F3600010EDB6F71EC12F0E5510101326F6DD0DD
:100F4600DA518D0AE9E0030AC3E0010AEBE01F0A61
:100F5600EFE0010ABDE003D0030ED96F5ED0DA518F
:100F6600920AB6E0010AB4E0070AB2E0010AA2E07A
:100F7600030AF2E0DA51970AABE00F0AA9E0010A88
:100F860099E00AD0010ED96F020E14D026EC16F0A5
:100F960044D063EC16F041D0DA519B0A8DE0070A83
:100FA600F1E0010AF3E0030AF4E0010A91E029D036
:100FB600D969010EDB6F31D0010EDB6FD6C032F17D
:100FC6002CD0CE0EE56F010EE66FE86B140EE76FC0
:100FD60075EC14F0E551DB6FEB6B0FD0CE0EEB2505
:100FE600D96EDA6A010EDA22320EEB25E16EE26A7A
:100FF600010EE222DFCFE7FFEB2BDB51EB5D0DE2CB
:10100600EDD7DA51A00AD4E0010AD2E0030AD4E00F
:10101600010AD7E0070A01E14DD70001D95103E0E3
:10102600010EDD6F010CDB5102E088EF06F0DD6B8F
:101036001200EF6F43D079D88AD861D802D0D89001
:10104600EC33EB2FFCD70001EC5148D06ED8100ED4
:10105600E96F040EEA6F53D802D0D890EC33EB2F29
:10106600FCD7F1D73BD061D8040EE96F020EEA6FC8
:1010760046D802D0D890EC33EB2FFCD7E4D72ED04D
:101086005DD865D83CD802D0D890EC33EB2FFCD78E
:10109600DAD724D053D860D832D802D0D890EC33DF
:1010A600EB2FFCD7D0D71AD040D856D828D802D0A4
:1010B600D890EC33EB2FFCD7C6D710D00001EF51F8
:1010C600010AB9E0030AC2E0010ACDE0070AD8E046
:1010D600010AE0E0030A02E0010AE6E1060EEF611A
:1010E600060CEFC0EDF0010EEE6FED2B02D0D8909E
:1010F600EE37ED2FFCD70001EE1D50161200E7C0AB
:10110600D9FFE8C0DAFFDF50E911E7C0D9FFE8C030
:10111600DAFFDF6EEAC0EBF0E5C0D9FFE6C0DAFF22
:10112600DF50E915EC6FEB2B1200810EE56F0F0E09
:10113600E66F930EE76F0F0EE86F0F0C800EE56FEC
:101146000F0EE66F920EE76F0F0EE86F0F0C400E54
:10115600E96F060EEA6F060C800EE96F070EEA6F5E
:10116600070C4C0407E160BA05D0656A64806488A0
:10117600020E4C6E65B464A403D06594F2EC14F0D0
:1011860060A202D0A494120065B064A006D0ADECB3
:1011960009F0A384040E4C6E659065B864A802D06D
:1011A600E0EC14F065AC13D064AC07D00E6A730E95
:1011B6000D6E0F6A4ED896EC12F0659C43EC15F056
:1011C600465001E04606465002E1DFEC0FF065BAF4
:1011D60064AA02D044EC14F065B264A208D07F0E73
:1011E6000E6E0D680F6A35D896EC12F0676A040E1B
:1011F6004C6002D0A494040C64A629D01E6A65A68D
:1012060026D061CF5BF05B30E832E8320F0B486ED8
:1012160065965BB403D04850B20F02D04850B50F64
:10122600D96EDA6A0001DF70485003E153EC10F022
:101236000AD00E6A720E0D6E5B0E0F6E106A126A7F
:10124600116A96EC12F01E2A030E1E64D8D7A494D7
:101256001200106A126A010E116E010C0F015B6B0F
:101266005C6B5D6B700ED36E0001DD6B010EFD6F66
:10127600939A8A9A70EC16F0D45103E1F3EC13F0CA
:10128600D56F52EC15F01AEC10F0D55112E1FA6B4D
:10129600FB6B0DD0000E00EC0BF0F0C0FAF0F1C0C5
:1012A600FBF0FB0504E2FA516EEC13F0FD6BFB0557
:1012B600F1E327EC13F0E551E61145E08A8AFBECF1
:1012C60011F0E551FC6FFCC0F9F028D0D751600F42
:1012D600D96EDA6AFCC0DFFFD72BD92904E1FC51AD
:1012E60002E1D7C0D9F0D751D9191EE153EC04F069
:1012F6001BD0320ED825D96EDA6A010EDA22DF50FB
:10130600F96FD82BD851DB190FE1DD6B0DD0FCAF8F
:101316000BD0FCC0DAF058EC07F006D0DD51010A1C
:10132600D5E0030AE6E0F3D7FD5109E0020EFD1908
:101336000FE0F9C0E7F0E86B2CEC16F009D0F95194
:101346004BEC13F005D0DC2BDC5102E18A8A9DD7E9
:101356008A9A9BD76CD856EC0CF0B8EC14F06EEC6D
:1013660014F0096A095035D8092A0B0E0964FAD710
:1013760068D86596000160D865B6FBD747D8096A74
:10138600095033D83ED8095034D8095046D80950A8
:1013960049D8092A020E0964F3D7080E000100D0C5
:1013A600A06F040EA16F160E6A6E040E0401036F81
:1013B600300E026F080E016F040E006F008F5C6A1C
:1013C60001017A6B7B6B7C6B7D6B0001D06B4C6A89
:1013D6001200040D000EF324D96E040EF420DA6E0A
:1013E600DE6ADE6ADE6ADD6A1200020DF350A00FC5
:1013F6001200020DF350A60FD96EDA6ADE6ADD6AB4
:101406001200D96EDA6ADE6ADD6A1200010E446ED7
:10141600436E426A416AD16B1200B50FD96EDA6A21
:10142600DF6A1200B20FD96EDA6ADF6A1200A3947D
:10143600676A656A6A6A12009D6B956B966B976B15
:101446001200608C636A6098609C1200800E040132
:101456003019D8A41200C00E00019D6F3DD08E0E2B
:1014660000019A6F9A51D8A4080E9B6F9F6B120EBB
:101476009E6F120C325156E13251040F48D8020EBB
:101486003AD8F76403D00800F55001D02ED80001F1
:101496009E6F030E30D8F76403D00800F55001D0D4
:1014A60024D800019F6F12003DD0030E32613AD05E
:1014B6003251010F2CD89AC0F6FF9BC0F7FFF86A8D
:1014C600070EF76403D00800F55001D00ED80001CE
:1014D6009E6F9F6B120026D004013351010ABFE0B4
:1014E600030AC8E0010AE1E01DD0F6CFE1FFF7CF1D
:1014F600E2FFE75012009A25016E000E9B21026E54
:1015060001C0F6FF02C0F7FFF86A070E1200016E6F
:1015160001C0F6FF080EF76E0900F5CF9AF000013C
:101526009B6F120000019D6B1200A3940001BC5139
:10153600BD1108E0BCC0D9FFBDC0DAFFDFAE02D0E6
:10154600A3841200030ECE1901E1CE6BCE5102E147
:10155600A3841200020ECE190AE145D8E76FE86FA0
:10156600020E1CEC0EF044D8030ECE6F2CD0CE0526
:101576002AE1400ECD6502D0ED6F02D0CDC0EDF070
:10158600ED51CD5F000EAC6F050EAD6FEDC0ECF00A
:10159600CC5102E005D019D8EC5104E0FCD715D89F
:1015A600EC51FDE1CD5106E1400EED19020ED8A435
:1015B600030ECE6F18D8050EE76FEDC0E8F0020EE9
:1015C6001CEC0EF015D8A3841200AF51D96EDA6A5E
:1015D600ACC0E1FFADC0E2FFDFCFE7FFAC4BAD2B08
:1015E600AF2BEC071200010EE56F000EE66F000C44
:1015F600E5C0BCF0E6C0BDF012000001F66FF26B6C
:10160600020EF56FF46BF36BF65104E1010EF66F03
:10161600620EF36FF76BF86BCB5110E08E0ECA2596
:10162600D96EDA6A010EDA22DF50F46FF56BCA2B37
:10163600CB51CA5D3EE3CA6BCB6B3BD0F62934E196
:10164600010EF26F31D08E0EEC6F010EED6F400E73
:10165600EE6FA2EC0FF0F76FF86BF2510DE1F75158
:10166600F8110AE1F32B030E91EC13F0640EF31953
:101676001BE1F36BF60718D08EC1F4F0F56BF85149
:1016860003E1020EF75D10E3F7C0CBF0010ECA6F5F
:10169600F8510AE1400EF75D07E28E0EF725D96E86
:1016A600010EF821DA6EDF6AF751F81102E1F65100
:1016B600CAE1F4C0F0F0F5C0F1F0120020EE01F03E
:1016C60015EC10F0DF50026E0250965D000E975931
:1016D60002E296C002F00250965F000E975B016A26
:1016E6000DD0380E0124D96EDA6A040EDA22925130
:1016F600E16EE26ADFCFE7FF922B012A0250015C1E
:10170600F0E39651971119E020EE01F020D824D885
:101716001ED8380E11EC10F058EC14F0DFBC05D0D2
:101726003BC0D9FF25D81DD8000C3BC0D9FF3CC013
:10173600DAFF080EDF6E15D8000C9CEC0CF0DF6E9D
:1017460010D8959F4550D8B4DFEC0FF012003B50EF
:10175600D9263C50DA221200080EDF6E20EE02F087
:10176600080C3BC0D9FF3CC0DAFF000EDB8E000C34
:101776003CC0DAFF480EDF6E480C080E016E000111
:101786009F510DE1080E9E5D0AE29EC001F04B508E
:1017960002E1010E03D04B0402E1020E4B6E015032
:1017A6009E5F000E9F5B20EE01F02ED801C0DFFF8A
:1017B600380E396E040E3A6E9DB11AD00BD09AC00F
:1017C600F6FF19D8F76403D00800F55002D078EC7C
:1017D6000AF01FD80150F3E112009AC0F6FF0BD8A9
:1017E600F76403D00800F55002D078EC0AF011D85F
:1017F6000150F3E112009BC0F7FFF86A39C0D9FF28
:101806003AC0DAFF070E1200A051D926A151DA22FA
:101816001200DF6E00019A4B9B2B394A3A2A0106C9
:10182600120000019D8F3FD8B8EC14F0016A040E37
:10183600026E046A036A066A300E056EB8EC14F08E
:10184600608C156A155010EC0AF0155015EC0AF06C
:10185600152A020E1564F6D7590E016E026A046A3D
:10186600036A066A020E056EB8EC14F0609C080E58
:101876000001A06F040EA16F000E3D6E040E1DD870
:1018860032C45CF05C5003E1100E4C6E100C0E6A14
:10189600010E0D6E5C0E0F6E2CEC09F096EC12F03C
:1018A600200E4C6E200C6B0E016E0F0E026E046A3B
:1018B600036A066A020E056E020C3E6E3DC03BF0E0
:1018C6003EC03CF01200609800019DBF15D095AF58
:1018D60009D0020E4A6E415002E1F5EC10F0436A5F
:1018E600446A120026D80C0EDF6EB4EC0BF080ECC6
:1018F6000DF0040E78EF0DF0040130AF0DD0010E9F
:101906004A6E425002E1F5EC10F0436A446A4550D3
:10191600D8A41200DFEF0FF0020E4A6E0AD8DF6E6F
:10192600B4EC0BF0436A446A455002E1DFEF0FF076
:10193600120020EE01F03B50D9263C50DA22080E68
:10194600DF6E20EE02F03B50D9263C50DA22300EF4
:10195600DE6E040EDD6E3BC0D9FF3CC0DAFF040C20
:1019660004013039E832030B21E0120000019D8F9B
:10197600080E4C6E080C5C0E00019A6F37D034517D
:10198600590F1C6E1CC09AF0000130D000019D8FCB
:1019960004013451590FD96EDA6A32C4DFFF1200DE
:1019A6000E6A020EECEC14F096EF12F0315102E1E1
:1019B600E6EF0EF0010A02E18BEF06F0020A02E101
:1019C6008BEF06F0060AD2E0030A02E129EF0AF0DD
:1019D600010AE6E00F0ACFE0010A02E114EF0CF07B
:1019E600030ACDE0010AD2E0070A12009B6B9D8133
:1019F600010E9E6F9D8F010C056E015003E0055090
:101A060034D802D005502DD8D96EDA6ADECF06F06A
:101A1600DDCF07F00650071003E1016A026A1200E3
:101A260020EE02F030D802C0DEFF03C0DDFF20EE5C
:101A360001F029D804C0DFFF1CD8400EDF1619D8E4
:101A4600000EDB8616D8DB8E015003E005500DD85C
:101A560002D0055006D812D806C001F007C002F021
:101A6600040C020DF350A60F1200020DF350A00F46
:101A7600120006C0D9FF07C0DAFF1200D96EDA6A73
:101A8600040EDF1A040C0650D9260750DA2212007B
:101A960034D8000EDFBC010E026E040EA01B080E29
:101AA6004C1809E1040132517F0B636E6350100E2E
:101AB600D8B4040E4C6E4A0413E1000129D822D88A
:101AC600C0EC0BF0020E4B1803E117D8040E0DD034
:101AD600025003E112D8480E08D00FD8080E05D0E0
:101AE600000195BF959F4A6A1200DF6EA0C0D9FF1C
:101AF600A1C0DAFF000EDB8E000CA0C0D9FFA1C08A
:101B0600DAFF1200DA22380EDE6E040EDD6E040CE9
:101B160020EE02F0A051D926A1511200086E0468E9
:101B2600056A036A096A082822E1010E036E1FD0BE
:101B3600035015E1085003E1010E096E10D0066A44
:101B4600076A064A072A075003E10C0E065CF9E30A
:101B5600052A640E051803E108060400056A000E4E
:101B66009EBA010E0A6E0A5002E0020E096E095074
:101B7600DFE0020E091814E1000EABB4010E0A6E86
:101B86000A5002E0AE500CD0000EABB2010E0A6E47
:101B96000A5003E0AB98AB8803D0046AAE50041237
:101BA60004C001F0026A1200E76F080E0001E76543
:101BB60001D0080CE75102E1700E0DD0E70502E1F5
:101BC600380E09D0020EE71902E19C0E04D0030E6E
:101BD600E71905E14E0EE56F010EE66F1BD0040E08
:101BE600E71904E19B0EE56FE66B14D0050EE719C5
:101BF60002E14D0EF8D7060EE71902E1330EF3D7D0
:101C0600070EE71902E1190EEED7080EE71902E1F1
:101C16000B0EE9D760EC16F0E60502E1AC9401D0B4
:101C2600AC84E5C0AFFF00D0AB6AAB8EAC8AAB88A4
:101C36001200E96F0001E55104E0E95138EC0DF0BE
:101C460003D0E95134EC0DF0D96EDA6ADECFEAF052
:101C5600DDCFEBF0EA51EB1103E1E56BE66B120029
:101C660020EE02F026D8E6C0DEFFE7C0DDFF20EE5C
:101C760001F01FD8E8C0DFFF17D8400EDF1614D8D2
:101C8600000EDB8611D8DB8EE55104E0E95138EC15
:101C96000DF003D0E95134EC0DF041EC0DF0EAC043
:101CA600E5F0EBC0E6F0040CEAC0D9FFEBC0DAFFC2
:101CB6001200EA51D926EB51DA2212000401305102
:101CC6001F0BE80601E012003039E832030BE80684
:101CD60001E01200345126E0340524E012002DD82C
:101CE6009F6B080E9E6F9D819D8F080C26D89D8F39
:101CF600120036C496F037C497F0DE0E0001926FDC
:101D0600986B996B958F1200DE0E00019A6F9B6B94
:101D16009F6B070E9E6FC10E9D6FC10C3251000165
:101D26009D8F12003151DBE0010AE0E0210AE1E07B
:101D3600010AEAE0030AF2E01200E20E00019A6FDD
:101D4600010E9B6F1200EA6F0001E651070BC06E91
:101D56000BD0010EC86F920EBA6F0F0EBB6F5B0EE3
:101D6600B86F0F0EB96F02D0EA51F3E0E75109E000
:101D7600E7C0E9F0030EE917D890E937D890E935BE
:101D8600C11217D8DF50C96FC951C81112D8DF6EFA
:101D960015D8DF50C81112D8DF6EEA45E846FC0BAD
:101DA6000109C26EE85191EC13F0C2500209C26EED
:101DB6001200BAC0D9FFBBC0DAFF1200B8C0D9FF03
:101DC600B9C0DAFF12000401386B396B25D0000167
:101DD6009D8F04013881490426E1388324D000010F
:101DE6009D8F21D000019D8F040134BF03D04DEC9F
:101DF60007F003D0345153EC07F0D96EDA6ADECF20
:101E060001F0DDCF02F01AD8DFAE0DD017D8DFA46F
:101E16000AD0010E386F07D030511F0BD8E0010AE7
:101E2600DEE0030ADFE000019DAF1200380E9A6F74
:101E3600040E9B6F9D81020E9E6F020C01C0D9FF9E
:101E460002C0DAFF1200E76F1AD0939C8A50BF0BCC
:101E560014D093988A50EF0B10D093948A50FB0BB2
:101E66000CD0929C8950BF0B03D0929E89507F0B59
:101E7600806E15D0939E8A507F0B816E10D0000124
:101E8600E751010AE2E0030AE4E0010AE6E0070A94
:101E9600E8E0010AEAE0030A02E0010AEBE1060EC5
:101EA600E761060CE7C0E5F0010EE66FE52B02D010
:101EB600D890E637E52FFCD70001E6515010506E5A
:101EC6001200066E076A040E086E0150026E036A5F
:101ED600D890023603360650046E056A24D802509E
:101EE6000426035005221FD8045007260550082251
:101EF60021D8DF9E015004E1065034EC0DF003D0EA
:101F0600065038EC0DF0D96EDA6A07C0DEFF08C05D
:101F1600DDFF10D8DF9C20EE04F00750D9260850CC
:101F2600DA22DF8C1200D89004360536D8900436B3
:101F36000536120007C0D9FF08C0DAFF1200CF6BC2
:101F4600BE51BF1106E0BEC0D9FFBFC0DAFFDFBE7B
:101F56002AD02BD8EE51DE5C03E227D8DF50EE6F95
:101F6600CF6B0FD0400ECF25D96EDA6A050EDA2276
:101F7600CF51EC25E16E000EED21E26EDFCFE7FFDB
:101F8600CF2BEE51CF5DEEE3000EE56F400EE66F10
:101F9600050EE76F400EE86F020E1CEC0EF0E5C072
:101FA600BEF0E6C0BFF0CF51120020EE01F0BE51E8
:101FB600D926BF51DA2212004450D8A41200010ECD
:101FC600446E4350D8A41200010E436E020E4A1806
:101FD6000BE1000120EE01F007EC0CF0DF6A80EC6B
:101FE6000DF0480E78EF0DF04A04D8A41200476AA7
:101FF60020EE01F017D8AFEC0BF014D8300E0ED847
:1020060058EC14F0DF6E58EC14F0000EDB8E010E67
:10201600476E9CEC0CF0800EDF6E800CDE6E040EBC
:10202600DD6E040C3D50D9263E50DA2212005E6A5F
:10203600460E5D6E4E6A0ED04E5027D81ED82BD84F
:102046001CD8560EF324D96E010EF420DA6EDE6A21
:10205600DD6A4E2A070E4E64EFD74E6A750EBF6EC6
:10206600300EBE6E010ECD6E0B0EBD6E9D840A0E39
:10207600976EA080F28CF28E0A0CF420DA6EDE6A7D
:10208600230EDD6E4E50020D1200020D660EF32475
:10209600D96E010E1200460EF324D96E010E1200FF
:1020A6002D0E466E5BC01DF0FD0E1D1629E1D89063
:1020B6005B303F0B040D000EF3243D6E040EF4203E
:1020C60060EC0CF0040E3B1A58EC14F0DF30E832EA
:1020D6000F0B0D0A02E003EF15F0300E016E040E31
:1020E600026E20EE02F015EC10F0DECF03F0DDCF2D
:1020F60004F0066A080E056EB2EC13F04AEF12F011
:102106005B50FD0B040AD8B44BEC0DF012001AEC30
:102116000AF06B0EE56F0F0EE66FE86BE76BEA6B86
:10212600020EE96FA3EC14F06EEC14F0ED6BED51BA
:10213600ECEC09F0ED2B0B0EED65F9D724EC0AF06B
:1021460065961FEC0AF065B6FBD709EC0AF0ED6B55
:10215600ED51F8EC09F004EC0AF0ED51FCEC09F055
:10216600ED5110EC0AF0ED5115EC0AF0ED2B020ED4
:10217600ED65EED7080ED3EF09F0DE0EF66E2C0EE7
:10218600F76E000EF86E0900F5CF5DF00900F5CF89
:102196005EF003EE00F011EE00F0EE6AE550E1505D
:1021A600FCE1E250FAE102EE00F0B20EEE6AE80659
:1021B600FDE101EE00F0EA0EEE6AE806FDE100EE52
:1021C60060F0850EEE6AE806FDE100EE35F0280EB9
:1021D600EE6AE806FDE15F905F92000EF86E000180
:1021E60031EF09F0426A416A020E4A1813E120EE05
:1021F60001F0AAEC0BF0AFEC0BF0AAEC0BF0380EEA
:10220600DE6E040EDD6E3BC0D9FFBBEC0BF0B4EC0A
:102216000BF0000C00019E510401365D00019F5138
:102226000401375904E236C49EF037C49FF0C0EC6F
:102236000BF08BEC0DF085EC0DF080EC0DF0480EFC
:1022460078EF0DF0E66F0001E76B9288040E91ECD3
:1022560013F0800EE86F10D09480040E91EC13F00A
:10226600928880A802D0E851E71394908290040ED9
:1022760091EC13F0D890E833E851EEE1E65102E034
:10228600928802D092988098040E91EC13F0948074
:10229600040E91EC13F094908290E7511200E96FCE
:1022A600C2B2FED70001E9511AE0C450E76FE86BED
:1022B600D890E737E837D890E737E837E7C0EAF04D
:1022C600E8C0EBF0C3CFE7F0060EE86FD890E7332F
:1022D600E82FFCD7EA51E711EA6FEB5103D0C4CFE0
:1022E600EAF0EB6BC2500209C26EEAC0E5F0EBC041
:1022F600E6F01200E66F0001E76B800EE86F12D081
:10230600E651E81502E0928802D092988098040E71
:1023160091EC13F09480040E91EC13F0949082905B
:10232600D890E833E851ECE19288040E91EC13F072
:102336009480040E91EC13F0928880A802D0010ECE
:10234600E76F94908290E7511200FC0E0F01591727
:10235600E5C0BBFF08D047EF12F044EF12F03EEFA6
:1023660012F041EF12F0E7C0E9F0E8C0EAF0000130
:10237600EA5102E044EF12F0E951010A02E147EFA7
:1023860012F0050A02E144EF12F0140A02E13EEFF0
:1023960012F0500A02E141EF12F044EF12F0000190
:1023A600DE6B4B0EDF6FE06BE16BE26BE36B080EEF
:1023B600E46FCF6B1A0E096E010E10EC14F01E0EB0
:1023C600096E020E10EC14F0000E016E400E026E45
:1023D600050E036E400E046E020EFFEC0CF001C0FB
:1023E600BEF002C0BFF00001BC6BBD6BCE6B12002D
:1023F600C251C01903E1C351C1191AE0000EC0252C
:10240600D96E020EC121DA6EDF50E76FE86BC02984
:10241600E96F000EC121EA6FEA5103E1800EE95D22
:1024260002E3E96BEA6BE9C0C0F0EAC0C1F003D091
:10243600000EE86BE769E7C0E5F0E8C0E6F01200D9
:10244600F30E0F015917E5C0BBFF04D01DD019D0FC
:1024560012D014D0E7C0E9F0E8C0EAF00001EA5172
:1024660010E1E951010A10E0050A0BE0140A03E045
:10247600500A04E006D0060EBA6E060C070EBA6EB7
:10248600070C050EBA6E050C040EBA6E040C4B6AE8
:10249600456A426A416A476A4A6A80EC0DF019D871
:1024A60080EC0DF016D83BC0D9FF3CC0DAFF7F0E9A
:1024B600DF169D6B9E6B9F6B956B966B976BB3EC64
:1024C6000CF00E6A030EECEC14F096EC12F066EFCC
:1024D6000CF07F0EDF16040EA01B040CC651C419A7
:1024E60003E1C751C51917E0000EC425D96E030EC6
:1024F600C521DA6EDF50E76FE86BC429E96F000E7D
:10250600C521EA6FEA0502E3E96BEA6BE9C0C4F0AC
:10251600EAC0C5F003D0000EE86BE769E7C0E5F056
:10252600E8C0E6F012000DC013F00EC014F014500F
:1025360004E07F0AD8A4120019D01350010A02E160
:10254600D2EF11F0030AD8B41200010A02E161EFDA
:102556000EF0060AD8B41200770AD8B41200010A9F
:10256600D8B41200070AD8A4010A1200131C1200DC
:10257600C651C45DC751C55906E2C451C65DE96F6F
:10258600C551C75910D0C451C65DC551C7590DE2D2
:10259600C451C65DE76FC551C759E86F000EE72500
:1025A600E96F010EE821EA6F02D0E96BEA6BE9C038
:1025B600E5F0EAC0E6F01200E5C0E7F0E6C0E8F0B4
:1025C600D890E833E733D890E833E733E751BE6E67
:1025D600030EE515E76FE86BE73BE83BF00EE817FF
:1025E600E7510F0BE813F00EE717E7C0E5F0E8C078
:1025F600E6F0BD50CF0BE511E96FE9C0BDFF120053
:10260600E5C0E7F0E6C0E8F0D890E833E733D890C5
:10261600E833E733E751906E030EE515E76FE86B95
:10262600E73BE83BF00EE817E7510F0BE813F00E17
:10263600E717E7C0E5F0E8C0E6F09750CF0BE511E5
:10264600E96FE9C097FF1200C251C05DC351C1597D
:1026560006E2C051C25DE96FC151C35910D0C051E5
:10266600C25DC151C3590DE2C051C25DE76FC15190
:10267600C359E86F800EE725E96F000EE821EA6F7F
:1026860002D0E96BEA6BE9C0E5F0EAC0E6F01200B9
:10269600EF6F0001F06BF16B1F0E4C641F0C60B204
:1026A6001F0C03D0F02B000EF123CE5103E07D0E5C
:1026B600F15DF8E37D0EF119F01101E11200EF0E64
:1026C600E56F010EE66F79EC15F002D098EC0AF092
:1026D600CE51FCE11200E66F010E0001C225E76F44
:1026E600000EC321E86FE85103E1800EE75D02E3C7
:1026F600E76BE86BC051E71904E1C151E819D8B49A
:102706001200000EC225D96E020EC321DA6EE6C093
:10271600DFFFE7C0C2F0E8C0C3F012000001E56FBA
:1027260007D0F00E00D0E82EFDD7640E0001E55F5D
:10273600640E0001E561F5D706D0280EE82EFED717
:102746000A0E0001E55F0A0EE561F7D703D0040E15
:10275600E82EFED70001E507E529F9E1120003C0DE
:1027660009F004C00AF001C007F002C008F010D05A
:1027760009C0D9FF0AC0DAFFDF500B6E094A0A2AE0
:1027860007C0D9FF08C0DAFF0BC0DFFF074A082AD7
:102796000506D8A006060528EBE10628E9E11200A1
:1027A600026E010E0001C625036E000EC721046EDF
:1027B600040402E3036A046AC451031804E1C55120
:1027C6000418D8B41200000EC625D96E030EC72110
:1027D600DA6E02C0DFFF03C0C6F004C0C7F0120005
:1027E600EF6BF06BCB6B8AEC10F04C5009E15DECB3
:1027F60014F006D00A0E24EC15F0EF2B000EF02391
:10280600200E4C1805E0E80EEF5D030EF059F2E3DA
:10281600200E4C1801E1000CFF0C0C6E09A404D02C
:10282600016A0C5064EC0FF009A205D0010E016E8E
:102836000C5064EC0FF06A0E0C240A6E0B6A0F0E35
:102846000B220AC0D9FF0BC0DAFF09C0DFFF0F0C4D
:10285600A6B2FED7E5C0A9FFE7C0A8FFA69EA6843C
:10286600000EF2BE010EE96FF29E550EA76EAA0E7D
:10287600A76EA682A6B2FED7E95101E0F28EA69413
:1028860012006AA010D011D8800EDE180BE180EC81
:102896000DF0840EDE1806E108D80C0EDF6E05D8A2
:1028A600000EDB8E6A90659A12003DC0D9FF3EC0CD
:1028B600DAFF12004C50D8A41200606A646A0BD882
:1028C600D08EA584A384F28E01D0608660A6FDD743
:1028D600010E4C6E010C160E626E9F0E666E7B0E1E
:1028E600646E7B0CE96BEA6B0AD0E951E525D96E7B
:1028F600EA51E621DA6EDF5007E0E94BEA2BE751B1
:10290600E95DE851EA59F1E3E9C0E5F0EAC0E6F02D
:102916001200E66F060E0001E661060CE65148EC71
:1029260010F005D8E651020D4EEC10F000D0F42060
:10293600DA6EE551460DF3CFDEFFF4CFDDFF120070
:10294600E5C0EBF0E6C0ECF008D0EBC0D9FFECC078
:10295600DAFFE7C0DFFFEB4BEC2BE907D8A0EA076D
:10296600E929F3E1EA29F1E1120001C007F002C00A
:1029760008F008D007C0D9FF08C0DAFF03C0DFFFA0
:10298600074A082A0506D8A006060528F3E1062800
:10299600F1E1120082EC06F0000EA6EC0EF0010E3C
:1029A60052EC11F0E5C0EEF0E6C0EFF0D0EC15F019
:1029B600EEC0ECF0EFC0EDF0120064846598608222
:1029C600010E0001D16FD06B0E6A750E02D896EF1C
:1029D60012F00D6E0F6A106A126A116A1200000177
:1029E600D16B0E6A740EECEC14F096EC12F0609259
:1029F600649401D0659465B4FDD70001D06B1200D4
:102A0600020E4A1802E161EF0BF04A6A475007E1ED
:102A16009CEC0CF00C0EDF6EB4EC0BF0000C476A6D
:102A260012009288040E91EC13F09480040E91EC3F
:102A360013F06AEC15F091EC13F000D094908290AC
:102A46001200E66F09D0100E0001E56F940EE82E15
:102A5600FED7E52FFCD700F00001E607E629F3E1F3
:102A6600120082EC06F0000EA6EC0EF0000E52EC00
:102A760011F0E551EC6FD0EC15F00001EC511200AD
:102A860001017A2B000E7B237C237D230001D1518B
:102A9600D8A41200D02BD051D8B4D0691200586AED
:102AA6008A8A640E24EC15F08A9A640E24EC15F0DA
:102AB600582A040E5864F4D7040C94809288040EA5
:102AC60091EC13F004D891EC13F021EF15F09298E5
:102AD6008098040C949082906AEC15F091EC13F0B7
:102AE6009480040E91EC13F092881200A394CE51B8
:102AF60007E1E5C0AFF0E6C0CDF0010ECC6FCE6FBA
:102B0600A38412000B5091EC0DF001C00DF002C031
:102B16000EF00DC00BF00EC00CF0120093968186DD
:102B2600938093928192C66AC698C78CC79EC68ABE
:102B36001200010ED36FE66BE569E86B010EE76FD5
:102B4600A8EC11F032EF16F0010ED26FE66BE569D4
:102B5600E86B010EE76F23EC12F037EF16F0E56F26
:102B6600C69AFC0EC6160001E551030BC612C68AAC
:102B76001200E56FE5C0C9FFC7A0FED7C9CFE6F0D2
:102B86000001E6511200EBC0E5F0ECC0E6F0EDC046
:102B9600E7F0EEC0E8F0A8EF11F0DCEC0EF0C9C0EB
:102BA600DFFFE1EC0EF0000EDF6AC26A1200EAC037
:102BB600E5F0EBC0E6F0ECC0E7F0EDC0E8F02BEF97
:102BC60014F0D351D8B41200EAC0E5F0EBC0E6F039
:102BD600DFEF12F0D251D8B41200EAC0E5F0EBC034
:102BE600E6F003EF13F00C6A0B6A85EC15F00B5058
:102BF6000F6E0F50D3EF13F0E66F0001D351D8B428
:102C06001200E65146EF16F0E66F0001D251D8B435
:102C16001200E6514AEF16F0E96F0001E9517DEC2A
:102C260011F0EA6FEA511200E96F0001E95125EC53
:102C360011F0EA6FEA511200AC84190EAF6E17EC70
:102C46000EF09D9A1200600E7C6E7C5080097C6EA0
:102C56001200E7C0E5F0E8C0E6F03CEF16F0949409
:102C660082940C0EBD6E0C0C949282920C0E976E92
:102C76000C0C9EA8FED7E5C0ADFF1200E86F000160
:102C8600E851D7EF0DF0E56FE5C0BEFF1200E56F26
:102C9600E5C090FF1200928894801200E5C07BFF89
:102CA6001200D36B57EF16F09484BD6A1200D26BF4
:102CB6005DEF16F09482976A1200AB6AAC6A120056
:102CC6007C6A12001FEF16F06DEF15F060EF15F03D
:0C2CD60014EF15F04EEF16F00100120094
:020000040030CA
:0E00000023E85F3CFFD181FF03C003E0034013
:00000001FF
